{
	"contracts/bank.sol": {
		"BankContract": {
			"abi": [
				{
					"inputs": [],
					"stateMutability": "nonpayable",
					"type": "constructor"
				},
				{
					"anonymous": false,
					"inputs": [
						{
							"indexed": true,
							"internalType": "address",
							"name": "sender",
							"type": "address"
						},
						{
							"indexed": false,
							"internalType": "uint256",
							"name": "amount",
							"type": "uint256"
						}
					],
					"name": "Deposit",
					"type": "event"
				},
				{
					"anonymous": false,
					"inputs": [
						{
							"indexed": true,
							"internalType": "address",
							"name": "receiver",
							"type": "address"
						},
						{
							"indexed": false,
							"internalType": "uint256",
							"name": "amount",
							"type": "uint256"
						}
					],
					"name": "Withdraw",
					"type": "event"
				},
				{
					"inputs": [
						{
							"internalType": "address",
							"name": "",
							"type": "address"
						}
					],
					"name": "balances",
					"outputs": [
						{
							"internalType": "uint256",
							"name": "",
							"type": "uint256"
						}
					],
					"stateMutability": "view",
					"type": "function"
				},
				{
					"inputs": [],
					"name": "deposit",
					"outputs": [],
					"stateMutability": "payable",
					"type": "function"
				},
				{
					"inputs": [],
					"name": "getIndividualBalance",
					"outputs": [
						{
							"internalType": "uint256",
							"name": "",
							"type": "uint256"
						}
					],
					"stateMutability": "view",
					"type": "function"
				},
				{
					"inputs": [],
					"name": "getTotalBalance",
					"outputs": [
						{
							"internalType": "uint256",
							"name": "",
							"type": "uint256"
						}
					],
					"stateMutability": "view",
					"type": "function"
				},
				{
					"inputs": [],
					"name": "owner",
					"outputs": [
						{
							"internalType": "address",
							"name": "",
							"type": "address"
						}
					],
					"stateMutability": "view",
					"type": "function"
				},
				{
					"inputs": [
						{
							"internalType": "uint256",
							"name": "amount",
							"type": "uint256"
						}
					],
					"name": "withdraw",
					"outputs": [],
					"stateMutability": "nonpayable",
					"type": "function"
				},
				{
					"inputs": [],
					"name": "withdrawAll",
					"outputs": [],
					"stateMutability": "nonpayable",
					"type": "function"
				}
			],
			"devdoc": {
				"kind": "dev",
				"methods": {},
				"version": 1
			},
			"evm": {
				"assembly": "    /* \"contracts/bank.sol\":69:1315  contract BankContract{... */\n  mstore(0x40, 0x80)\n    /* \"contracts/bank.sol\":312:358  constructor(){... */\n  callvalue\n  dup1\n  iszero\n  tag_1\n  jumpi\n  revert(0x00, 0x00)\ntag_1:\n  pop\n    /* \"contracts/bank.sol\":341:351  msg.sender */\n  caller\n    /* \"contracts/bank.sol\":335:340  owner */\n  0x01\n  0x00\n    /* \"contracts/bank.sol\":335:351  owner=msg.sender */\n  0x0100\n  exp\n  dup2\n  sload\n  dup2\n  0xffffffffffffffffffffffffffffffffffffffff\n  mul\n  not\n  and\n  swap1\n  dup4\n  0xffffffffffffffffffffffffffffffffffffffff\n  and\n  mul\n  or\n  swap1\n  sstore\n  pop\n    /* \"contracts/bank.sol\":69:1315  contract BankContract{... */\n  dataSize(sub_0)\n  dup1\n  dataOffset(sub_0)\n  0x00\n  codecopy\n  0x00\n  return\nstop\n\nsub_0: assembly {\n        /* \"contracts/bank.sol\":69:1315  contract BankContract{... */\n      mstore(0x40, 0x80)\n      jumpi(tag_1, lt(calldatasize, 0x04))\n      shr(0xe0, calldataload(0x00))\n      dup1\n      0x2e1a7d4d\n      gt\n      tag_9\n      jumpi\n      dup1\n      0x2e1a7d4d\n      eq\n      tag_5\n      jumpi\n      dup1\n      0x853828b6\n      eq\n      tag_6\n      jumpi\n      dup1\n      0x8da5cb5b\n      eq\n      tag_7\n      jumpi\n      dup1\n      0xd0e30db0\n      eq\n      tag_8\n      jumpi\n      jump(tag_1)\n    tag_9:\n      dup1\n      0x066b45a4\n      eq\n      tag_2\n      jumpi\n      dup1\n      0x12b58349\n      eq\n      tag_3\n      jumpi\n      dup1\n      0x27e235e3\n      eq\n      tag_4\n      jumpi\n    tag_1:\n      revert(0x00, 0x00)\n        /* \"contracts/bank.sol\":633:734  function getIndividualBalance() public view returns(uint){... */\n    tag_2:\n      callvalue\n      dup1\n      iszero\n      tag_10\n      jumpi\n      revert(0x00, 0x00)\n    tag_10:\n      pop\n      tag_11\n      tag_12\n      jump\t// in\n    tag_11:\n      mload(0x40)\n      tag_13\n      swap2\n      swap1\n      tag_14\n      jump\t// in\n    tag_13:\n      mload(0x40)\n      dup1\n      swap2\n      sub\n      swap1\n      return\n        /* \"contracts/bank.sol\":1216:1313  function getTotalBalance() public view returns(uint){... */\n    tag_3:\n      callvalue\n      dup1\n      iszero\n      tag_15\n      jumpi\n      revert(0x00, 0x00)\n    tag_15:\n      pop\n      tag_16\n      tag_17\n      jump\t// in\n    tag_16:\n      mload(0x40)\n      tag_18\n      swap2\n      swap1\n      tag_14\n      jump\t// in\n    tag_18:\n      mload(0x40)\n      dup1\n      swap2\n      sub\n      swap1\n      return\n        /* \"contracts/bank.sol\":97:134  mapping(address=>uint)public balances */\n    tag_4:\n      callvalue\n      dup1\n      iszero\n      tag_19\n      jumpi\n      revert(0x00, 0x00)\n    tag_19:\n      pop\n      tag_20\n      0x04\n      dup1\n      calldatasize\n      sub\n      dup2\n      add\n      swap1\n      tag_21\n      swap2\n      swap1\n      tag_22\n      jump\t// in\n    tag_21:\n      tag_23\n      jump\t// in\n    tag_20:\n      mload(0x40)\n      tag_24\n      swap2\n      swap1\n      tag_14\n      jump\t// in\n    tag_24:\n      mload(0x40)\n      dup1\n      swap2\n      sub\n      swap1\n      return\n        /* \"contracts/bank.sol\":870:1211  function withdraw(uint amount) public{... */\n    tag_5:\n      callvalue\n      dup1\n      iszero\n      tag_25\n      jumpi\n      revert(0x00, 0x00)\n    tag_25:\n      pop\n      tag_26\n      0x04\n      dup1\n      calldatasize\n      sub\n      dup2\n      add\n      swap1\n      tag_27\n      swap2\n      swap1\n      tag_28\n      jump\t// in\n    tag_27:\n      tag_29\n      jump\t// in\n    tag_26:\n      stop\n        /* \"contracts/bank.sol\":467:627  function withdrawAll() public onlyOwner{... */\n    tag_6:\n      callvalue\n      dup1\n      iszero\n      tag_30\n      jumpi\n      revert(0x00, 0x00)\n    tag_30:\n      pop\n      tag_31\n      tag_32\n      jump\t// in\n    tag_31:\n      stop\n        /* \"contracts/bank.sol\":140:160  address public owner */\n    tag_7:\n      callvalue\n      dup1\n      iszero\n      tag_33\n      jumpi\n      revert(0x00, 0x00)\n    tag_33:\n      pop\n      tag_34\n      tag_35\n      jump\t// in\n    tag_34:\n      mload(0x40)\n      tag_36\n      swap2\n      swap1\n      tag_37\n      jump\t// in\n    tag_36:\n      mload(0x40)\n      dup1\n      swap2\n      sub\n      swap1\n      return\n        /* \"contracts/bank.sol\":739:865  function deposit() public payable{... */\n    tag_8:\n      tag_38\n      tag_39\n      jump\t// in\n    tag_38:\n      stop\n        /* \"contracts/bank.sol\":633:734  function getIndividualBalance() public view returns(uint){... */\n    tag_12:\n        /* \"contracts/bank.sol\":685:689  uint */\n      0x00\n        /* \"contracts/bank.sol\":707:715  balances */\n      0x00\n        /* \"contracts/bank.sol\":707:727  balances[msg.sender] */\n      0x00\n        /* \"contracts/bank.sol\":716:726  msg.sender */\n      caller\n        /* \"contracts/bank.sol\":707:727  balances[msg.sender] */\n      0xffffffffffffffffffffffffffffffffffffffff\n      and\n      0xffffffffffffffffffffffffffffffffffffffff\n      and\n      dup2\n      mstore\n      0x20\n      add\n      swap1\n      dup2\n      mstore\n      0x20\n      add\n      0x00\n      keccak256\n      sload\n        /* \"contracts/bank.sol\":700:727  return balances[msg.sender] */\n      swap1\n      pop\n        /* \"contracts/bank.sol\":633:734  function getIndividualBalance() public view returns(uint){... */\n      swap1\n      jump\t// out\n        /* \"contracts/bank.sol\":1216:1313  function getTotalBalance() public view returns(uint){... */\n    tag_17:\n        /* \"contracts/bank.sol\":1263:1267  uint */\n      0x00\n        /* \"contracts/bank.sol\":1285:1306  address(this).balance */\n      selfbalance\n        /* \"contracts/bank.sol\":1278:1306  return address(this).balance */\n      swap1\n      pop\n        /* \"contracts/bank.sol\":1216:1313  function getTotalBalance() public view returns(uint){... */\n      swap1\n      jump\t// out\n        /* \"contracts/bank.sol\":97:134  mapping(address=>uint)public balances */\n    tag_23:\n      mstore(0x20, 0x00)\n      dup1\n      0x00\n      mstore\n      keccak256(0x00, 0x40)\n      0x00\n      swap2\n      pop\n      swap1\n      pop\n      sload\n      dup2\n      jump\t// out\n        /* \"contracts/bank.sol\":870:1211  function withdraw(uint amount) public{... */\n    tag_29:\n        /* \"contracts/bank.sol\":1003:1009  amount */\n      dup1\n        /* \"contracts/bank.sol\":981:989  balances */\n      0x00\n        /* \"contracts/bank.sol\":981:1001  balances[msg.sender] */\n      0x00\n        /* \"contracts/bank.sol\":990:1000  msg.sender */\n      caller\n        /* \"contracts/bank.sol\":981:1001  balances[msg.sender] */\n      0xffffffffffffffffffffffffffffffffffffffff\n      and\n      0xffffffffffffffffffffffffffffffffffffffff\n      and\n      dup2\n      mstore\n      0x20\n      add\n      swap1\n      dup2\n      mstore\n      0x20\n      add\n      0x00\n      keccak256\n      sload\n        /* \"contracts/bank.sol\":981:1009  balances[msg.sender]>=amount */\n      lt\n      iszero\n        /* \"contracts/bank.sol\":973:1049  require(balances[msg.sender]>=amount,\"Insufficient balance, can't withdraw\") */\n      tag_43\n      jumpi\n      mload(0x40)\n      0x08c379a000000000000000000000000000000000000000000000000000000000\n      dup2\n      mstore\n      0x04\n      add\n      tag_44\n      swap1\n      tag_45\n      jump\t// in\n    tag_44:\n      mload(0x40)\n      dup1\n      swap2\n      sub\n      swap1\n      revert\n    tag_43:\n        /* \"contracts/bank.sol\":1109:1115  amount */\n      dup1\n        /* \"contracts/bank.sol\":1087:1095  balances */\n      0x00\n        /* \"contracts/bank.sol\":1087:1107  balances[msg.sender] */\n      0x00\n        /* \"contracts/bank.sol\":1096:1106  msg.sender */\n      caller\n        /* \"contracts/bank.sol\":1087:1107  balances[msg.sender] */\n      0xffffffffffffffffffffffffffffffffffffffff\n      and\n      0xffffffffffffffffffffffffffffffffffffffff\n      and\n      dup2\n      mstore\n      0x20\n      add\n      swap1\n      dup2\n      mstore\n      0x20\n      add\n      0x00\n      keccak256\n      0x00\n        /* \"contracts/bank.sol\":1087:1115  balances[msg.sender]-=amount */\n      dup3\n      dup3\n      sload\n      tag_46\n      swap2\n      swap1\n      tag_47\n      jump\t// in\n    tag_46:\n      swap3\n      pop\n      pop\n      dup2\n      swap1\n      sstore\n      pop\n        /* \"contracts/bank.sol\":1133:1143  msg.sender */\n      caller\n        /* \"contracts/bank.sol\":1125:1153  payable(msg.sender).transfer */\n      0xffffffffffffffffffffffffffffffffffffffff\n      and\n        /* \"contracts/bank.sol\":1125:1161  payable(msg.sender).transfer(amount) */\n      0x08fc\n        /* \"contracts/bank.sol\":1154:1160  amount */\n      dup3\n        /* \"contracts/bank.sol\":1125:1161  payable(msg.sender).transfer(amount) */\n      swap1\n      dup2\n      iszero\n      mul\n      swap1\n      mload(0x40)\n      0x00\n      mload(0x40)\n      dup1\n      dup4\n      sub\n      dup2\n      dup6\n      dup9\n      dup9\n      call\n      swap4\n      pop\n      pop\n      pop\n      pop\n      iszero\n      dup1\n      iszero\n      tag_49\n      jumpi\n      returndatacopy(0x00, 0x00, returndatasize)\n      revert(0x00, returndatasize)\n    tag_49:\n      pop\n        /* \"contracts/bank.sol\":1185:1195  msg.sender */\n      caller\n        /* \"contracts/bank.sol\":1176:1204  Withdraw(msg.sender, amount) */\n      0xffffffffffffffffffffffffffffffffffffffff\n      and\n      0x884edad9ce6fa2440d8a54cc123490eb96d2768479d49ff9c7366125a9424364\n        /* \"contracts/bank.sol\":1197:1203  amount */\n      dup3\n        /* \"contracts/bank.sol\":1176:1204  Withdraw(msg.sender, amount) */\n      mload(0x40)\n      tag_50\n      swap2\n      swap1\n      tag_14\n      jump\t// in\n    tag_50:\n      mload(0x40)\n      dup1\n      swap2\n      sub\n      swap1\n      log2\n        /* \"contracts/bank.sol\":870:1211  function withdraw(uint amount) public{... */\n      pop\n      jump\t// out\n        /* \"contracts/bank.sol\":467:627  function withdrawAll() public onlyOwner{... */\n    tag_32:\n        /* \"contracts/bank.sol\":414:419  owner */\n      0x01\n      0x00\n      swap1\n      sload\n      swap1\n      0x0100\n      exp\n      swap1\n      div\n      0xffffffffffffffffffffffffffffffffffffffff\n      and\n        /* \"contracts/bank.sol\":402:419  msg.sender==owner */\n      0xffffffffffffffffffffffffffffffffffffffff\n      and\n        /* \"contracts/bank.sol\":402:412  msg.sender */\n      caller\n        /* \"contracts/bank.sol\":402:419  msg.sender==owner */\n      0xffffffffffffffffffffffffffffffffffffffff\n      and\n      eq\n        /* \"contracts/bank.sol\":394:443  require(msg.sender==owner,\"You aren't the owner\") */\n      tag_52\n      jumpi\n      mload(0x40)\n      0x08c379a000000000000000000000000000000000000000000000000000000000\n      dup2\n      mstore\n      0x04\n      add\n      tag_53\n      swap1\n      tag_54\n      jump\t// in\n    tag_53:\n      mload(0x40)\n      dup1\n      swap2\n      sub\n      swap1\n      revert\n    tag_52:\n        /* \"contracts/bank.sol\":577:587  msg.sender */\n      caller\n        /* \"contracts/bank.sol\":569:597  payable(msg.sender).transfer */\n      0xffffffffffffffffffffffffffffffffffffffff\n      and\n        /* \"contracts/bank.sol\":569:620  payable(msg.sender).transfer(address(this).balance) */\n      0x08fc\n        /* \"contracts/bank.sol\":598:619  address(this).balance */\n      selfbalance\n        /* \"contracts/bank.sol\":569:620  payable(msg.sender).transfer(address(this).balance) */\n      swap1\n      dup2\n      iszero\n      mul\n      swap1\n      mload(0x40)\n      0x00\n      mload(0x40)\n      dup1\n      dup4\n      sub\n      dup2\n      dup6\n      dup9\n      dup9\n      call\n      swap4\n      pop\n      pop\n      pop\n      pop\n      iszero\n      dup1\n      iszero\n      tag_57\n      jumpi\n      returndatacopy(0x00, 0x00, returndatasize)\n      revert(0x00, returndatasize)\n    tag_57:\n      pop\n        /* \"contracts/bank.sol\":467:627  function withdrawAll() public onlyOwner{... */\n      jump\t// out\n        /* \"contracts/bank.sol\":140:160  address public owner */\n    tag_35:\n      0x01\n      0x00\n      swap1\n      sload\n      swap1\n      0x0100\n      exp\n      swap1\n      div\n      0xffffffffffffffffffffffffffffffffffffffff\n      and\n      dup2\n      jump\t// out\n        /* \"contracts/bank.sol\":739:865  function deposit() public payable{... */\n    tag_39:\n        /* \"contracts/bank.sol\":804:813  msg.value */\n      callvalue\n        /* \"contracts/bank.sol\":782:790  balances */\n      0x00\n        /* \"contracts/bank.sol\":782:802  balances[msg.sender] */\n      0x00\n        /* \"contracts/bank.sol\":791:801  msg.sender */\n      caller\n        /* \"contracts/bank.sol\":782:802  balances[msg.sender] */\n      0xffffffffffffffffffffffffffffffffffffffff\n      and\n      0xffffffffffffffffffffffffffffffffffffffff\n      and\n      dup2\n      mstore\n      0x20\n      add\n      swap1\n      dup2\n      mstore\n      0x20\n      add\n      0x00\n      keccak256\n      0x00\n        /* \"contracts/bank.sol\":782:813  balances[msg.sender]+=msg.value */\n      dup3\n      dup3\n      sload\n      tag_59\n      swap2\n      swap1\n      tag_60\n      jump\t// in\n    tag_59:\n      swap3\n      pop\n      pop\n      dup2\n      swap1\n      sstore\n      pop\n        /* \"contracts/bank.sol\":836:846  msg.sender */\n      caller\n        /* \"contracts/bank.sol\":828:858  Deposit(msg.sender, msg.value) */\n      0xffffffffffffffffffffffffffffffffffffffff\n      and\n      0xe1fffcc4923d04b559f4d29a8bfc6cda04eb5b0d3c460751c2402c5c5cc9109c\n        /* \"contracts/bank.sol\":848:857  msg.value */\n      callvalue\n        /* \"contracts/bank.sol\":828:858  Deposit(msg.sender, msg.value) */\n      mload(0x40)\n      tag_61\n      swap2\n      swap1\n      tag_14\n      jump\t// in\n    tag_61:\n      mload(0x40)\n      dup1\n      swap2\n      sub\n      swap1\n      log2\n        /* \"contracts/bank.sol\":739:865  function deposit() public payable{... */\n      jump\t// out\n        /* \"#utility.yul\":7:84   */\n    tag_62:\n        /* \"#utility.yul\":44:51   */\n      0x00\n        /* \"#utility.yul\":73:78   */\n      dup2\n        /* \"#utility.yul\":62:78   */\n      swap1\n      pop\n        /* \"#utility.yul\":7:84   */\n      swap2\n      swap1\n      pop\n      jump\t// out\n        /* \"#utility.yul\":90:208   */\n    tag_63:\n        /* \"#utility.yul\":177:201   */\n      tag_83\n        /* \"#utility.yul\":195:200   */\n      dup2\n        /* \"#utility.yul\":177:201   */\n      tag_62\n      jump\t// in\n    tag_83:\n        /* \"#utility.yul\":172:175   */\n      dup3\n        /* \"#utility.yul\":165:202   */\n      mstore\n        /* \"#utility.yul\":90:208   */\n      pop\n      pop\n      jump\t// out\n        /* \"#utility.yul\":214:436   */\n    tag_14:\n        /* \"#utility.yul\":307:311   */\n      0x00\n        /* \"#utility.yul\":345:347   */\n      0x20\n        /* \"#utility.yul\":334:343   */\n      dup3\n        /* \"#utility.yul\":330:348   */\n      add\n        /* \"#utility.yul\":322:348   */\n      swap1\n      pop\n        /* \"#utility.yul\":358:429   */\n      tag_85\n        /* \"#utility.yul\":426:427   */\n      0x00\n        /* \"#utility.yul\":415:424   */\n      dup4\n        /* \"#utility.yul\":411:428   */\n      add\n        /* \"#utility.yul\":402:408   */\n      dup5\n        /* \"#utility.yul\":358:429   */\n      tag_63\n      jump\t// in\n    tag_85:\n        /* \"#utility.yul\":214:436   */\n      swap3\n      swap2\n      pop\n      pop\n      jump\t// out\n        /* \"#utility.yul\":523:640   */\n    tag_65:\n        /* \"#utility.yul\":632:633   */\n      0x00\n        /* \"#utility.yul\":629:630   */\n      0x00\n        /* \"#utility.yul\":622:634   */\n      revert\n        /* \"#utility.yul\":769:895   */\n    tag_67:\n        /* \"#utility.yul\":806:813   */\n      0x00\n        /* \"#utility.yul\":846:888   */\n      0xffffffffffffffffffffffffffffffffffffffff\n        /* \"#utility.yul\":839:844   */\n      dup3\n        /* \"#utility.yul\":835:889   */\n      and\n        /* \"#utility.yul\":824:889   */\n      swap1\n      pop\n        /* \"#utility.yul\":769:895   */\n      swap2\n      swap1\n      pop\n      jump\t// out\n        /* \"#utility.yul\":901:997   */\n    tag_68:\n        /* \"#utility.yul\":938:945   */\n      0x00\n        /* \"#utility.yul\":967:991   */\n      tag_91\n        /* \"#utility.yul\":985:990   */\n      dup3\n        /* \"#utility.yul\":967:991   */\n      tag_67\n      jump\t// in\n    tag_91:\n        /* \"#utility.yul\":956:991   */\n      swap1\n      pop\n        /* \"#utility.yul\":901:997   */\n      swap2\n      swap1\n      pop\n      jump\t// out\n        /* \"#utility.yul\":1003:1125   */\n    tag_69:\n        /* \"#utility.yul\":1076:1100   */\n      tag_93\n        /* \"#utility.yul\":1094:1099   */\n      dup2\n        /* \"#utility.yul\":1076:1100   */\n      tag_68\n      jump\t// in\n    tag_93:\n        /* \"#utility.yul\":1069:1074   */\n      dup2\n        /* \"#utility.yul\":1066:1101   */\n      eq\n        /* \"#utility.yul\":1056:1119   */\n      tag_94\n      jumpi\n        /* \"#utility.yul\":1115:1116   */\n      0x00\n        /* \"#utility.yul\":1112:1113   */\n      0x00\n        /* \"#utility.yul\":1105:1117   */\n      revert\n        /* \"#utility.yul\":1056:1119   */\n    tag_94:\n        /* \"#utility.yul\":1003:1125   */\n      pop\n      jump\t// out\n        /* \"#utility.yul\":1131:1270   */\n    tag_70:\n        /* \"#utility.yul\":1177:1182   */\n      0x00\n        /* \"#utility.yul\":1215:1221   */\n      dup2\n        /* \"#utility.yul\":1202:1222   */\n      calldataload\n        /* \"#utility.yul\":1193:1222   */\n      swap1\n      pop\n        /* \"#utility.yul\":1231:1264   */\n      tag_96\n        /* \"#utility.yul\":1258:1263   */\n      dup2\n        /* \"#utility.yul\":1231:1264   */\n      tag_69\n      jump\t// in\n    tag_96:\n        /* \"#utility.yul\":1131:1270   */\n      swap3\n      swap2\n      pop\n      pop\n      jump\t// out\n        /* \"#utility.yul\":1276:1605   */\n    tag_22:\n        /* \"#utility.yul\":1335:1341   */\n      0x00\n        /* \"#utility.yul\":1384:1386   */\n      0x20\n        /* \"#utility.yul\":1372:1381   */\n      dup3\n        /* \"#utility.yul\":1363:1370   */\n      dup5\n        /* \"#utility.yul\":1359:1382   */\n      sub\n        /* \"#utility.yul\":1355:1387   */\n      slt\n        /* \"#utility.yul\":1352:1471   */\n      iszero\n      tag_98\n      jumpi\n        /* \"#utility.yul\":1390:1469   */\n      tag_99\n      tag_65\n      jump\t// in\n    tag_99:\n        /* \"#utility.yul\":1352:1471   */\n    tag_98:\n        /* \"#utility.yul\":1510:1511   */\n      0x00\n        /* \"#utility.yul\":1535:1588   */\n      tag_100\n        /* \"#utility.yul\":1580:1587   */\n      dup5\n        /* \"#utility.yul\":1571:1577   */\n      dup3\n        /* \"#utility.yul\":1560:1569   */\n      dup6\n        /* \"#utility.yul\":1556:1578   */\n      add\n        /* \"#utility.yul\":1535:1588   */\n      tag_70\n      jump\t// in\n    tag_100:\n        /* \"#utility.yul\":1525:1588   */\n      swap2\n      pop\n        /* \"#utility.yul\":1481:1598   */\n      pop\n        /* \"#utility.yul\":1276:1605   */\n      swap3\n      swap2\n      pop\n      pop\n      jump\t// out\n        /* \"#utility.yul\":1611:1733   */\n    tag_71:\n        /* \"#utility.yul\":1684:1708   */\n      tag_102\n        /* \"#utility.yul\":1702:1707   */\n      dup2\n        /* \"#utility.yul\":1684:1708   */\n      tag_62\n      jump\t// in\n    tag_102:\n        /* \"#utility.yul\":1677:1682   */\n      dup2\n        /* \"#utility.yul\":1674:1709   */\n      eq\n        /* \"#utility.yul\":1664:1727   */\n      tag_103\n      jumpi\n        /* \"#utility.yul\":1723:1724   */\n      0x00\n        /* \"#utility.yul\":1720:1721   */\n      0x00\n        /* \"#utility.yul\":1713:1725   */\n      revert\n        /* \"#utility.yul\":1664:1727   */\n    tag_103:\n        /* \"#utility.yul\":1611:1733   */\n      pop\n      jump\t// out\n        /* \"#utility.yul\":1739:1878   */\n    tag_72:\n        /* \"#utility.yul\":1785:1790   */\n      0x00\n        /* \"#utility.yul\":1823:1829   */\n      dup2\n        /* \"#utility.yul\":1810:1830   */\n      calldataload\n        /* \"#utility.yul\":1801:1830   */\n      swap1\n      pop\n        /* \"#utility.yul\":1839:1872   */\n      tag_105\n        /* \"#utility.yul\":1866:1871   */\n      dup2\n        /* \"#utility.yul\":1839:1872   */\n      tag_71\n      jump\t// in\n    tag_105:\n        /* \"#utility.yul\":1739:1878   */\n      swap3\n      swap2\n      pop\n      pop\n      jump\t// out\n        /* \"#utility.yul\":1884:2213   */\n    tag_28:\n        /* \"#utility.yul\":1943:1949   */\n      0x00\n        /* \"#utility.yul\":1992:1994   */\n      0x20\n        /* \"#utility.yul\":1980:1989   */\n      dup3\n        /* \"#utility.yul\":1971:1978   */\n      dup5\n        /* \"#utility.yul\":1967:1990   */\n      sub\n        /* \"#utility.yul\":1963:1995   */\n      slt\n        /* \"#utility.yul\":1960:2079   */\n      iszero\n      tag_107\n      jumpi\n        /* \"#utility.yul\":1998:2077   */\n      tag_108\n      tag_65\n      jump\t// in\n    tag_108:\n        /* \"#utility.yul\":1960:2079   */\n    tag_107:\n        /* \"#utility.yul\":2118:2119   */\n      0x00\n        /* \"#utility.yul\":2143:2196   */\n      tag_109\n        /* \"#utility.yul\":2188:2195   */\n      dup5\n        /* \"#utility.yul\":2179:2185   */\n      dup3\n        /* \"#utility.yul\":2168:2177   */\n      dup6\n        /* \"#utility.yul\":2164:2186   */\n      add\n        /* \"#utility.yul\":2143:2196   */\n      tag_72\n      jump\t// in\n    tag_109:\n        /* \"#utility.yul\":2133:2196   */\n      swap2\n      pop\n        /* \"#utility.yul\":2089:2206   */\n      pop\n        /* \"#utility.yul\":1884:2213   */\n      swap3\n      swap2\n      pop\n      pop\n      jump\t// out\n        /* \"#utility.yul\":2219:2337   */\n    tag_73:\n        /* \"#utility.yul\":2306:2330   */\n      tag_111\n        /* \"#utility.yul\":2324:2329   */\n      dup2\n        /* \"#utility.yul\":2306:2330   */\n      tag_68\n      jump\t// in\n    tag_111:\n        /* \"#utility.yul\":2301:2304   */\n      dup3\n        /* \"#utility.yul\":2294:2331   */\n      mstore\n        /* \"#utility.yul\":2219:2337   */\n      pop\n      pop\n      jump\t// out\n        /* \"#utility.yul\":2343:2565   */\n    tag_37:\n        /* \"#utility.yul\":2436:2440   */\n      0x00\n        /* \"#utility.yul\":2474:2476   */\n      0x20\n        /* \"#utility.yul\":2463:2472   */\n      dup3\n        /* \"#utility.yul\":2459:2477   */\n      add\n        /* \"#utility.yul\":2451:2477   */\n      swap1\n      pop\n        /* \"#utility.yul\":2487:2558   */\n      tag_113\n        /* \"#utility.yul\":2555:2556   */\n      0x00\n        /* \"#utility.yul\":2544:2553   */\n      dup4\n        /* \"#utility.yul\":2540:2557   */\n      add\n        /* \"#utility.yul\":2531:2537   */\n      dup5\n        /* \"#utility.yul\":2487:2558   */\n      tag_73\n      jump\t// in\n    tag_113:\n        /* \"#utility.yul\":2343:2565   */\n      swap3\n      swap2\n      pop\n      pop\n      jump\t// out\n        /* \"#utility.yul\":2571:2740   */\n    tag_74:\n        /* \"#utility.yul\":2655:2666   */\n      0x00\n        /* \"#utility.yul\":2689:2695   */\n      dup3\n        /* \"#utility.yul\":2684:2687   */\n      dup3\n        /* \"#utility.yul\":2677:2696   */\n      mstore\n        /* \"#utility.yul\":2729:2733   */\n      0x20\n        /* \"#utility.yul\":2724:2727   */\n      dup3\n        /* \"#utility.yul\":2720:2734   */\n      add\n        /* \"#utility.yul\":2705:2734   */\n      swap1\n      pop\n        /* \"#utility.yul\":2571:2740   */\n      swap3\n      swap2\n      pop\n      pop\n      jump\t// out\n        /* \"#utility.yul\":2746:2969   */\n    tag_75:\n        /* \"#utility.yul\":2886:2920   */\n      0x496e73756666696369656e742062616c616e63652c2063616e27742077697468\n        /* \"#utility.yul\":2882:2883   */\n      0x00\n        /* \"#utility.yul\":2874:2880   */\n      dup3\n        /* \"#utility.yul\":2870:2884   */\n      add\n        /* \"#utility.yul\":2863:2921   */\n      mstore\n        /* \"#utility.yul\":2955:2961   */\n      0x6472617700000000000000000000000000000000000000000000000000000000\n        /* \"#utility.yul\":2950:2952   */\n      0x20\n        /* \"#utility.yul\":2942:2948   */\n      dup3\n        /* \"#utility.yul\":2938:2953   */\n      add\n        /* \"#utility.yul\":2931:2962   */\n      mstore\n        /* \"#utility.yul\":2746:2969   */\n      pop\n      jump\t// out\n        /* \"#utility.yul\":2975:3341   */\n    tag_76:\n        /* \"#utility.yul\":3117:3120   */\n      0x00\n        /* \"#utility.yul\":3138:3205   */\n      tag_117\n        /* \"#utility.yul\":3202:3204   */\n      0x24\n        /* \"#utility.yul\":3197:3200   */\n      dup4\n        /* \"#utility.yul\":3138:3205   */\n      tag_74\n      jump\t// in\n    tag_117:\n        /* \"#utility.yul\":3131:3205   */\n      swap2\n      pop\n        /* \"#utility.yul\":3214:3307   */\n      tag_118\n        /* \"#utility.yul\":3303:3306   */\n      dup3\n        /* \"#utility.yul\":3214:3307   */\n      tag_75\n      jump\t// in\n    tag_118:\n        /* \"#utility.yul\":3332:3334   */\n      0x40\n        /* \"#utility.yul\":3327:3330   */\n      dup3\n        /* \"#utility.yul\":3323:3335   */\n      add\n        /* \"#utility.yul\":3316:3335   */\n      swap1\n      pop\n        /* \"#utility.yul\":2975:3341   */\n      swap2\n      swap1\n      pop\n      jump\t// out\n        /* \"#utility.yul\":3347:3766   */\n    tag_45:\n        /* \"#utility.yul\":3513:3517   */\n      0x00\n        /* \"#utility.yul\":3551:3553   */\n      0x20\n        /* \"#utility.yul\":3540:3549   */\n      dup3\n        /* \"#utility.yul\":3536:3554   */\n      add\n        /* \"#utility.yul\":3528:3554   */\n      swap1\n      pop\n        /* \"#utility.yul\":3600:3609   */\n      dup2\n        /* \"#utility.yul\":3594:3598   */\n      dup2\n        /* \"#utility.yul\":3590:3610   */\n      sub\n        /* \"#utility.yul\":3586:3587   */\n      0x00\n        /* \"#utility.yul\":3575:3584   */\n      dup4\n        /* \"#utility.yul\":3571:3588   */\n      add\n        /* \"#utility.yul\":3564:3611   */\n      mstore\n        /* \"#utility.yul\":3628:3759   */\n      tag_120\n        /* \"#utility.yul\":3754:3758   */\n      dup2\n        /* \"#utility.yul\":3628:3759   */\n      tag_76\n      jump\t// in\n    tag_120:\n        /* \"#utility.yul\":3620:3759   */\n      swap1\n      pop\n        /* \"#utility.yul\":3347:3766   */\n      swap2\n      swap1\n      pop\n      jump\t// out\n        /* \"#utility.yul\":3772:3952   */\n    tag_77:\n        /* \"#utility.yul\":3820:3897   */\n      0x4e487b7100000000000000000000000000000000000000000000000000000000\n        /* \"#utility.yul\":3817:3818   */\n      0x00\n        /* \"#utility.yul\":3810:3898   */\n      mstore\n        /* \"#utility.yul\":3917:3921   */\n      0x11\n        /* \"#utility.yul\":3914:3915   */\n      0x04\n        /* \"#utility.yul\":3907:3922   */\n      mstore\n        /* \"#utility.yul\":3941:3945   */\n      0x24\n        /* \"#utility.yul\":3938:3939   */\n      0x00\n        /* \"#utility.yul\":3931:3946   */\n      revert\n        /* \"#utility.yul\":3958:4152   */\n    tag_47:\n        /* \"#utility.yul\":3998:4002   */\n      0x00\n        /* \"#utility.yul\":4018:4038   */\n      tag_123\n        /* \"#utility.yul\":4036:4037   */\n      dup3\n        /* \"#utility.yul\":4018:4038   */\n      tag_62\n      jump\t// in\n    tag_123:\n        /* \"#utility.yul\":4013:4038   */\n      swap2\n      pop\n        /* \"#utility.yul\":4052:4072   */\n      tag_124\n        /* \"#utility.yul\":4070:4071   */\n      dup4\n        /* \"#utility.yul\":4052:4072   */\n      tag_62\n      jump\t// in\n    tag_124:\n        /* \"#utility.yul\":4047:4072   */\n      swap3\n      pop\n        /* \"#utility.yul\":4096:4097   */\n      dup3\n        /* \"#utility.yul\":4093:4094   */\n      dup3\n        /* \"#utility.yul\":4089:4098   */\n      sub\n        /* \"#utility.yul\":4081:4098   */\n      swap1\n      pop\n        /* \"#utility.yul\":4120:4121   */\n      dup2\n        /* \"#utility.yul\":4114:4118   */\n      dup2\n        /* \"#utility.yul\":4111:4122   */\n      gt\n        /* \"#utility.yul\":4108:4145   */\n      iszero\n      tag_125\n      jumpi\n        /* \"#utility.yul\":4125:4143   */\n      tag_126\n      tag_77\n      jump\t// in\n    tag_126:\n        /* \"#utility.yul\":4108:4145   */\n    tag_125:\n        /* \"#utility.yul\":3958:4152   */\n      swap3\n      swap2\n      pop\n      pop\n      jump\t// out\n        /* \"#utility.yul\":4158:4328   */\n    tag_78:\n        /* \"#utility.yul\":4298:4320   */\n      0x596f75206172656e277420746865206f776e6572000000000000000000000000\n        /* \"#utility.yul\":4294:4295   */\n      0x00\n        /* \"#utility.yul\":4286:4292   */\n      dup3\n        /* \"#utility.yul\":4282:4296   */\n      add\n        /* \"#utility.yul\":4275:4321   */\n      mstore\n        /* \"#utility.yul\":4158:4328   */\n      pop\n      jump\t// out\n        /* \"#utility.yul\":4334:4700   */\n    tag_79:\n        /* \"#utility.yul\":4476:4479   */\n      0x00\n        /* \"#utility.yul\":4497:4564   */\n      tag_129\n        /* \"#utility.yul\":4561:4563   */\n      0x14\n        /* \"#utility.yul\":4556:4559   */\n      dup4\n        /* \"#utility.yul\":4497:4564   */\n      tag_74\n      jump\t// in\n    tag_129:\n        /* \"#utility.yul\":4490:4564   */\n      swap2\n      pop\n        /* \"#utility.yul\":4573:4666   */\n      tag_130\n        /* \"#utility.yul\":4662:4665   */\n      dup3\n        /* \"#utility.yul\":4573:4666   */\n      tag_78\n      jump\t// in\n    tag_130:\n        /* \"#utility.yul\":4691:4693   */\n      0x20\n        /* \"#utility.yul\":4686:4689   */\n      dup3\n        /* \"#utility.yul\":4682:4694   */\n      add\n        /* \"#utility.yul\":4675:4694   */\n      swap1\n      pop\n        /* \"#utility.yul\":4334:4700   */\n      swap2\n      swap1\n      pop\n      jump\t// out\n        /* \"#utility.yul\":4706:5125   */\n    tag_54:\n        /* \"#utility.yul\":4872:4876   */\n      0x00\n        /* \"#utility.yul\":4910:4912   */\n      0x20\n        /* \"#utility.yul\":4899:4908   */\n      dup3\n        /* \"#utility.yul\":4895:4913   */\n      add\n        /* \"#utility.yul\":4887:4913   */\n      swap1\n      pop\n        /* \"#utility.yul\":4959:4968   */\n      dup2\n        /* \"#utility.yul\":4953:4957   */\n      dup2\n        /* \"#utility.yul\":4949:4969   */\n      sub\n        /* \"#utility.yul\":4945:4946   */\n      0x00\n        /* \"#utility.yul\":4934:4943   */\n      dup4\n        /* \"#utility.yul\":4930:4947   */\n      add\n        /* \"#utility.yul\":4923:4970   */\n      mstore\n        /* \"#utility.yul\":4987:5118   */\n      tag_132\n        /* \"#utility.yul\":5113:5117   */\n      dup2\n        /* \"#utility.yul\":4987:5118   */\n      tag_79\n      jump\t// in\n    tag_132:\n        /* \"#utility.yul\":4979:5118   */\n      swap1\n      pop\n        /* \"#utility.yul\":4706:5125   */\n      swap2\n      swap1\n      pop\n      jump\t// out\n        /* \"#utility.yul\":5131:5322   */\n    tag_60:\n        /* \"#utility.yul\":5171:5174   */\n      0x00\n        /* \"#utility.yul\":5190:5210   */\n      tag_134\n        /* \"#utility.yul\":5208:5209   */\n      dup3\n        /* \"#utility.yul\":5190:5210   */\n      tag_62\n      jump\t// in\n    tag_134:\n        /* \"#utility.yul\":5185:5210   */\n      swap2\n      pop\n        /* \"#utility.yul\":5224:5244   */\n      tag_135\n        /* \"#utility.yul\":5242:5243   */\n      dup4\n        /* \"#utility.yul\":5224:5244   */\n      tag_62\n      jump\t// in\n    tag_135:\n        /* \"#utility.yul\":5219:5244   */\n      swap3\n      pop\n        /* \"#utility.yul\":5267:5268   */\n      dup3\n        /* \"#utility.yul\":5264:5265   */\n      dup3\n        /* \"#utility.yul\":5260:5269   */\n      add\n        /* \"#utility.yul\":5253:5269   */\n      swap1\n      pop\n        /* \"#utility.yul\":5288:5291   */\n      dup1\n        /* \"#utility.yul\":5285:5286   */\n      dup3\n        /* \"#utility.yul\":5282:5292   */\n      gt\n        /* \"#utility.yul\":5279:5315   */\n      iszero\n      tag_136\n      jumpi\n        /* \"#utility.yul\":5295:5313   */\n      tag_137\n      tag_77\n      jump\t// in\n    tag_137:\n        /* \"#utility.yul\":5279:5315   */\n    tag_136:\n        /* \"#utility.yul\":5131:5322   */\n      swap3\n      swap2\n      pop\n      pop\n      jump\t// out\n\n    auxdata: 0xa26469706673582212202aae6d518a9cad26d2575842883fbfa27a34241da680d70c7ec92b70ace45cbf64736f6c634300081e0033\n}\n",
				"bytecode": {
					"linkReferences": {},
					"object": "6080604052348015600e575f5ffd5b503360015f6101000a81548173ffffffffffffffffffffffffffffffffffffffff021916908373ffffffffffffffffffffffffffffffffffffffff1602179055506107db8061005c5f395ff3fe60806040526004361061006f575f3560e01c80632e1a7d4d1161004d5780632e1a7d4d14610103578063853828b61461012b5780638da5cb5b14610141578063d0e30db01461016b5761006f565b8063066b45a41461007357806312b583491461009d57806327e235e3146100c7575b5f5ffd5b34801561007e575f5ffd5b50610087610175565b60405161009491906104ed565b60405180910390f35b3480156100a8575f5ffd5b506100b16101b8565b6040516100be91906104ed565b60405180910390f35b3480156100d2575f5ffd5b506100ed60048036038101906100e89190610564565b6101bf565b6040516100fa91906104ed565b60405180910390f35b34801561010e575f5ffd5b50610129600480360381019061012491906105b9565b6101d3565b005b348015610136575f5ffd5b5061013f610339565b005b34801561014c575f5ffd5b5061015561040e565b60405161016291906105f3565b60405180910390f35b610173610433565b005b5f5f5f3373ffffffffffffffffffffffffffffffffffffffff1673ffffffffffffffffffffffffffffffffffffffff1681526020019081526020015f2054905090565b5f47905090565b5f602052805f5260405f205f915090505481565b805f5f3373ffffffffffffffffffffffffffffffffffffffff1673ffffffffffffffffffffffffffffffffffffffff1681526020019081526020015f20541015610252576040517f08c379a00000000000000000000000000000000000000000000000000000000081526004016102499061068c565b60405180910390fd5b805f5f3373ffffffffffffffffffffffffffffffffffffffff1673ffffffffffffffffffffffffffffffffffffffff1681526020019081526020015f205f82825461029d91906106d7565b925050819055503373ffffffffffffffffffffffffffffffffffffffff166108fc8290811502906040515f60405180830381858888f193505050501580156102e7573d5f5f3e3d5ffd5b503373ffffffffffffffffffffffffffffffffffffffff167f884edad9ce6fa2440d8a54cc123490eb96d2768479d49ff9c7366125a94243648260405161032e91906104ed565b60405180910390a250565b60015f9054906101000a900473ffffffffffffffffffffffffffffffffffffffff1673ffffffffffffffffffffffffffffffffffffffff163373ffffffffffffffffffffffffffffffffffffffff16146103c8576040517f08c379a00000000000000000000000000000000000000000000000000000000081526004016103bf90610754565b60405180910390fd5b3373ffffffffffffffffffffffffffffffffffffffff166108fc4790811502906040515f60405180830381858888f1935050505015801561040b573d5f5f3e3d5ffd5b50565b60015f9054906101000a900473ffffffffffffffffffffffffffffffffffffffff1681565b345f5f3373ffffffffffffffffffffffffffffffffffffffff1673ffffffffffffffffffffffffffffffffffffffff1681526020019081526020015f205f82825461047e9190610772565b925050819055503373ffffffffffffffffffffffffffffffffffffffff167fe1fffcc4923d04b559f4d29a8bfc6cda04eb5b0d3c460751c2402c5c5cc9109c346040516104cb91906104ed565b60405180910390a2565b5f819050919050565b6104e7816104d5565b82525050565b5f6020820190506105005f8301846104de565b92915050565b5f5ffd5b5f73ffffffffffffffffffffffffffffffffffffffff82169050919050565b5f6105338261050a565b9050919050565b61054381610529565b811461054d575f5ffd5b50565b5f8135905061055e8161053a565b92915050565b5f6020828403121561057957610578610506565b5b5f61058684828501610550565b91505092915050565b610598816104d5565b81146105a2575f5ffd5b50565b5f813590506105b38161058f565b92915050565b5f602082840312156105ce576105cd610506565b5b5f6105db848285016105a5565b91505092915050565b6105ed81610529565b82525050565b5f6020820190506106065f8301846105e4565b92915050565b5f82825260208201905092915050565b7f496e73756666696369656e742062616c616e63652c2063616e277420776974685f8201527f6472617700000000000000000000000000000000000000000000000000000000602082015250565b5f61067660248361060c565b91506106818261061c565b604082019050919050565b5f6020820190508181035f8301526106a38161066a565b9050919050565b7f4e487b71000000000000000000000000000000000000000000000000000000005f52601160045260245ffd5b5f6106e1826104d5565b91506106ec836104d5565b9250828203905081811115610704576107036106aa565b5b92915050565b7f596f75206172656e277420746865206f776e65720000000000000000000000005f82015250565b5f61073e60148361060c565b91506107498261070a565b602082019050919050565b5f6020820190508181035f83015261076b81610732565b9050919050565b5f61077c826104d5565b9150610787836104d5565b925082820190508082111561079f5761079e6106aa565b5b9291505056fea26469706673582212202aae6d518a9cad26d2575842883fbfa27a34241da680d70c7ec92b70ace45cbf64736f6c634300081e0033",
					"opcodes": "PUSH1 0x80 PUSH1 0x40 MSTORE CALLVALUE DUP1 ISZERO PUSH1 0xE JUMPI PUSH0 PUSH0 REVERT JUMPDEST POP CALLER PUSH1 0x1 PUSH0 PUSH2 0x100 EXP DUP2 SLOAD DUP2 PUSH20 0xFFFFFFFFFFFFFFFFFFFFFFFFFFFFFFFFFFFFFFFF MUL NOT AND SWAP1 DUP4 PUSH20 0xFFFFFFFFFFFFFFFFFFFFFFFFFFFFFFFFFFFFFFFF AND MUL OR SWAP1 SSTORE POP PUSH2 0x7DB DUP1 PUSH2 0x5C PUSH0 CODECOPY PUSH0 RETURN INVALID PUSH1 0x80 PUSH1 0x40 MSTORE PUSH1 0x4 CALLDATASIZE LT PUSH2 0x6F JUMPI PUSH0 CALLDATALOAD PUSH1 0xE0 SHR DUP1 PUSH4 0x2E1A7D4D GT PUSH2 0x4D JUMPI DUP1 PUSH4 0x2E1A7D4D EQ PUSH2 0x103 JUMPI DUP1 PUSH4 0x853828B6 EQ PUSH2 0x12B JUMPI DUP1 PUSH4 0x8DA5CB5B EQ PUSH2 0x141 JUMPI DUP1 PUSH4 0xD0E30DB0 EQ PUSH2 0x16B JUMPI PUSH2 0x6F JUMP JUMPDEST DUP1 PUSH4 0x66B45A4 EQ PUSH2 0x73 JUMPI DUP1 PUSH4 0x12B58349 EQ PUSH2 0x9D JUMPI DUP1 PUSH4 0x27E235E3 EQ PUSH2 0xC7 JUMPI JUMPDEST PUSH0 PUSH0 REVERT JUMPDEST CALLVALUE DUP1 ISZERO PUSH2 0x7E JUMPI PUSH0 PUSH0 REVERT JUMPDEST POP PUSH2 0x87 PUSH2 0x175 JUMP JUMPDEST PUSH1 0x40 MLOAD PUSH2 0x94 SWAP2 SWAP1 PUSH2 0x4ED JUMP JUMPDEST PUSH1 0x40 MLOAD DUP1 SWAP2 SUB SWAP1 RETURN JUMPDEST CALLVALUE DUP1 ISZERO PUSH2 0xA8 JUMPI PUSH0 PUSH0 REVERT JUMPDEST POP PUSH2 0xB1 PUSH2 0x1B8 JUMP JUMPDEST PUSH1 0x40 MLOAD PUSH2 0xBE SWAP2 SWAP1 PUSH2 0x4ED JUMP JUMPDEST PUSH1 0x40 MLOAD DUP1 SWAP2 SUB SWAP1 RETURN JUMPDEST CALLVALUE DUP1 ISZERO PUSH2 0xD2 JUMPI PUSH0 PUSH0 REVERT JUMPDEST POP PUSH2 0xED PUSH1 0x4 DUP1 CALLDATASIZE SUB DUP2 ADD SWAP1 PUSH2 0xE8 SWAP2 SWAP1 PUSH2 0x564 JUMP JUMPDEST PUSH2 0x1BF JUMP JUMPDEST PUSH1 0x40 MLOAD PUSH2 0xFA SWAP2 SWAP1 PUSH2 0x4ED JUMP JUMPDEST PUSH1 0x40 MLOAD DUP1 SWAP2 SUB SWAP1 RETURN JUMPDEST CALLVALUE DUP1 ISZERO PUSH2 0x10E JUMPI PUSH0 PUSH0 REVERT JUMPDEST POP PUSH2 0x129 PUSH1 0x4 DUP1 CALLDATASIZE SUB DUP2 ADD SWAP1 PUSH2 0x124 SWAP2 SWAP1 PUSH2 0x5B9 JUMP JUMPDEST PUSH2 0x1D3 JUMP JUMPDEST STOP JUMPDEST CALLVALUE DUP1 ISZERO PUSH2 0x136 JUMPI PUSH0 PUSH0 REVERT JUMPDEST POP PUSH2 0x13F PUSH2 0x339 JUMP JUMPDEST STOP JUMPDEST CALLVALUE DUP1 ISZERO PUSH2 0x14C JUMPI PUSH0 PUSH0 REVERT JUMPDEST POP PUSH2 0x155 PUSH2 0x40E JUMP JUMPDEST PUSH1 0x40 MLOAD PUSH2 0x162 SWAP2 SWAP1 PUSH2 0x5F3 JUMP JUMPDEST PUSH1 0x40 MLOAD DUP1 SWAP2 SUB SWAP1 RETURN JUMPDEST PUSH2 0x173 PUSH2 0x433 JUMP JUMPDEST STOP JUMPDEST PUSH0 PUSH0 PUSH0 CALLER PUSH20 0xFFFFFFFFFFFFFFFFFFFFFFFFFFFFFFFFFFFFFFFF AND PUSH20 0xFFFFFFFFFFFFFFFFFFFFFFFFFFFFFFFFFFFFFFFF AND DUP2 MSTORE PUSH1 0x20 ADD SWAP1 DUP2 MSTORE PUSH1 0x20 ADD PUSH0 KECCAK256 SLOAD SWAP1 POP SWAP1 JUMP JUMPDEST PUSH0 SELFBALANCE SWAP1 POP SWAP1 JUMP JUMPDEST PUSH0 PUSH1 0x20 MSTORE DUP1 PUSH0 MSTORE PUSH1 0x40 PUSH0 KECCAK256 PUSH0 SWAP2 POP SWAP1 POP SLOAD DUP2 JUMP JUMPDEST DUP1 PUSH0 PUSH0 CALLER PUSH20 0xFFFFFFFFFFFFFFFFFFFFFFFFFFFFFFFFFFFFFFFF AND PUSH20 0xFFFFFFFFFFFFFFFFFFFFFFFFFFFFFFFFFFFFFFFF AND DUP2 MSTORE PUSH1 0x20 ADD SWAP1 DUP2 MSTORE PUSH1 0x20 ADD PUSH0 KECCAK256 SLOAD LT ISZERO PUSH2 0x252 JUMPI PUSH1 0x40 MLOAD PUSH32 0x8C379A000000000000000000000000000000000000000000000000000000000 DUP2 MSTORE PUSH1 0x4 ADD PUSH2 0x249 SWAP1 PUSH2 0x68C JUMP JUMPDEST PUSH1 0x40 MLOAD DUP1 SWAP2 SUB SWAP1 REVERT JUMPDEST DUP1 PUSH0 PUSH0 CALLER PUSH20 0xFFFFFFFFFFFFFFFFFFFFFFFFFFFFFFFFFFFFFFFF AND PUSH20 0xFFFFFFFFFFFFFFFFFFFFFFFFFFFFFFFFFFFFFFFF AND DUP2 MSTORE PUSH1 0x20 ADD SWAP1 DUP2 MSTORE PUSH1 0x20 ADD PUSH0 KECCAK256 PUSH0 DUP3 DUP3 SLOAD PUSH2 0x29D SWAP2 SWAP1 PUSH2 0x6D7 JUMP JUMPDEST SWAP3 POP POP DUP2 SWAP1 SSTORE POP CALLER PUSH20 0xFFFFFFFFFFFFFFFFFFFFFFFFFFFFFFFFFFFFFFFF AND PUSH2 0x8FC DUP3 SWAP1 DUP2 ISZERO MUL SWAP1 PUSH1 0x40 MLOAD PUSH0 PUSH1 0x40 MLOAD DUP1 DUP4 SUB DUP2 DUP6 DUP9 DUP9 CALL SWAP4 POP POP POP POP ISZERO DUP1 ISZERO PUSH2 0x2E7 JUMPI RETURNDATASIZE PUSH0 PUSH0 RETURNDATACOPY RETURNDATASIZE PUSH0 REVERT JUMPDEST POP CALLER PUSH20 0xFFFFFFFFFFFFFFFFFFFFFFFFFFFFFFFFFFFFFFFF AND PUSH32 0x884EDAD9CE6FA2440D8A54CC123490EB96D2768479D49FF9C7366125A9424364 DUP3 PUSH1 0x40 MLOAD PUSH2 0x32E SWAP2 SWAP1 PUSH2 0x4ED JUMP JUMPDEST PUSH1 0x40 MLOAD DUP1 SWAP2 SUB SWAP1 LOG2 POP JUMP JUMPDEST PUSH1 0x1 PUSH0 SWAP1 SLOAD SWAP1 PUSH2 0x100 EXP SWAP1 DIV PUSH20 0xFFFFFFFFFFFFFFFFFFFFFFFFFFFFFFFFFFFFFFFF AND PUSH20 0xFFFFFFFFFFFFFFFFFFFFFFFFFFFFFFFFFFFFFFFF AND CALLER PUSH20 0xFFFFFFFFFFFFFFFFFFFFFFFFFFFFFFFFFFFFFFFF AND EQ PUSH2 0x3C8 JUMPI PUSH1 0x40 MLOAD PUSH32 0x8C379A000000000000000000000000000000000000000000000000000000000 DUP2 MSTORE PUSH1 0x4 ADD PUSH2 0x3BF SWAP1 PUSH2 0x754 JUMP JUMPDEST PUSH1 0x40 MLOAD DUP1 SWAP2 SUB SWAP1 REVERT JUMPDEST CALLER PUSH20 0xFFFFFFFFFFFFFFFFFFFFFFFFFFFFFFFFFFFFFFFF AND PUSH2 0x8FC SELFBALANCE SWAP1 DUP2 ISZERO MUL SWAP1 PUSH1 0x40 MLOAD PUSH0 PUSH1 0x40 MLOAD DUP1 DUP4 SUB DUP2 DUP6 DUP9 DUP9 CALL SWAP4 POP POP POP POP ISZERO DUP1 ISZERO PUSH2 0x40B JUMPI RETURNDATASIZE PUSH0 PUSH0 RETURNDATACOPY RETURNDATASIZE PUSH0 REVERT JUMPDEST POP JUMP JUMPDEST PUSH1 0x1 PUSH0 SWAP1 SLOAD SWAP1 PUSH2 0x100 EXP SWAP1 DIV PUSH20 0xFFFFFFFFFFFFFFFFFFFFFFFFFFFFFFFFFFFFFFFF AND DUP2 JUMP JUMPDEST CALLVALUE PUSH0 PUSH0 CALLER PUSH20 0xFFFFFFFFFFFFFFFFFFFFFFFFFFFFFFFFFFFFFFFF AND PUSH20 0xFFFFFFFFFFFFFFFFFFFFFFFFFFFFFFFFFFFFFFFF AND DUP2 MSTORE PUSH1 0x20 ADD SWAP1 DUP2 MSTORE PUSH1 0x20 ADD PUSH0 KECCAK256 PUSH0 DUP3 DUP3 SLOAD PUSH2 0x47E SWAP2 SWAP1 PUSH2 0x772 JUMP JUMPDEST SWAP3 POP POP DUP2 SWAP1 SSTORE POP CALLER PUSH20 0xFFFFFFFFFFFFFFFFFFFFFFFFFFFFFFFFFFFFFFFF AND PUSH32 0xE1FFFCC4923D04B559F4D29A8BFC6CDA04EB5B0D3C460751C2402C5C5CC9109C CALLVALUE PUSH1 0x40 MLOAD PUSH2 0x4CB SWAP2 SWAP1 PUSH2 0x4ED JUMP JUMPDEST PUSH1 0x40 MLOAD DUP1 SWAP2 SUB SWAP1 LOG2 JUMP JUMPDEST PUSH0 DUP2 SWAP1 POP SWAP2 SWAP1 POP JUMP JUMPDEST PUSH2 0x4E7 DUP2 PUSH2 0x4D5 JUMP JUMPDEST DUP3 MSTORE POP POP JUMP JUMPDEST PUSH0 PUSH1 0x20 DUP3 ADD SWAP1 POP PUSH2 0x500 PUSH0 DUP4 ADD DUP5 PUSH2 0x4DE JUMP JUMPDEST SWAP3 SWAP2 POP POP JUMP JUMPDEST PUSH0 PUSH0 REVERT JUMPDEST PUSH0 PUSH20 0xFFFFFFFFFFFFFFFFFFFFFFFFFFFFFFFFFFFFFFFF DUP3 AND SWAP1 POP SWAP2 SWAP1 POP JUMP JUMPDEST PUSH0 PUSH2 0x533 DUP3 PUSH2 0x50A JUMP JUMPDEST SWAP1 POP SWAP2 SWAP1 POP JUMP JUMPDEST PUSH2 0x543 DUP2 PUSH2 0x529 JUMP JUMPDEST DUP2 EQ PUSH2 0x54D JUMPI PUSH0 PUSH0 REVERT JUMPDEST POP JUMP JUMPDEST PUSH0 DUP2 CALLDATALOAD SWAP1 POP PUSH2 0x55E DUP2 PUSH2 0x53A JUMP JUMPDEST SWAP3 SWAP2 POP POP JUMP JUMPDEST PUSH0 PUSH1 0x20 DUP3 DUP5 SUB SLT ISZERO PUSH2 0x579 JUMPI PUSH2 0x578 PUSH2 0x506 JUMP JUMPDEST JUMPDEST PUSH0 PUSH2 0x586 DUP5 DUP3 DUP6 ADD PUSH2 0x550 JUMP JUMPDEST SWAP2 POP POP SWAP3 SWAP2 POP POP JUMP JUMPDEST PUSH2 0x598 DUP2 PUSH2 0x4D5 JUMP JUMPDEST DUP2 EQ PUSH2 0x5A2 JUMPI PUSH0 PUSH0 REVERT JUMPDEST POP JUMP JUMPDEST PUSH0 DUP2 CALLDATALOAD SWAP1 POP PUSH2 0x5B3 DUP2 PUSH2 0x58F JUMP JUMPDEST SWAP3 SWAP2 POP POP JUMP JUMPDEST PUSH0 PUSH1 0x20 DUP3 DUP5 SUB SLT ISZERO PUSH2 0x5CE JUMPI PUSH2 0x5CD PUSH2 0x506 JUMP JUMPDEST JUMPDEST PUSH0 PUSH2 0x5DB DUP5 DUP3 DUP6 ADD PUSH2 0x5A5 JUMP JUMPDEST SWAP2 POP POP SWAP3 SWAP2 POP POP JUMP JUMPDEST PUSH2 0x5ED DUP2 PUSH2 0x529 JUMP JUMPDEST DUP3 MSTORE POP POP JUMP JUMPDEST PUSH0 PUSH1 0x20 DUP3 ADD SWAP1 POP PUSH2 0x606 PUSH0 DUP4 ADD DUP5 PUSH2 0x5E4 JUMP JUMPDEST SWAP3 SWAP2 POP POP JUMP JUMPDEST PUSH0 DUP3 DUP3 MSTORE PUSH1 0x20 DUP3 ADD SWAP1 POP SWAP3 SWAP2 POP POP JUMP JUMPDEST PUSH32 0x496E73756666696369656E742062616C616E63652C2063616E27742077697468 PUSH0 DUP3 ADD MSTORE PUSH32 0x6472617700000000000000000000000000000000000000000000000000000000 PUSH1 0x20 DUP3 ADD MSTORE POP JUMP JUMPDEST PUSH0 PUSH2 0x676 PUSH1 0x24 DUP4 PUSH2 0x60C JUMP JUMPDEST SWAP2 POP PUSH2 0x681 DUP3 PUSH2 0x61C JUMP JUMPDEST PUSH1 0x40 DUP3 ADD SWAP1 POP SWAP2 SWAP1 POP JUMP JUMPDEST PUSH0 PUSH1 0x20 DUP3 ADD SWAP1 POP DUP2 DUP2 SUB PUSH0 DUP4 ADD MSTORE PUSH2 0x6A3 DUP2 PUSH2 0x66A JUMP JUMPDEST SWAP1 POP SWAP2 SWAP1 POP JUMP JUMPDEST PUSH32 0x4E487B7100000000000000000000000000000000000000000000000000000000 PUSH0 MSTORE PUSH1 0x11 PUSH1 0x4 MSTORE PUSH1 0x24 PUSH0 REVERT JUMPDEST PUSH0 PUSH2 0x6E1 DUP3 PUSH2 0x4D5 JUMP JUMPDEST SWAP2 POP PUSH2 0x6EC DUP4 PUSH2 0x4D5 JUMP JUMPDEST SWAP3 POP DUP3 DUP3 SUB SWAP1 POP DUP2 DUP2 GT ISZERO PUSH2 0x704 JUMPI PUSH2 0x703 PUSH2 0x6AA JUMP JUMPDEST JUMPDEST SWAP3 SWAP2 POP POP JUMP JUMPDEST PUSH32 0x596F75206172656E277420746865206F776E6572000000000000000000000000 PUSH0 DUP3 ADD MSTORE POP JUMP JUMPDEST PUSH0 PUSH2 0x73E PUSH1 0x14 DUP4 PUSH2 0x60C JUMP JUMPDEST SWAP2 POP PUSH2 0x749 DUP3 PUSH2 0x70A JUMP JUMPDEST PUSH1 0x20 DUP3 ADD SWAP1 POP SWAP2 SWAP1 POP JUMP JUMPDEST PUSH0 PUSH1 0x20 DUP3 ADD SWAP1 POP DUP2 DUP2 SUB PUSH0 DUP4 ADD MSTORE PUSH2 0x76B DUP2 PUSH2 0x732 JUMP JUMPDEST SWAP1 POP SWAP2 SWAP1 POP JUMP JUMPDEST PUSH0 PUSH2 0x77C DUP3 PUSH2 0x4D5 JUMP JUMPDEST SWAP2 POP PUSH2 0x787 DUP4 PUSH2 0x4D5 JUMP JUMPDEST SWAP3 POP DUP3 DUP3 ADD SWAP1 POP DUP1 DUP3 GT ISZERO PUSH2 0x79F JUMPI PUSH2 0x79E PUSH2 0x6AA JUMP JUMPDEST JUMPDEST SWAP3 SWAP2 POP POP JUMP INVALID LOG2 PUSH5 0x6970667358 0x22 SLT KECCAK256 0x2A 0xAE PUSH14 0x518A9CAD26D2575842883FBFA27A CALLVALUE 0x24 SAR 0xA6 DUP1 0xD7 0xC PUSH31 0xC92B70ACE45CBF64736F6C634300081E003300000000000000000000000000 "
				},
				"gasEstimates": {
					"creation": {
						"codeDepositCost": "402200",
						"executionCost": "24699",
						"totalCost": "426899"
					},
					"external": {
						"balances(address)": "2846",
						"deposit()": "infinite",
						"getIndividualBalance()": "2519",
						"getTotalBalance()": "357",
						"owner()": "2552",
						"withdraw(uint256)": "infinite",
						"withdrawAll()": "infinite"
					}
				},
				"methodIdentifiers": {
					"balances(address)": "27e235e3",
					"deposit()": "d0e30db0",
					"getIndividualBalance()": "066b45a4",
					"getTotalBalance()": "12b58349",
					"owner()": "8da5cb5b",
					"withdraw(uint256)": "2e1a7d4d",
					"withdrawAll()": "853828b6"
				}
			},
			"storageLayout": {
				"storage": [
					{
						"astId": 5,
						"contract": "contracts/bank.sol:BankContract",
						"label": "balances",
						"offset": 0,
						"slot": "0",
						"type": "t_mapping(t_address,t_uint256)"
					},
					{
						"astId": 7,
						"contract": "contracts/bank.sol:BankContract",
						"label": "owner",
						"offset": 0,
						"slot": "1",
						"type": "t_address"
					}
				],
				"types": {
					"t_address": {
						"encoding": "inplace",
						"label": "address",
						"numberOfBytes": "20"
					},
					"t_mapping(t_address,t_uint256)": {
						"encoding": "mapping",
						"key": "t_address",
						"label": "mapping(address => uint256)",
						"numberOfBytes": "32",
						"value": "t_uint256"
					},
					"t_uint256": {
						"encoding": "inplace",
						"label": "uint256",
						"numberOfBytes": "32"
					}
				}
			},
			"userdoc": {
				"kind": "user",
				"methods": {},
				"version": 1
			}
		}
	}
}