{
	"contracts/aiddistributor.sol": {
		"AidTracker": {
			"abi": [
				{
					"anonymous": false,
					"inputs": [
						{
							"indexed": false,
							"internalType": "string",
							"name": "cid",
							"type": "string"
						},
						{
							"indexed": false,
							"internalType": "string",
							"name": "location",
							"type": "string"
						},
						{
							"indexed": false,
							"internalType": "uint256",
							"name": "amount",
							"type": "uint256"
						},
						{
							"indexed": false,
							"internalType": "uint256",
							"name": "timestamp",
							"type": "uint256"
						}
					],
					"name": "AidDistributed",
					"type": "event"
				},
				{
					"anonymous": false,
					"inputs": [
						{
							"indexed": false,
							"internalType": "address",
							"name": "donor",
							"type": "address"
						},
						{
							"indexed": false,
							"internalType": "string",
							"name": "cid",
							"type": "string"
						},
						{
							"indexed": false,
							"internalType": "uint256",
							"name": "amount",
							"type": "uint256"
						},
						{
							"indexed": false,
							"internalType": "uint256",
							"name": "timestamp",
							"type": "uint256"
						}
					],
					"name": "DonationReceived",
					"type": "event"
				},
				{
					"inputs": [
						{
							"internalType": "uint256",
							"name": "",
							"type": "uint256"
						}
					],
					"name": "distributions",
					"outputs": [
						{
							"internalType": "string",
							"name": "cid",
							"type": "string"
						},
						{
							"internalType": "string",
							"name": "location",
							"type": "string"
						},
						{
							"internalType": "uint256",
							"name": "amount",
							"type": "uint256"
						},
						{
							"internalType": "uint256",
							"name": "timestamp",
							"type": "uint256"
						}
					],
					"stateMutability": "view",
					"type": "function"
				},
				{
					"inputs": [
						{
							"internalType": "uint256",
							"name": "",
							"type": "uint256"
						}
					],
					"name": "donations",
					"outputs": [
						{
							"internalType": "address",
							"name": "donor",
							"type": "address"
						},
						{
							"internalType": "string",
							"name": "cid",
							"type": "string"
						},
						{
							"internalType": "uint256",
							"name": "amount",
							"type": "uint256"
						},
						{
							"internalType": "uint256",
							"name": "timestamp",
							"type": "uint256"
						}
					],
					"stateMutability": "view",
					"type": "function"
				},
				{
					"inputs": [],
					"name": "getAllDistributions",
					"outputs": [
						{
							"components": [
								{
									"internalType": "string",
									"name": "cid",
									"type": "string"
								},
								{
									"internalType": "string",
									"name": "location",
									"type": "string"
								},
								{
									"internalType": "uint256",
									"name": "amount",
									"type": "uint256"
								},
								{
									"internalType": "uint256",
									"name": "timestamp",
									"type": "uint256"
								}
							],
							"internalType": "struct AidTracker.Distribution[]",
							"name": "",
							"type": "tuple[]"
						}
					],
					"stateMutability": "view",
					"type": "function"
				},
				{
					"inputs": [],
					"name": "getAllDonations",
					"outputs": [
						{
							"components": [
								{
									"internalType": "address",
									"name": "donor",
									"type": "address"
								},
								{
									"internalType": "string",
									"name": "cid",
									"type": "string"
								},
								{
									"internalType": "uint256",
									"name": "amount",
									"type": "uint256"
								},
								{
									"internalType": "uint256",
									"name": "timestamp",
									"type": "uint256"
								}
							],
							"internalType": "struct AidTracker.Donation[]",
							"name": "",
							"type": "tuple[]"
						}
					],
					"stateMutability": "view",
					"type": "function"
				},
				{
					"inputs": [
						{
							"internalType": "string",
							"name": "_cid",
							"type": "string"
						},
						{
							"internalType": "string",
							"name": "_location",
							"type": "string"
						},
						{
							"internalType": "uint256",
							"name": "_amount",
							"type": "uint256"
						}
					],
					"name": "logAid",
					"outputs": [],
					"stateMutability": "nonpayable",
					"type": "function"
				},
				{
					"inputs": [
						{
							"internalType": "string",
							"name": "_cid",
							"type": "string"
						},
						{
							"internalType": "uint256",
							"name": "_amount",
							"type": "uint256"
						}
					],
					"name": "logDonation",
					"outputs": [],
					"stateMutability": "nonpayable",
					"type": "function"
				}
			],
			"devdoc": {
				"kind": "dev",
				"methods": {},
				"version": 1
			},
			"evm": {
				"assembly": "    /* \"contracts/aiddistributor.sol\":69:1515  contract AidTracker {... */\n  mstore(0x40, 0x80)\n  callvalue\n  dup1\n  iszero\n  tag_1\n  jumpi\n  revert(0x00, 0x00)\ntag_1:\n  pop\n  dataSize(sub_0)\n  dup1\n  dataOffset(sub_0)\n  0x00\n  codecopy\n  0x00\n  return\nstop\n\nsub_0: assembly {\n        /* \"contracts/aiddistributor.sol\":69:1515  contract AidTracker {... */\n      mstore(0x40, 0x80)\n      callvalue\n      dup1\n      iszero\n      tag_1\n      jumpi\n      revert(0x00, 0x00)\n    tag_1:\n      pop\n      jumpi(tag_2, lt(calldatasize, 0x04))\n      shr(0xe0, calldataload(0x00))\n      dup1\n      0x38a59a07\n      eq\n      tag_3\n      jumpi\n      dup1\n      0x4487d3df\n      eq\n      tag_4\n      jumpi\n      dup1\n      0x6f94cbfe\n      eq\n      tag_5\n      jumpi\n      dup1\n      0x7b74691e\n      eq\n      tag_6\n      jumpi\n      dup1\n      0xe7c234e6\n      eq\n      tag_7\n      jumpi\n      dup1\n      0xf8626af8\n      eq\n      tag_8\n      jumpi\n    tag_2:\n      revert(0x00, 0x00)\n        /* \"contracts/aiddistributor.sol\":1295:1395  function getAllDonations() public view returns (Donation[] memory) {... */\n    tag_3:\n      tag_9\n      tag_10\n      jump\t// in\n    tag_9:\n      mload(0x40)\n      tag_11\n      swap2\n      swap1\n      tag_12\n      jump\t// in\n    tag_11:\n      mload(0x40)\n      dup1\n      swap2\n      sub\n      swap1\n      return\n        /* \"contracts/aiddistributor.sol\":399:434  Distribution[] public distributions */\n    tag_4:\n      tag_13\n      0x04\n      dup1\n      calldatasize\n      sub\n      dup2\n      add\n      swap1\n      tag_14\n      swap2\n      swap1\n      tag_15\n      jump\t// in\n    tag_14:\n      tag_16\n      jump\t// in\n    tag_13:\n      mload(0x40)\n      tag_17\n      swap5\n      swap4\n      swap3\n      swap2\n      swap1\n      tag_18\n      jump\t// in\n    tag_17:\n      mload(0x40)\n      dup1\n      swap2\n      sub\n      swap1\n      return\n        /* \"contracts/aiddistributor.sol\":622:939  function logDonation(string memory _cid, uint256 _amount) public {... */\n    tag_5:\n      tag_19\n      0x04\n      dup1\n      calldatasize\n      sub\n      dup2\n      add\n      swap1\n      tag_20\n      swap2\n      swap1\n      tag_21\n      jump\t// in\n    tag_20:\n      tag_22\n      jump\t// in\n    tag_19:\n      stop\n        /* \"contracts/aiddistributor.sol\":1401:1513  function getAllDistributions() public view returns (Distribution[] memory) {... */\n    tag_6:\n      tag_23\n      tag_24\n      jump\t// in\n    tag_23:\n      mload(0x40)\n      tag_25\n      swap2\n      swap1\n      tag_26\n      jump\t// in\n    tag_25:\n      mload(0x40)\n      dup1\n      swap2\n      sub\n      swap1\n      return\n        /* \"contracts/aiddistributor.sol\":945:1289  function logAid(string memory _cid, string memory _location, uint256 _amount) public {... */\n    tag_7:\n      tag_27\n      0x04\n      dup1\n      calldatasize\n      sub\n      dup2\n      add\n      swap1\n      tag_28\n      swap2\n      swap1\n      tag_29\n      jump\t// in\n    tag_28:\n      tag_30\n      jump\t// in\n    tag_27:\n      stop\n        /* \"contracts/aiddistributor.sol\":366:393  Donation[] public donations */\n    tag_8:\n      tag_31\n      0x04\n      dup1\n      calldatasize\n      sub\n      dup2\n      add\n      swap1\n      tag_32\n      swap2\n      swap1\n      tag_15\n      jump\t// in\n    tag_32:\n      tag_33\n      jump\t// in\n    tag_31:\n      mload(0x40)\n      tag_34\n      swap5\n      swap4\n      swap3\n      swap2\n      swap1\n      tag_35\n      jump\t// in\n    tag_34:\n      mload(0x40)\n      dup1\n      swap2\n      sub\n      swap1\n      return\n        /* \"contracts/aiddistributor.sol\":1295:1395  function getAllDonations() public view returns (Donation[] memory) {... */\n    tag_10:\n        /* \"contracts/aiddistributor.sol\":1343:1360  Donation[] memory */\n      0x60\n        /* \"contracts/aiddistributor.sol\":1379:1388  donations */\n      0x00\n        /* \"contracts/aiddistributor.sol\":1372:1388  return donations */\n      dup1\n      sload\n      dup1\n      0x20\n      mul\n      0x20\n      add\n      mload(0x40)\n      swap1\n      dup2\n      add\n      0x40\n      mstore\n      dup1\n      swap3\n      swap2\n      swap1\n      dup2\n      dup2\n      mstore\n      0x20\n      add\n      0x00\n      swap1\n    tag_37:\n      dup3\n      dup3\n      lt\n      iszero\n      tag_38\n      jumpi\n      dup4\n      dup3\n      swap1\n      0x00\n      mstore\n      keccak256(0x00, 0x20)\n      swap1\n      0x04\n      mul\n      add\n      mload(0x40)\n      dup1\n      0x80\n      add\n      0x40\n      mstore\n      swap1\n      dup2\n      0x00\n      dup3\n      add\n      0x00\n      swap1\n      sload\n      swap1\n      0x0100\n      exp\n      swap1\n      div\n      0xffffffffffffffffffffffffffffffffffffffff\n      and\n      0xffffffffffffffffffffffffffffffffffffffff\n      and\n      0xffffffffffffffffffffffffffffffffffffffff\n      and\n      dup2\n      mstore\n      0x20\n      add\n      0x01\n      dup3\n      add\n      dup1\n      sload\n      tag_40\n      swap1\n      tag_41\n      jump\t// in\n    tag_40:\n      dup1\n      0x1f\n      add\n      0x20\n      dup1\n      swap2\n      div\n      mul\n      0x20\n      add\n      mload(0x40)\n      swap1\n      dup2\n      add\n      0x40\n      mstore\n      dup1\n      swap3\n      swap2\n      swap1\n      dup2\n      dup2\n      mstore\n      0x20\n      add\n      dup3\n      dup1\n      sload\n      tag_42\n      swap1\n      tag_41\n      jump\t// in\n    tag_42:\n      dup1\n      iszero\n      tag_43\n      jumpi\n      dup1\n      0x1f\n      lt\n      tag_44\n      jumpi\n      0x0100\n      dup1\n      dup4\n      sload\n      div\n      mul\n      dup4\n      mstore\n      swap2\n      0x20\n      add\n      swap2\n      jump(tag_43)\n    tag_44:\n      dup3\n      add\n      swap2\n      swap1\n      0x00\n      mstore\n      keccak256(0x00, 0x20)\n      swap1\n    tag_45:\n      dup2\n      sload\n      dup2\n      mstore\n      swap1\n      0x01\n      add\n      swap1\n      0x20\n      add\n      dup1\n      dup4\n      gt\n      tag_45\n      jumpi\n      dup3\n      swap1\n      sub\n      0x1f\n      and\n      dup3\n      add\n      swap2\n    tag_43:\n      pop\n      pop\n      pop\n      pop\n      pop\n      dup2\n      mstore\n      0x20\n      add\n      0x02\n      dup3\n      add\n      sload\n      dup2\n      mstore\n      0x20\n      add\n      0x03\n      dup3\n      add\n      sload\n      dup2\n      mstore\n      pop\n      pop\n      dup2\n      mstore\n      0x20\n      add\n      swap1\n      0x01\n      add\n      swap1\n      jump(tag_37)\n    tag_38:\n      pop\n      pop\n      pop\n      pop\n      swap1\n      pop\n        /* \"contracts/aiddistributor.sol\":1295:1395  function getAllDonations() public view returns (Donation[] memory) {... */\n      swap1\n      jump\t// out\n        /* \"contracts/aiddistributor.sol\":399:434  Distribution[] public distributions */\n    tag_16:\n      0x01\n      dup2\n      dup2\n      sload\n      dup2\n      lt\n      tag_46\n      jumpi\n      0x00\n      dup1\n      revert\n    tag_46:\n      swap1\n      0x00\n      mstore\n      keccak256(0x00, 0x20)\n      swap1\n      0x04\n      mul\n      add\n      0x00\n      swap2\n      pop\n      swap1\n      pop\n      dup1\n      0x00\n      add\n      dup1\n      sload\n      tag_48\n      swap1\n      tag_41\n      jump\t// in\n    tag_48:\n      dup1\n      0x1f\n      add\n      0x20\n      dup1\n      swap2\n      div\n      mul\n      0x20\n      add\n      mload(0x40)\n      swap1\n      dup2\n      add\n      0x40\n      mstore\n      dup1\n      swap3\n      swap2\n      swap1\n      dup2\n      dup2\n      mstore\n      0x20\n      add\n      dup3\n      dup1\n      sload\n      tag_49\n      swap1\n      tag_41\n      jump\t// in\n    tag_49:\n      dup1\n      iszero\n      tag_50\n      jumpi\n      dup1\n      0x1f\n      lt\n      tag_51\n      jumpi\n      0x0100\n      dup1\n      dup4\n      sload\n      div\n      mul\n      dup4\n      mstore\n      swap2\n      0x20\n      add\n      swap2\n      jump(tag_50)\n    tag_51:\n      dup3\n      add\n      swap2\n      swap1\n      0x00\n      mstore\n      keccak256(0x00, 0x20)\n      swap1\n    tag_52:\n      dup2\n      sload\n      dup2\n      mstore\n      swap1\n      0x01\n      add\n      swap1\n      0x20\n      add\n      dup1\n      dup4\n      gt\n      tag_52\n      jumpi\n      dup3\n      swap1\n      sub\n      0x1f\n      and\n      dup3\n      add\n      swap2\n    tag_50:\n      pop\n      pop\n      pop\n      pop\n      pop\n      swap1\n      dup1\n      0x01\n      add\n      dup1\n      sload\n      tag_53\n      swap1\n      tag_41\n      jump\t// in\n    tag_53:\n      dup1\n      0x1f\n      add\n      0x20\n      dup1\n      swap2\n      div\n      mul\n      0x20\n      add\n      mload(0x40)\n      swap1\n      dup2\n      add\n      0x40\n      mstore\n      dup1\n      swap3\n      swap2\n      swap1\n      dup2\n      dup2\n      mstore\n      0x20\n      add\n      dup3\n      dup1\n      sload\n      tag_54\n      swap1\n      tag_41\n      jump\t// in\n    tag_54:\n      dup1\n      iszero\n      tag_55\n      jumpi\n      dup1\n      0x1f\n      lt\n      tag_56\n      jumpi\n      0x0100\n      dup1\n      dup4\n      sload\n      div\n      mul\n      dup4\n      mstore\n      swap2\n      0x20\n      add\n      swap2\n      jump(tag_55)\n    tag_56:\n      dup3\n      add\n      swap2\n      swap1\n      0x00\n      mstore\n      keccak256(0x00, 0x20)\n      swap1\n    tag_57:\n      dup2\n      sload\n      dup2\n      mstore\n      swap1\n      0x01\n      add\n      swap1\n      0x20\n      add\n      dup1\n      dup4\n      gt\n      tag_57\n      jumpi\n      dup3\n      swap1\n      sub\n      0x1f\n      and\n      dup3\n      add\n      swap2\n    tag_55:\n      pop\n      pop\n      pop\n      pop\n      pop\n      swap1\n      dup1\n      0x02\n      add\n      sload\n      swap1\n      dup1\n      0x03\n      add\n      sload\n      swap1\n      pop\n      dup5\n      jump\t// out\n        /* \"contracts/aiddistributor.sol\":622:939  function logDonation(string memory _cid, uint256 _amount) public {... */\n    tag_22:\n        /* \"contracts/aiddistributor.sol\":697:706  donations */\n      0x00\n        /* \"contracts/aiddistributor.sol\":712:855  Donation({... */\n      mload(0x40)\n      dup1\n      0x80\n      add\n      0x40\n      mstore\n      dup1\n        /* \"contracts/aiddistributor.sol\":742:752  msg.sender */\n      caller\n        /* \"contracts/aiddistributor.sol\":712:855  Donation({... */\n      0xffffffffffffffffffffffffffffffffffffffff\n      and\n      dup2\n      mstore\n      0x20\n      add\n        /* \"contracts/aiddistributor.sol\":771:775  _cid */\n      dup5\n        /* \"contracts/aiddistributor.sol\":712:855  Donation({... */\n      dup2\n      mstore\n      0x20\n      add\n        /* \"contracts/aiddistributor.sol\":797:804  _amount */\n      dup4\n        /* \"contracts/aiddistributor.sol\":712:855  Donation({... */\n      dup2\n      mstore\n      0x20\n      add\n        /* \"contracts/aiddistributor.sol\":829:844  block.timestamp */\n      timestamp\n        /* \"contracts/aiddistributor.sol\":712:855  Donation({... */\n      dup2\n      mstore\n      pop\n        /* \"contracts/aiddistributor.sol\":697:856  donations.push(Donation({... */\n      swap1\n      dup1\n      0x01\n      dup2\n      sload\n      add\n      dup1\n      dup3\n      sstore\n      dup1\n      swap2\n      pop\n      pop\n      0x01\n      swap1\n      sub\n      swap1\n      0x00\n      mstore\n      keccak256(0x00, 0x20)\n      swap1\n      0x04\n      mul\n      add\n      0x00\n      swap1\n      swap2\n      swap1\n      swap2\n      swap1\n      swap2\n      pop\n      0x00\n      dup3\n      add\n      mload\n      dup2\n      0x00\n      add\n      exp(0x0100, 0x00)\n      dup2\n      sload\n      dup2\n      0xffffffffffffffffffffffffffffffffffffffff\n      mul\n      not\n      and\n      swap1\n      dup4\n      0xffffffffffffffffffffffffffffffffffffffff\n      and\n      mul\n      or\n      swap1\n      sstore\n      pop\n      0x20\n      dup3\n      add\n      mload\n      dup2\n      0x01\n      add\n      swap1\n      dup2\n      tag_60\n      swap2\n      swap1\n      tag_61\n      jump\t// in\n    tag_60:\n      pop\n      0x40\n      dup3\n      add\n      mload\n      dup2\n      0x02\n      add\n      sstore\n      0x60\n      dup3\n      add\n      mload\n      dup2\n      0x03\n      add\n      sstore\n      pop\n      pop\n        /* \"contracts/aiddistributor.sol\":872:932  DonationReceived(msg.sender, _cid, _amount, block.timestamp) */\n      0xebdbfdd8b310d67ee2df6ab0914f1adc2e2d0574b0f728ce876e17a2a070cebd\n        /* \"contracts/aiddistributor.sol\":889:899  msg.sender */\n      caller\n        /* \"contracts/aiddistributor.sol\":901:905  _cid */\n      dup4\n        /* \"contracts/aiddistributor.sol\":907:914  _amount */\n      dup4\n        /* \"contracts/aiddistributor.sol\":916:931  block.timestamp */\n      timestamp\n        /* \"contracts/aiddistributor.sol\":872:932  DonationReceived(msg.sender, _cid, _amount, block.timestamp) */\n      mload(0x40)\n      tag_62\n      swap5\n      swap4\n      swap3\n      swap2\n      swap1\n      tag_35\n      jump\t// in\n    tag_62:\n      mload(0x40)\n      dup1\n      swap2\n      sub\n      swap1\n      log1\n        /* \"contracts/aiddistributor.sol\":622:939  function logDonation(string memory _cid, uint256 _amount) public {... */\n      pop\n      pop\n      jump\t// out\n        /* \"contracts/aiddistributor.sol\":1401:1513  function getAllDistributions() public view returns (Distribution[] memory) {... */\n    tag_24:\n        /* \"contracts/aiddistributor.sol\":1453:1474  Distribution[] memory */\n      0x60\n        /* \"contracts/aiddistributor.sol\":1493:1506  distributions */\n      0x01\n        /* \"contracts/aiddistributor.sol\":1486:1506  return distributions */\n      dup1\n      sload\n      dup1\n      0x20\n      mul\n      0x20\n      add\n      mload(0x40)\n      swap1\n      dup2\n      add\n      0x40\n      mstore\n      dup1\n      swap3\n      swap2\n      swap1\n      dup2\n      dup2\n      mstore\n      0x20\n      add\n      0x00\n      swap1\n    tag_64:\n      dup3\n      dup3\n      lt\n      iszero\n      tag_65\n      jumpi\n      dup4\n      dup3\n      swap1\n      0x00\n      mstore\n      keccak256(0x00, 0x20)\n      swap1\n      0x04\n      mul\n      add\n      mload(0x40)\n      dup1\n      0x80\n      add\n      0x40\n      mstore\n      swap1\n      dup2\n      0x00\n      dup3\n      add\n      dup1\n      sload\n      tag_67\n      swap1\n      tag_41\n      jump\t// in\n    tag_67:\n      dup1\n      0x1f\n      add\n      0x20\n      dup1\n      swap2\n      div\n      mul\n      0x20\n      add\n      mload(0x40)\n      swap1\n      dup2\n      add\n      0x40\n      mstore\n      dup1\n      swap3\n      swap2\n      swap1\n      dup2\n      dup2\n      mstore\n      0x20\n      add\n      dup3\n      dup1\n      sload\n      tag_68\n      swap1\n      tag_41\n      jump\t// in\n    tag_68:\n      dup1\n      iszero\n      tag_69\n      jumpi\n      dup1\n      0x1f\n      lt\n      tag_70\n      jumpi\n      0x0100\n      dup1\n      dup4\n      sload\n      div\n      mul\n      dup4\n      mstore\n      swap2\n      0x20\n      add\n      swap2\n      jump(tag_69)\n    tag_70:\n      dup3\n      add\n      swap2\n      swap1\n      0x00\n      mstore\n      keccak256(0x00, 0x20)\n      swap1\n    tag_71:\n      dup2\n      sload\n      dup2\n      mstore\n      swap1\n      0x01\n      add\n      swap1\n      0x20\n      add\n      dup1\n      dup4\n      gt\n      tag_71\n      jumpi\n      dup3\n      swap1\n      sub\n      0x1f\n      and\n      dup3\n      add\n      swap2\n    tag_69:\n      pop\n      pop\n      pop\n      pop\n      pop\n      dup2\n      mstore\n      0x20\n      add\n      0x01\n      dup3\n      add\n      dup1\n      sload\n      tag_72\n      swap1\n      tag_41\n      jump\t// in\n    tag_72:\n      dup1\n      0x1f\n      add\n      0x20\n      dup1\n      swap2\n      div\n      mul\n      0x20\n      add\n      mload(0x40)\n      swap1\n      dup2\n      add\n      0x40\n      mstore\n      dup1\n      swap3\n      swap2\n      swap1\n      dup2\n      dup2\n      mstore\n      0x20\n      add\n      dup3\n      dup1\n      sload\n      tag_73\n      swap1\n      tag_41\n      jump\t// in\n    tag_73:\n      dup1\n      iszero\n      tag_74\n      jumpi\n      dup1\n      0x1f\n      lt\n      tag_75\n      jumpi\n      0x0100\n      dup1\n      dup4\n      sload\n      div\n      mul\n      dup4\n      mstore\n      swap2\n      0x20\n      add\n      swap2\n      jump(tag_74)\n    tag_75:\n      dup3\n      add\n      swap2\n      swap1\n      0x00\n      mstore\n      keccak256(0x00, 0x20)\n      swap1\n    tag_76:\n      dup2\n      sload\n      dup2\n      mstore\n      swap1\n      0x01\n      add\n      swap1\n      0x20\n      add\n      dup1\n      dup4\n      gt\n      tag_76\n      jumpi\n      dup3\n      swap1\n      sub\n      0x1f\n      and\n      dup3\n      add\n      swap2\n    tag_74:\n      pop\n      pop\n      pop\n      pop\n      pop\n      dup2\n      mstore\n      0x20\n      add\n      0x02\n      dup3\n      add\n      sload\n      dup2\n      mstore\n      0x20\n      add\n      0x03\n      dup3\n      add\n      sload\n      dup2\n      mstore\n      pop\n      pop\n      dup2\n      mstore\n      0x20\n      add\n      swap1\n      0x01\n      add\n      swap1\n      jump(tag_64)\n    tag_65:\n      pop\n      pop\n      pop\n      pop\n      swap1\n      pop\n        /* \"contracts/aiddistributor.sol\":1401:1513  function getAllDistributions() public view returns (Distribution[] memory) {... */\n      swap1\n      jump\t// out\n        /* \"contracts/aiddistributor.sol\":945:1289  function logAid(string memory _cid, string memory _location, uint256 _amount) public {... */\n    tag_30:\n        /* \"contracts/aiddistributor.sol\":1040:1053  distributions */\n      0x01\n        /* \"contracts/aiddistributor.sol\":1059:1208  Distribution({... */\n      mload(0x40)\n      dup1\n      0x80\n      add\n      0x40\n      mstore\n      dup1\n        /* \"contracts/aiddistributor.sol\":1091:1095  _cid */\n      dup6\n        /* \"contracts/aiddistributor.sol\":1059:1208  Distribution({... */\n      dup2\n      mstore\n      0x20\n      add\n        /* \"contracts/aiddistributor.sol\":1119:1128  _location */\n      dup5\n        /* \"contracts/aiddistributor.sol\":1059:1208  Distribution({... */\n      dup2\n      mstore\n      0x20\n      add\n        /* \"contracts/aiddistributor.sol\":1150:1157  _amount */\n      dup4\n        /* \"contracts/aiddistributor.sol\":1059:1208  Distribution({... */\n      dup2\n      mstore\n      0x20\n      add\n        /* \"contracts/aiddistributor.sol\":1182:1197  block.timestamp */\n      timestamp\n        /* \"contracts/aiddistributor.sol\":1059:1208  Distribution({... */\n      dup2\n      mstore\n      pop\n        /* \"contracts/aiddistributor.sol\":1040:1209  distributions.push(Distribution({... */\n      swap1\n      dup1\n      0x01\n      dup2\n      sload\n      add\n      dup1\n      dup3\n      sstore\n      dup1\n      swap2\n      pop\n      pop\n      0x01\n      swap1\n      sub\n      swap1\n      0x00\n      mstore\n      keccak256(0x00, 0x20)\n      swap1\n      0x04\n      mul\n      add\n      0x00\n      swap1\n      swap2\n      swap1\n      swap2\n      swap1\n      swap2\n      pop\n      0x00\n      dup3\n      add\n      mload\n      dup2\n      0x00\n      add\n      swap1\n      dup2\n      tag_79\n      swap2\n      swap1\n      tag_61\n      jump\t// in\n    tag_79:\n      pop\n      0x20\n      dup3\n      add\n      mload\n      dup2\n      0x01\n      add\n      swap1\n      dup2\n      tag_80\n      swap2\n      swap1\n      tag_61\n      jump\t// in\n    tag_80:\n      pop\n      0x40\n      dup3\n      add\n      mload\n      dup2\n      0x02\n      add\n      sstore\n      0x60\n      dup3\n      add\n      mload\n      dup2\n      0x03\n      add\n      sstore\n      pop\n      pop\n        /* \"contracts/aiddistributor.sol\":1225:1282  AidDistributed(_cid, _location, _amount, block.timestamp) */\n      0x17cab404d0fc6ff34a9e918ddc8c2888872a95b340164fc6552bfa9190776c3b\n        /* \"contracts/aiddistributor.sol\":1240:1244  _cid */\n      dup4\n        /* \"contracts/aiddistributor.sol\":1246:1255  _location */\n      dup4\n        /* \"contracts/aiddistributor.sol\":1257:1264  _amount */\n      dup4\n        /* \"contracts/aiddistributor.sol\":1266:1281  block.timestamp */\n      timestamp\n        /* \"contracts/aiddistributor.sol\":1225:1282  AidDistributed(_cid, _location, _amount, block.timestamp) */\n      mload(0x40)\n      tag_81\n      swap5\n      swap4\n      swap3\n      swap2\n      swap1\n      tag_18\n      jump\t// in\n    tag_81:\n      mload(0x40)\n      dup1\n      swap2\n      sub\n      swap1\n      log1\n        /* \"contracts/aiddistributor.sol\":945:1289  function logAid(string memory _cid, string memory _location, uint256 _amount) public {... */\n      pop\n      pop\n      pop\n      jump\t// out\n        /* \"contracts/aiddistributor.sol\":366:393  Donation[] public donations */\n    tag_33:\n      0x00\n      dup2\n      dup2\n      sload\n      dup2\n      lt\n      tag_82\n      jumpi\n      0x00\n      dup1\n      revert\n    tag_82:\n      swap1\n      0x00\n      mstore\n      keccak256(0x00, 0x20)\n      swap1\n      0x04\n      mul\n      add\n      0x00\n      swap2\n      pop\n      swap1\n      pop\n      dup1\n      0x00\n      add\n      0x00\n      swap1\n      sload\n      swap1\n      0x0100\n      exp\n      swap1\n      div\n      0xffffffffffffffffffffffffffffffffffffffff\n      and\n      swap1\n      dup1\n      0x01\n      add\n      dup1\n      sload\n      tag_84\n      swap1\n      tag_41\n      jump\t// in\n    tag_84:\n      dup1\n      0x1f\n      add\n      0x20\n      dup1\n      swap2\n      div\n      mul\n      0x20\n      add\n      mload(0x40)\n      swap1\n      dup2\n      add\n      0x40\n      mstore\n      dup1\n      swap3\n      swap2\n      swap1\n      dup2\n      dup2\n      mstore\n      0x20\n      add\n      dup3\n      dup1\n      sload\n      tag_85\n      swap1\n      tag_41\n      jump\t// in\n    tag_85:\n      dup1\n      iszero\n      tag_86\n      jumpi\n      dup1\n      0x1f\n      lt\n      tag_87\n      jumpi\n      0x0100\n      dup1\n      dup4\n      sload\n      div\n      mul\n      dup4\n      mstore\n      swap2\n      0x20\n      add\n      swap2\n      jump(tag_86)\n    tag_87:\n      dup3\n      add\n      swap2\n      swap1\n      0x00\n      mstore\n      keccak256(0x00, 0x20)\n      swap1\n    tag_88:\n      dup2\n      sload\n      dup2\n      mstore\n      swap1\n      0x01\n      add\n      swap1\n      0x20\n      add\n      dup1\n      dup4\n      gt\n      tag_88\n      jumpi\n      dup3\n      swap1\n      sub\n      0x1f\n      and\n      dup3\n      add\n      swap2\n    tag_86:\n      pop\n      pop\n      pop\n      pop\n      pop\n      swap1\n      dup1\n      0x02\n      add\n      sload\n      swap1\n      dup1\n      0x03\n      add\n      sload\n      swap1\n      pop\n      dup5\n      jump\t// out\n        /* \"#utility.yul\":7:145   */\n    tag_89:\n        /* \"#utility.yul\":98:104   */\n      0x00\n        /* \"#utility.yul\":132:137   */\n      dup2\n        /* \"#utility.yul\":126:138   */\n      mload\n        /* \"#utility.yul\":116:138   */\n      swap1\n      pop\n        /* \"#utility.yul\":7:145   */\n      swap2\n      swap1\n      pop\n      jump\t// out\n        /* \"#utility.yul\":151:359   */\n    tag_90:\n        /* \"#utility.yul\":274:285   */\n      0x00\n        /* \"#utility.yul\":308:314   */\n      dup3\n        /* \"#utility.yul\":303:306   */\n      dup3\n        /* \"#utility.yul\":296:315   */\n      mstore\n        /* \"#utility.yul\":348:352   */\n      0x20\n        /* \"#utility.yul\":343:346   */\n      dup3\n        /* \"#utility.yul\":339:353   */\n      add\n        /* \"#utility.yul\":324:353   */\n      swap1\n      pop\n        /* \"#utility.yul\":151:359   */\n      swap3\n      swap2\n      pop\n      pop\n      jump\t// out\n        /* \"#utility.yul\":365:521   */\n    tag_91:\n        /* \"#utility.yul\":456:460   */\n      0x00\n        /* \"#utility.yul\":479:482   */\n      dup2\n        /* \"#utility.yul\":471:482   */\n      swap1\n      pop\n        /* \"#utility.yul\":509:513   */\n      0x20\n        /* \"#utility.yul\":504:507   */\n      dup3\n        /* \"#utility.yul\":500:514   */\n      add\n        /* \"#utility.yul\":492:514   */\n      swap1\n      pop\n        /* \"#utility.yul\":365:521   */\n      swap2\n      swap1\n      pop\n      jump\t// out\n        /* \"#utility.yul\":527:653   */\n    tag_92:\n        /* \"#utility.yul\":564:571   */\n      0x00\n        /* \"#utility.yul\":604:646   */\n      0xffffffffffffffffffffffffffffffffffffffff\n        /* \"#utility.yul\":597:602   */\n      dup3\n        /* \"#utility.yul\":593:647   */\n      and\n        /* \"#utility.yul\":582:647   */\n      swap1\n      pop\n        /* \"#utility.yul\":527:653   */\n      swap2\n      swap1\n      pop\n      jump\t// out\n        /* \"#utility.yul\":659:755   */\n    tag_93:\n        /* \"#utility.yul\":696:703   */\n      0x00\n        /* \"#utility.yul\":725:749   */\n      tag_153\n        /* \"#utility.yul\":743:748   */\n      dup3\n        /* \"#utility.yul\":725:749   */\n      tag_92\n      jump\t// in\n    tag_153:\n        /* \"#utility.yul\":714:749   */\n      swap1\n      pop\n        /* \"#utility.yul\":659:755   */\n      swap2\n      swap1\n      pop\n      jump\t// out\n        /* \"#utility.yul\":761:869   */\n    tag_94:\n        /* \"#utility.yul\":838:862   */\n      tag_155\n        /* \"#utility.yul\":856:861   */\n      dup2\n        /* \"#utility.yul\":838:862   */\n      tag_93\n      jump\t// in\n    tag_155:\n        /* \"#utility.yul\":833:836   */\n      dup3\n        /* \"#utility.yul\":826:863   */\n      mstore\n        /* \"#utility.yul\":761:869   */\n      pop\n      pop\n      jump\t// out\n        /* \"#utility.yul\":875:974   */\n    tag_95:\n        /* \"#utility.yul\":927:933   */\n      0x00\n        /* \"#utility.yul\":961:966   */\n      dup2\n        /* \"#utility.yul\":955:967   */\n      mload\n        /* \"#utility.yul\":945:967   */\n      swap1\n      pop\n        /* \"#utility.yul\":875:974   */\n      swap2\n      swap1\n      pop\n      jump\t// out\n        /* \"#utility.yul\":980:1139   */\n    tag_96:\n        /* \"#utility.yul\":1054:1065   */\n      0x00\n        /* \"#utility.yul\":1088:1094   */\n      dup3\n        /* \"#utility.yul\":1083:1086   */\n      dup3\n        /* \"#utility.yul\":1076:1095   */\n      mstore\n        /* \"#utility.yul\":1128:1132   */\n      0x20\n        /* \"#utility.yul\":1123:1126   */\n      dup3\n        /* \"#utility.yul\":1119:1133   */\n      add\n        /* \"#utility.yul\":1104:1133   */\n      swap1\n      pop\n        /* \"#utility.yul\":980:1139   */\n      swap3\n      swap2\n      pop\n      pop\n      jump\t// out\n        /* \"#utility.yul\":1145:1284   */\n    tag_97:\n        /* \"#utility.yul\":1234:1240   */\n      dup3\n        /* \"#utility.yul\":1229:1232   */\n      dup2\n        /* \"#utility.yul\":1224:1227   */\n      dup4\n        /* \"#utility.yul\":1218:1241   */\n      mcopy\n        /* \"#utility.yul\":1275:1276   */\n      0x00\n        /* \"#utility.yul\":1266:1272   */\n      dup4\n        /* \"#utility.yul\":1261:1264   */\n      dup4\n        /* \"#utility.yul\":1257:1273   */\n      add\n        /* \"#utility.yul\":1250:1277   */\n      mstore\n        /* \"#utility.yul\":1145:1284   */\n      pop\n      pop\n      pop\n      jump\t// out\n        /* \"#utility.yul\":1290:1392   */\n    tag_98:\n        /* \"#utility.yul\":1331:1337   */\n      0x00\n        /* \"#utility.yul\":1382:1384   */\n      0x1f\n        /* \"#utility.yul\":1378:1385   */\n      not\n        /* \"#utility.yul\":1373:1375   */\n      0x1f\n        /* \"#utility.yul\":1366:1371   */\n      dup4\n        /* \"#utility.yul\":1362:1376   */\n      add\n        /* \"#utility.yul\":1358:1386   */\n      and\n        /* \"#utility.yul\":1348:1386   */\n      swap1\n      pop\n        /* \"#utility.yul\":1290:1392   */\n      swap2\n      swap1\n      pop\n      jump\t// out\n        /* \"#utility.yul\":1398:1755   */\n    tag_99:\n        /* \"#utility.yul\":1476:1479   */\n      0x00\n        /* \"#utility.yul\":1504:1543   */\n      tag_161\n        /* \"#utility.yul\":1537:1542   */\n      dup3\n        /* \"#utility.yul\":1504:1543   */\n      tag_95\n      jump\t// in\n    tag_161:\n        /* \"#utility.yul\":1559:1620   */\n      tag_162\n        /* \"#utility.yul\":1613:1619   */\n      dup2\n        /* \"#utility.yul\":1608:1611   */\n      dup6\n        /* \"#utility.yul\":1559:1620   */\n      tag_96\n      jump\t// in\n    tag_162:\n        /* \"#utility.yul\":1552:1620   */\n      swap4\n      pop\n        /* \"#utility.yul\":1629:1694   */\n      tag_163\n        /* \"#utility.yul\":1687:1693   */\n      dup2\n        /* \"#utility.yul\":1682:1685   */\n      dup6\n        /* \"#utility.yul\":1675:1679   */\n      0x20\n        /* \"#utility.yul\":1668:1673   */\n      dup7\n        /* \"#utility.yul\":1664:1680   */\n      add\n        /* \"#utility.yul\":1629:1694   */\n      tag_97\n      jump\t// in\n    tag_163:\n        /* \"#utility.yul\":1719:1748   */\n      tag_164\n        /* \"#utility.yul\":1741:1747   */\n      dup2\n        /* \"#utility.yul\":1719:1748   */\n      tag_98\n      jump\t// in\n    tag_164:\n        /* \"#utility.yul\":1714:1717   */\n      dup5\n        /* \"#utility.yul\":1710:1749   */\n      add\n        /* \"#utility.yul\":1703:1749   */\n      swap2\n      pop\n        /* \"#utility.yul\":1480:1755   */\n      pop\n        /* \"#utility.yul\":1398:1755   */\n      swap3\n      swap2\n      pop\n      pop\n      jump\t// out\n        /* \"#utility.yul\":1761:1838   */\n    tag_100:\n        /* \"#utility.yul\":1798:1805   */\n      0x00\n        /* \"#utility.yul\":1827:1832   */\n      dup2\n        /* \"#utility.yul\":1816:1832   */\n      swap1\n      pop\n        /* \"#utility.yul\":1761:1838   */\n      swap2\n      swap1\n      pop\n      jump\t// out\n        /* \"#utility.yul\":1844:1952   */\n    tag_101:\n        /* \"#utility.yul\":1921:1945   */\n      tag_167\n        /* \"#utility.yul\":1939:1944   */\n      dup2\n        /* \"#utility.yul\":1921:1945   */\n      tag_100\n      jump\t// in\n    tag_167:\n        /* \"#utility.yul\":1916:1919   */\n      dup3\n        /* \"#utility.yul\":1909:1946   */\n      mstore\n        /* \"#utility.yul\":1844:1952   */\n      pop\n      pop\n      jump\t// out\n        /* \"#utility.yul\":2022:2971   */\n    tag_102:\n        /* \"#utility.yul\":2129:2132   */\n      0x00\n        /* \"#utility.yul\":2165:2169   */\n      0x80\n        /* \"#utility.yul\":2160:2163   */\n      dup4\n        /* \"#utility.yul\":2156:2170   */\n      add\n        /* \"#utility.yul\":2253:2257   */\n      0x00\n        /* \"#utility.yul\":2246:2251   */\n      dup4\n        /* \"#utility.yul\":2242:2258   */\n      add\n        /* \"#utility.yul\":2236:2259   */\n      mload\n        /* \"#utility.yul\":2272:2335   */\n      tag_169\n        /* \"#utility.yul\":2329:2333   */\n      0x00\n        /* \"#utility.yul\":2324:2327   */\n      dup7\n        /* \"#utility.yul\":2320:2334   */\n      add\n        /* \"#utility.yul\":2306:2318   */\n      dup3\n        /* \"#utility.yul\":2272:2335   */\n      tag_94\n      jump\t// in\n    tag_169:\n        /* \"#utility.yul\":2180:2345   */\n      pop\n        /* \"#utility.yul\":2426:2430   */\n      0x20\n        /* \"#utility.yul\":2419:2424   */\n      dup4\n        /* \"#utility.yul\":2415:2431   */\n      add\n        /* \"#utility.yul\":2409:2432   */\n      mload\n        /* \"#utility.yul\":2479:2482   */\n      dup5\n        /* \"#utility.yul\":2473:2477   */\n      dup3\n        /* \"#utility.yul\":2469:2483   */\n      sub\n        /* \"#utility.yul\":2462:2466   */\n      0x20\n        /* \"#utility.yul\":2457:2460   */\n      dup7\n        /* \"#utility.yul\":2453:2467   */\n      add\n        /* \"#utility.yul\":2446:2484   */\n      mstore\n        /* \"#utility.yul\":2505:2578   */\n      tag_170\n        /* \"#utility.yul\":2573:2577   */\n      dup3\n        /* \"#utility.yul\":2559:2571   */\n      dup3\n        /* \"#utility.yul\":2505:2578   */\n      tag_99\n      jump\t// in\n    tag_170:\n        /* \"#utility.yul\":2497:2578   */\n      swap2\n      pop\n        /* \"#utility.yul\":2355:2589   */\n      pop\n        /* \"#utility.yul\":2673:2677   */\n      0x40\n        /* \"#utility.yul\":2666:2671   */\n      dup4\n        /* \"#utility.yul\":2662:2678   */\n      add\n        /* \"#utility.yul\":2656:2679   */\n      mload\n        /* \"#utility.yul\":2692:2755   */\n      tag_171\n        /* \"#utility.yul\":2749:2753   */\n      0x40\n        /* \"#utility.yul\":2744:2747   */\n      dup7\n        /* \"#utility.yul\":2740:2754   */\n      add\n        /* \"#utility.yul\":2726:2738   */\n      dup3\n        /* \"#utility.yul\":2692:2755   */\n      tag_101\n      jump\t// in\n    tag_171:\n        /* \"#utility.yul\":2599:2765   */\n      pop\n        /* \"#utility.yul\":2852:2856   */\n      0x60\n        /* \"#utility.yul\":2845:2850   */\n      dup4\n        /* \"#utility.yul\":2841:2857   */\n      add\n        /* \"#utility.yul\":2835:2858   */\n      mload\n        /* \"#utility.yul\":2871:2934   */\n      tag_172\n        /* \"#utility.yul\":2928:2932   */\n      0x60\n        /* \"#utility.yul\":2923:2926   */\n      dup7\n        /* \"#utility.yul\":2919:2933   */\n      add\n        /* \"#utility.yul\":2905:2917   */\n      dup3\n        /* \"#utility.yul\":2871:2934   */\n      tag_101\n      jump\t// in\n    tag_172:\n        /* \"#utility.yul\":2775:2944   */\n      pop\n        /* \"#utility.yul\":2961:2965   */\n      dup1\n        /* \"#utility.yul\":2954:2965   */\n      swap2\n      pop\n        /* \"#utility.yul\":2134:2971   */\n      pop\n        /* \"#utility.yul\":2022:2971   */\n      swap3\n      swap2\n      pop\n      pop\n      jump\t// out\n        /* \"#utility.yul\":2977:3229   */\n    tag_103:\n        /* \"#utility.yul\":3094:3104   */\n      0x00\n        /* \"#utility.yul\":3129:3223   */\n      tag_174\n        /* \"#utility.yul\":3219:3222   */\n      dup4\n        /* \"#utility.yul\":3211:3217   */\n      dup4\n        /* \"#utility.yul\":3129:3223   */\n      tag_102\n      jump\t// in\n    tag_174:\n        /* \"#utility.yul\":3115:3223   */\n      swap1\n      pop\n        /* \"#utility.yul\":2977:3229   */\n      swap3\n      swap2\n      pop\n      pop\n      jump\t// out\n        /* \"#utility.yul\":3235:3372   */\n    tag_104:\n        /* \"#utility.yul\":3329:3333   */\n      0x00\n        /* \"#utility.yul\":3361:3365   */\n      0x20\n        /* \"#utility.yul\":3356:3359   */\n      dup3\n        /* \"#utility.yul\":3352:3366   */\n      add\n        /* \"#utility.yul\":3344:3366   */\n      swap1\n      pop\n        /* \"#utility.yul\":3235:3372   */\n      swap2\n      swap1\n      pop\n      jump\t// out\n        /* \"#utility.yul\":3446:4549   */\n    tag_105:\n        /* \"#utility.yul\":3613:3616   */\n      0x00\n        /* \"#utility.yul\":3642:3720   */\n      tag_177\n        /* \"#utility.yul\":3714:3719   */\n      dup3\n        /* \"#utility.yul\":3642:3720   */\n      tag_89\n      jump\t// in\n    tag_177:\n        /* \"#utility.yul\":3736:3846   */\n      tag_178\n        /* \"#utility.yul\":3839:3845   */\n      dup2\n        /* \"#utility.yul\":3834:3837   */\n      dup6\n        /* \"#utility.yul\":3736:3846   */\n      tag_90\n      jump\t// in\n    tag_178:\n        /* \"#utility.yul\":3729:3846   */\n      swap4\n      pop\n        /* \"#utility.yul\":3872:3875   */\n      dup4\n        /* \"#utility.yul\":3917:3921   */\n      0x20\n        /* \"#utility.yul\":3909:3915   */\n      dup3\n        /* \"#utility.yul\":3905:3922   */\n      mul\n        /* \"#utility.yul\":3900:3903   */\n      dup6\n        /* \"#utility.yul\":3896:3923   */\n      add\n        /* \"#utility.yul\":3947:4027   */\n      tag_179\n        /* \"#utility.yul\":4021:4026   */\n      dup6\n        /* \"#utility.yul\":3947:4027   */\n      tag_91\n      jump\t// in\n    tag_179:\n        /* \"#utility.yul\":4050:4057   */\n      dup1\n        /* \"#utility.yul\":4081:4082   */\n      0x00\n        /* \"#utility.yul\":4066:4504   */\n    tag_180:\n        /* \"#utility.yul\":4091:4097   */\n      dup6\n        /* \"#utility.yul\":4088:4089   */\n      dup2\n        /* \"#utility.yul\":4085:4098   */\n      lt\n        /* \"#utility.yul\":4066:4504   */\n      iszero\n      tag_182\n      jumpi\n        /* \"#utility.yul\":4162:4171   */\n      dup5\n        /* \"#utility.yul\":4156:4160   */\n      dup5\n        /* \"#utility.yul\":4152:4172   */\n      sub\n        /* \"#utility.yul\":4147:4150   */\n      dup10\n        /* \"#utility.yul\":4140:4173   */\n      mstore\n        /* \"#utility.yul\":4213:4219   */\n      dup2\n        /* \"#utility.yul\":4207:4220   */\n      mload\n        /* \"#utility.yul\":4241:4353   */\n      tag_183\n        /* \"#utility.yul\":4348:4352   */\n      dup6\n        /* \"#utility.yul\":4333:4346   */\n      dup3\n        /* \"#utility.yul\":4241:4353   */\n      tag_103\n      jump\t// in\n    tag_183:\n        /* \"#utility.yul\":4233:4353   */\n      swap5\n      pop\n        /* \"#utility.yul\":4376:4460   */\n      tag_184\n        /* \"#utility.yul\":4453:4459   */\n      dup4\n        /* \"#utility.yul\":4376:4460   */\n      tag_104\n      jump\t// in\n    tag_184:\n        /* \"#utility.yul\":4366:4460   */\n      swap3\n      pop\n        /* \"#utility.yul\":4489:4493   */\n      0x20\n        /* \"#utility.yul\":4484:4487   */\n      dup11\n        /* \"#utility.yul\":4480:4494   */\n      add\n        /* \"#utility.yul\":4473:4494   */\n      swap10\n      pop\n        /* \"#utility.yul\":4126:4504   */\n      pop\n        /* \"#utility.yul\":4113:4114   */\n      0x01\n        /* \"#utility.yul\":4110:4111   */\n      dup2\n        /* \"#utility.yul\":4106:4115   */\n      add\n        /* \"#utility.yul\":4101:4115   */\n      swap1\n      pop\n        /* \"#utility.yul\":4066:4504   */\n      jump(tag_180)\n    tag_182:\n        /* \"#utility.yul\":4070:4084   */\n      pop\n        /* \"#utility.yul\":4520:4524   */\n      dup3\n        /* \"#utility.yul\":4513:4524   */\n      swap8\n      pop\n        /* \"#utility.yul\":4540:4543   */\n      dup8\n        /* \"#utility.yul\":4533:4543   */\n      swap6\n      pop\n        /* \"#utility.yul\":3618:4549   */\n      pop\n      pop\n      pop\n      pop\n      pop\n        /* \"#utility.yul\":3446:4549   */\n      swap3\n      swap2\n      pop\n      pop\n      jump\t// out\n        /* \"#utility.yul\":4555:5024   */\n    tag_12:\n        /* \"#utility.yul\":4746:4750   */\n      0x00\n        /* \"#utility.yul\":4784:4786   */\n      0x20\n        /* \"#utility.yul\":4773:4782   */\n      dup3\n        /* \"#utility.yul\":4769:4787   */\n      add\n        /* \"#utility.yul\":4761:4787   */\n      swap1\n      pop\n        /* \"#utility.yul\":4833:4842   */\n      dup2\n        /* \"#utility.yul\":4827:4831   */\n      dup2\n        /* \"#utility.yul\":4823:4843   */\n      sub\n        /* \"#utility.yul\":4819:4820   */\n      0x00\n        /* \"#utility.yul\":4808:4817   */\n      dup4\n        /* \"#utility.yul\":4804:4821   */\n      add\n        /* \"#utility.yul\":4797:4844   */\n      mstore\n        /* \"#utility.yul\":4861:5017   */\n      tag_186\n        /* \"#utility.yul\":5012:5016   */\n      dup2\n        /* \"#utility.yul\":5003:5009   */\n      dup5\n        /* \"#utility.yul\":4861:5017   */\n      tag_105\n      jump\t// in\n    tag_186:\n        /* \"#utility.yul\":4853:5017   */\n      swap1\n      pop\n        /* \"#utility.yul\":4555:5024   */\n      swap3\n      swap2\n      pop\n      pop\n      jump\t// out\n        /* \"#utility.yul\":5030:5105   */\n    tag_106:\n        /* \"#utility.yul\":5063:5069   */\n      0x00\n        /* \"#utility.yul\":5096:5098   */\n      0x40\n        /* \"#utility.yul\":5090:5099   */\n      mload\n        /* \"#utility.yul\":5080:5099   */\n      swap1\n      pop\n        /* \"#utility.yul\":5030:5105   */\n      swap1\n      jump\t// out\n        /* \"#utility.yul\":5111:5228   */\n    tag_107:\n        /* \"#utility.yul\":5220:5221   */\n      0x00\n        /* \"#utility.yul\":5217:5218   */\n      0x00\n        /* \"#utility.yul\":5210:5222   */\n      revert\n        /* \"#utility.yul\":5234:5351   */\n    tag_108:\n        /* \"#utility.yul\":5343:5344   */\n      0x00\n        /* \"#utility.yul\":5340:5341   */\n      0x00\n        /* \"#utility.yul\":5333:5345   */\n      revert\n        /* \"#utility.yul\":5357:5479   */\n    tag_109:\n        /* \"#utility.yul\":5430:5454   */\n      tag_191\n        /* \"#utility.yul\":5448:5453   */\n      dup2\n        /* \"#utility.yul\":5430:5454   */\n      tag_100\n      jump\t// in\n    tag_191:\n        /* \"#utility.yul\":5423:5428   */\n      dup2\n        /* \"#utility.yul\":5420:5455   */\n      eq\n        /* \"#utility.yul\":5410:5473   */\n      tag_192\n      jumpi\n        /* \"#utility.yul\":5469:5470   */\n      0x00\n        /* \"#utility.yul\":5466:5467   */\n      0x00\n        /* \"#utility.yul\":5459:5471   */\n      revert\n        /* \"#utility.yul\":5410:5473   */\n    tag_192:\n        /* \"#utility.yul\":5357:5479   */\n      pop\n      jump\t// out\n        /* \"#utility.yul\":5485:5624   */\n    tag_110:\n        /* \"#utility.yul\":5531:5536   */\n      0x00\n        /* \"#utility.yul\":5569:5575   */\n      dup2\n        /* \"#utility.yul\":5556:5576   */\n      calldataload\n        /* \"#utility.yul\":5547:5576   */\n      swap1\n      pop\n        /* \"#utility.yul\":5585:5618   */\n      tag_194\n        /* \"#utility.yul\":5612:5617   */\n      dup2\n        /* \"#utility.yul\":5585:5618   */\n      tag_109\n      jump\t// in\n    tag_194:\n        /* \"#utility.yul\":5485:5624   */\n      swap3\n      swap2\n      pop\n      pop\n      jump\t// out\n        /* \"#utility.yul\":5630:5959   */\n    tag_15:\n        /* \"#utility.yul\":5689:5695   */\n      0x00\n        /* \"#utility.yul\":5738:5740   */\n      0x20\n        /* \"#utility.yul\":5726:5735   */\n      dup3\n        /* \"#utility.yul\":5717:5724   */\n      dup5\n        /* \"#utility.yul\":5713:5736   */\n      sub\n        /* \"#utility.yul\":5709:5741   */\n      slt\n        /* \"#utility.yul\":5706:5825   */\n      iszero\n      tag_196\n      jumpi\n        /* \"#utility.yul\":5744:5823   */\n      tag_197\n      tag_107\n      jump\t// in\n    tag_197:\n        /* \"#utility.yul\":5706:5825   */\n    tag_196:\n        /* \"#utility.yul\":5864:5865   */\n      0x00\n        /* \"#utility.yul\":5889:5942   */\n      tag_198\n        /* \"#utility.yul\":5934:5941   */\n      dup5\n        /* \"#utility.yul\":5925:5931   */\n      dup3\n        /* \"#utility.yul\":5914:5923   */\n      dup6\n        /* \"#utility.yul\":5910:5932   */\n      add\n        /* \"#utility.yul\":5889:5942   */\n      tag_110\n      jump\t// in\n    tag_198:\n        /* \"#utility.yul\":5879:5942   */\n      swap2\n      pop\n        /* \"#utility.yul\":5835:5952   */\n      pop\n        /* \"#utility.yul\":5630:5959   */\n      swap3\n      swap2\n      pop\n      pop\n      jump\t// out\n        /* \"#utility.yul\":5965:6134   */\n    tag_111:\n        /* \"#utility.yul\":6049:6060   */\n      0x00\n        /* \"#utility.yul\":6083:6089   */\n      dup3\n        /* \"#utility.yul\":6078:6081   */\n      dup3\n        /* \"#utility.yul\":6071:6090   */\n      mstore\n        /* \"#utility.yul\":6123:6127   */\n      0x20\n        /* \"#utility.yul\":6118:6121   */\n      dup3\n        /* \"#utility.yul\":6114:6128   */\n      add\n        /* \"#utility.yul\":6099:6128   */\n      swap1\n      pop\n        /* \"#utility.yul\":5965:6134   */\n      swap3\n      swap2\n      pop\n      pop\n      jump\t// out\n        /* \"#utility.yul\":6140:6517   */\n    tag_112:\n        /* \"#utility.yul\":6228:6231   */\n      0x00\n        /* \"#utility.yul\":6256:6295   */\n      tag_201\n        /* \"#utility.yul\":6289:6294   */\n      dup3\n        /* \"#utility.yul\":6256:6295   */\n      tag_95\n      jump\t// in\n    tag_201:\n        /* \"#utility.yul\":6311:6382   */\n      tag_202\n        /* \"#utility.yul\":6375:6381   */\n      dup2\n        /* \"#utility.yul\":6370:6373   */\n      dup6\n        /* \"#utility.yul\":6311:6382   */\n      tag_111\n      jump\t// in\n    tag_202:\n        /* \"#utility.yul\":6304:6382   */\n      swap4\n      pop\n        /* \"#utility.yul\":6391:6456   */\n      tag_203\n        /* \"#utility.yul\":6449:6455   */\n      dup2\n        /* \"#utility.yul\":6444:6447   */\n      dup6\n        /* \"#utility.yul\":6437:6441   */\n      0x20\n        /* \"#utility.yul\":6430:6435   */\n      dup7\n        /* \"#utility.yul\":6426:6442   */\n      add\n        /* \"#utility.yul\":6391:6456   */\n      tag_97\n      jump\t// in\n    tag_203:\n        /* \"#utility.yul\":6481:6510   */\n      tag_204\n        /* \"#utility.yul\":6503:6509   */\n      dup2\n        /* \"#utility.yul\":6481:6510   */\n      tag_98\n      jump\t// in\n    tag_204:\n        /* \"#utility.yul\":6476:6479   */\n      dup5\n        /* \"#utility.yul\":6472:6511   */\n      add\n        /* \"#utility.yul\":6465:6511   */\n      swap2\n      pop\n        /* \"#utility.yul\":6232:6517   */\n      pop\n        /* \"#utility.yul\":6140:6517   */\n      swap3\n      swap2\n      pop\n      pop\n      jump\t// out\n        /* \"#utility.yul\":6523:6641   */\n    tag_113:\n        /* \"#utility.yul\":6610:6634   */\n      tag_206\n        /* \"#utility.yul\":6628:6633   */\n      dup2\n        /* \"#utility.yul\":6610:6634   */\n      tag_100\n      jump\t// in\n    tag_206:\n        /* \"#utility.yul\":6605:6608   */\n      dup3\n        /* \"#utility.yul\":6598:6635   */\n      mstore\n        /* \"#utility.yul\":6523:6641   */\n      pop\n      pop\n      jump\t// out\n        /* \"#utility.yul\":6647:7382   */\n    tag_18:\n        /* \"#utility.yul\":6864:6868   */\n      0x00\n        /* \"#utility.yul\":6902:6905   */\n      0x80\n        /* \"#utility.yul\":6891:6900   */\n      dup3\n        /* \"#utility.yul\":6887:6906   */\n      add\n        /* \"#utility.yul\":6879:6906   */\n      swap1\n      pop\n        /* \"#utility.yul\":6952:6961   */\n      dup2\n        /* \"#utility.yul\":6946:6950   */\n      dup2\n        /* \"#utility.yul\":6942:6962   */\n      sub\n        /* \"#utility.yul\":6938:6939   */\n      0x00\n        /* \"#utility.yul\":6927:6936   */\n      dup4\n        /* \"#utility.yul\":6923:6940   */\n      add\n        /* \"#utility.yul\":6916:6963   */\n      mstore\n        /* \"#utility.yul\":6980:7058   */\n      tag_208\n        /* \"#utility.yul\":7053:7057   */\n      dup2\n        /* \"#utility.yul\":7044:7050   */\n      dup8\n        /* \"#utility.yul\":6980:7058   */\n      tag_112\n      jump\t// in\n    tag_208:\n        /* \"#utility.yul\":6972:7058   */\n      swap1\n      pop\n        /* \"#utility.yul\":7105:7114   */\n      dup2\n        /* \"#utility.yul\":7099:7103   */\n      dup2\n        /* \"#utility.yul\":7095:7115   */\n      sub\n        /* \"#utility.yul\":7090:7092   */\n      0x20\n        /* \"#utility.yul\":7079:7088   */\n      dup4\n        /* \"#utility.yul\":7075:7093   */\n      add\n        /* \"#utility.yul\":7068:7116   */\n      mstore\n        /* \"#utility.yul\":7133:7211   */\n      tag_209\n        /* \"#utility.yul\":7206:7210   */\n      dup2\n        /* \"#utility.yul\":7197:7203   */\n      dup7\n        /* \"#utility.yul\":7133:7211   */\n      tag_112\n      jump\t// in\n    tag_209:\n        /* \"#utility.yul\":7125:7211   */\n      swap1\n      pop\n        /* \"#utility.yul\":7221:7293   */\n      tag_210\n        /* \"#utility.yul\":7289:7291   */\n      0x40\n        /* \"#utility.yul\":7278:7287   */\n      dup4\n        /* \"#utility.yul\":7274:7292   */\n      add\n        /* \"#utility.yul\":7265:7271   */\n      dup6\n        /* \"#utility.yul\":7221:7293   */\n      tag_113\n      jump\t// in\n    tag_210:\n        /* \"#utility.yul\":7303:7375   */\n      tag_211\n        /* \"#utility.yul\":7371:7373   */\n      0x60\n        /* \"#utility.yul\":7360:7369   */\n      dup4\n        /* \"#utility.yul\":7356:7374   */\n      add\n        /* \"#utility.yul\":7347:7353   */\n      dup5\n        /* \"#utility.yul\":7303:7375   */\n      tag_113\n      jump\t// in\n    tag_211:\n        /* \"#utility.yul\":6647:7382   */\n      swap6\n      swap5\n      pop\n      pop\n      pop\n      pop\n      pop\n      jump\t// out\n        /* \"#utility.yul\":7388:7505   */\n    tag_114:\n        /* \"#utility.yul\":7497:7498   */\n      0x00\n        /* \"#utility.yul\":7494:7495   */\n      0x00\n        /* \"#utility.yul\":7487:7499   */\n      revert\n        /* \"#utility.yul\":7511:7628   */\n    tag_115:\n        /* \"#utility.yul\":7620:7621   */\n      0x00\n        /* \"#utility.yul\":7617:7618   */\n      0x00\n        /* \"#utility.yul\":7610:7622   */\n      revert\n        /* \"#utility.yul\":7634:7814   */\n    tag_116:\n        /* \"#utility.yul\":7682:7759   */\n      0x4e487b7100000000000000000000000000000000000000000000000000000000\n        /* \"#utility.yul\":7679:7680   */\n      0x00\n        /* \"#utility.yul\":7672:7760   */\n      mstore\n        /* \"#utility.yul\":7779:7783   */\n      0x41\n        /* \"#utility.yul\":7776:7777   */\n      0x04\n        /* \"#utility.yul\":7769:7784   */\n      mstore\n        /* \"#utility.yul\":7803:7807   */\n      0x24\n        /* \"#utility.yul\":7800:7801   */\n      0x00\n        /* \"#utility.yul\":7793:7808   */\n      revert\n        /* \"#utility.yul\":7820:8101   */\n    tag_117:\n        /* \"#utility.yul\":7903:7930   */\n      tag_216\n        /* \"#utility.yul\":7925:7929   */\n      dup3\n        /* \"#utility.yul\":7903:7930   */\n      tag_98\n      jump\t// in\n    tag_216:\n        /* \"#utility.yul\":7895:7901   */\n      dup2\n        /* \"#utility.yul\":7891:7931   */\n      add\n        /* \"#utility.yul\":8033:8039   */\n      dup2\n        /* \"#utility.yul\":8021:8031   */\n      dup2\n        /* \"#utility.yul\":8018:8040   */\n      lt\n        /* \"#utility.yul\":7997:8015   */\n      0xffffffffffffffff\n        /* \"#utility.yul\":7985:7995   */\n      dup3\n        /* \"#utility.yul\":7982:8016   */\n      gt\n        /* \"#utility.yul\":7979:8041   */\n      or\n        /* \"#utility.yul\":7976:8064   */\n      iszero\n      tag_217\n      jumpi\n        /* \"#utility.yul\":8044:8062   */\n      tag_218\n      tag_116\n      jump\t// in\n    tag_218:\n        /* \"#utility.yul\":7976:8064   */\n    tag_217:\n        /* \"#utility.yul\":8084:8094   */\n      dup1\n        /* \"#utility.yul\":8080:8082   */\n      0x40\n        /* \"#utility.yul\":8073:8095   */\n      mstore\n        /* \"#utility.yul\":7863:8101   */\n      pop\n        /* \"#utility.yul\":7820:8101   */\n      pop\n      pop\n      jump\t// out\n        /* \"#utility.yul\":8107:8236   */\n    tag_118:\n        /* \"#utility.yul\":8141:8147   */\n      0x00\n        /* \"#utility.yul\":8168:8188   */\n      tag_220\n      tag_106\n      jump\t// in\n    tag_220:\n        /* \"#utility.yul\":8158:8188   */\n      swap1\n      pop\n        /* \"#utility.yul\":8197:8230   */\n      tag_221\n        /* \"#utility.yul\":8225:8229   */\n      dup3\n        /* \"#utility.yul\":8217:8223   */\n      dup3\n        /* \"#utility.yul\":8197:8230   */\n      tag_117\n      jump\t// in\n    tag_221:\n        /* \"#utility.yul\":8107:8236   */\n      swap2\n      swap1\n      pop\n      jump\t// out\n        /* \"#utility.yul\":8242:8550   */\n    tag_119:\n        /* \"#utility.yul\":8304:8308   */\n      0x00\n        /* \"#utility.yul\":8394:8412   */\n      0xffffffffffffffff\n        /* \"#utility.yul\":8386:8392   */\n      dup3\n        /* \"#utility.yul\":8383:8413   */\n      gt\n        /* \"#utility.yul\":8380:8436   */\n      iszero\n      tag_223\n      jumpi\n        /* \"#utility.yul\":8416:8434   */\n      tag_224\n      tag_116\n      jump\t// in\n    tag_224:\n        /* \"#utility.yul\":8380:8436   */\n    tag_223:\n        /* \"#utility.yul\":8454:8483   */\n      tag_225\n        /* \"#utility.yul\":8476:8482   */\n      dup3\n        /* \"#utility.yul\":8454:8483   */\n      tag_98\n      jump\t// in\n    tag_225:\n        /* \"#utility.yul\":8446:8483   */\n      swap1\n      pop\n        /* \"#utility.yul\":8538:8542   */\n      0x20\n        /* \"#utility.yul\":8532:8536   */\n      dup2\n        /* \"#utility.yul\":8528:8543   */\n      add\n        /* \"#utility.yul\":8520:8543   */\n      swap1\n      pop\n        /* \"#utility.yul\":8242:8550   */\n      swap2\n      swap1\n      pop\n      jump\t// out\n        /* \"#utility.yul\":8556:8704   */\n    tag_120:\n        /* \"#utility.yul\":8654:8660   */\n      dup3\n        /* \"#utility.yul\":8649:8652   */\n      dup2\n        /* \"#utility.yul\":8644:8647   */\n      dup4\n        /* \"#utility.yul\":8631:8661   */\n      calldatacopy\n        /* \"#utility.yul\":8695:8696   */\n      0x00\n        /* \"#utility.yul\":8686:8692   */\n      dup4\n        /* \"#utility.yul\":8681:8684   */\n      dup4\n        /* \"#utility.yul\":8677:8693   */\n      add\n        /* \"#utility.yul\":8670:8697   */\n      mstore\n        /* \"#utility.yul\":8556:8704   */\n      pop\n      pop\n      pop\n      jump\t// out\n        /* \"#utility.yul\":8710:9135   */\n    tag_121:\n        /* \"#utility.yul\":8788:8793   */\n      0x00\n        /* \"#utility.yul\":8813:8879   */\n      tag_228\n        /* \"#utility.yul\":8829:8878   */\n      tag_229\n        /* \"#utility.yul\":8871:8877   */\n      dup5\n        /* \"#utility.yul\":8829:8878   */\n      tag_119\n      jump\t// in\n    tag_229:\n        /* \"#utility.yul\":8813:8879   */\n      tag_118\n      jump\t// in\n    tag_228:\n        /* \"#utility.yul\":8804:8879   */\n      swap1\n      pop\n        /* \"#utility.yul\":8902:8908   */\n      dup3\n        /* \"#utility.yul\":8895:8900   */\n      dup2\n        /* \"#utility.yul\":8888:8909   */\n      mstore\n        /* \"#utility.yul\":8940:8944   */\n      0x20\n        /* \"#utility.yul\":8933:8938   */\n      dup2\n        /* \"#utility.yul\":8929:8945   */\n      add\n        /* \"#utility.yul\":8978:8981   */\n      dup5\n        /* \"#utility.yul\":8969:8975   */\n      dup5\n        /* \"#utility.yul\":8964:8967   */\n      dup5\n        /* \"#utility.yul\":8960:8976   */\n      add\n        /* \"#utility.yul\":8957:8982   */\n      gt\n        /* \"#utility.yul\":8954:9066   */\n      iszero\n      tag_230\n      jumpi\n        /* \"#utility.yul\":8985:9064   */\n      tag_231\n      tag_115\n      jump\t// in\n    tag_231:\n        /* \"#utility.yul\":8954:9066   */\n    tag_230:\n        /* \"#utility.yul\":9075:9129   */\n      tag_232\n        /* \"#utility.yul\":9122:9128   */\n      dup5\n        /* \"#utility.yul\":9117:9120   */\n      dup3\n        /* \"#utility.yul\":9112:9115   */\n      dup6\n        /* \"#utility.yul\":9075:9129   */\n      tag_120\n      jump\t// in\n    tag_232:\n        /* \"#utility.yul\":8794:9135   */\n      pop\n        /* \"#utility.yul\":8710:9135   */\n      swap4\n      swap3\n      pop\n      pop\n      pop\n      jump\t// out\n        /* \"#utility.yul\":9155:9495   */\n    tag_122:\n        /* \"#utility.yul\":9211:9216   */\n      0x00\n        /* \"#utility.yul\":9260:9263   */\n      dup3\n        /* \"#utility.yul\":9253:9257   */\n      0x1f\n        /* \"#utility.yul\":9245:9251   */\n      dup4\n        /* \"#utility.yul\":9241:9258   */\n      add\n        /* \"#utility.yul\":9237:9264   */\n      slt\n        /* \"#utility.yul\":9227:9349   */\n      tag_234\n      jumpi\n        /* \"#utility.yul\":9268:9347   */\n      tag_235\n      tag_114\n      jump\t// in\n    tag_235:\n        /* \"#utility.yul\":9227:9349   */\n    tag_234:\n        /* \"#utility.yul\":9385:9391   */\n      dup2\n        /* \"#utility.yul\":9372:9392   */\n      calldataload\n        /* \"#utility.yul\":9410:9489   */\n      tag_236\n        /* \"#utility.yul\":9485:9488   */\n      dup5\n        /* \"#utility.yul\":9477:9483   */\n      dup3\n        /* \"#utility.yul\":9470:9474   */\n      0x20\n        /* \"#utility.yul\":9462:9468   */\n      dup7\n        /* \"#utility.yul\":9458:9475   */\n      add\n        /* \"#utility.yul\":9410:9489   */\n      tag_121\n      jump\t// in\n    tag_236:\n        /* \"#utility.yul\":9401:9489   */\n      swap2\n      pop\n        /* \"#utility.yul\":9217:9495   */\n      pop\n        /* \"#utility.yul\":9155:9495   */\n      swap3\n      swap2\n      pop\n      pop\n      jump\t// out\n        /* \"#utility.yul\":9501:10155   */\n    tag_21:\n        /* \"#utility.yul\":9579:9585   */\n      0x00\n        /* \"#utility.yul\":9587:9593   */\n      0x00\n        /* \"#utility.yul\":9636:9638   */\n      0x40\n        /* \"#utility.yul\":9624:9633   */\n      dup4\n        /* \"#utility.yul\":9615:9622   */\n      dup6\n        /* \"#utility.yul\":9611:9634   */\n      sub\n        /* \"#utility.yul\":9607:9639   */\n      slt\n        /* \"#utility.yul\":9604:9723   */\n      iszero\n      tag_238\n      jumpi\n        /* \"#utility.yul\":9642:9721   */\n      tag_239\n      tag_107\n      jump\t// in\n    tag_239:\n        /* \"#utility.yul\":9604:9723   */\n    tag_238:\n        /* \"#utility.yul\":9790:9791   */\n      0x00\n        /* \"#utility.yul\":9779:9788   */\n      dup4\n        /* \"#utility.yul\":9775:9792   */\n      add\n        /* \"#utility.yul\":9762:9793   */\n      calldataload\n        /* \"#utility.yul\":9820:9838   */\n      0xffffffffffffffff\n        /* \"#utility.yul\":9812:9818   */\n      dup2\n        /* \"#utility.yul\":9809:9839   */\n      gt\n        /* \"#utility.yul\":9806:9923   */\n      iszero\n      tag_240\n      jumpi\n        /* \"#utility.yul\":9842:9921   */\n      tag_241\n      tag_108\n      jump\t// in\n    tag_241:\n        /* \"#utility.yul\":9806:9923   */\n    tag_240:\n        /* \"#utility.yul\":9947:10010   */\n      tag_242\n        /* \"#utility.yul\":10002:10009   */\n      dup6\n        /* \"#utility.yul\":9993:9999   */\n      dup3\n        /* \"#utility.yul\":9982:9991   */\n      dup7\n        /* \"#utility.yul\":9978:10000   */\n      add\n        /* \"#utility.yul\":9947:10010   */\n      tag_122\n      jump\t// in\n    tag_242:\n        /* \"#utility.yul\":9937:10010   */\n      swap3\n      pop\n        /* \"#utility.yul\":9733:10020   */\n      pop\n        /* \"#utility.yul\":10059:10061   */\n      0x20\n        /* \"#utility.yul\":10085:10138   */\n      tag_243\n        /* \"#utility.yul\":10130:10137   */\n      dup6\n        /* \"#utility.yul\":10121:10127   */\n      dup3\n        /* \"#utility.yul\":10110:10119   */\n      dup7\n        /* \"#utility.yul\":10106:10128   */\n      add\n        /* \"#utility.yul\":10085:10138   */\n      tag_110\n      jump\t// in\n    tag_243:\n        /* \"#utility.yul\":10075:10138   */\n      swap2\n      pop\n        /* \"#utility.yul\":10030:10148   */\n      pop\n        /* \"#utility.yul\":9501:10155   */\n      swap3\n      pop\n      swap3\n      swap1\n      pop\n      jump\t// out\n        /* \"#utility.yul\":10161:10303   */\n    tag_123:\n        /* \"#utility.yul\":10256:10262   */\n      0x00\n        /* \"#utility.yul\":10290:10295   */\n      dup2\n        /* \"#utility.yul\":10284:10296   */\n      mload\n        /* \"#utility.yul\":10274:10296   */\n      swap1\n      pop\n        /* \"#utility.yul\":10161:10303   */\n      swap2\n      swap1\n      pop\n      jump\t// out\n        /* \"#utility.yul\":10309:10521   */\n    tag_124:\n        /* \"#utility.yul\":10436:10447   */\n      0x00\n        /* \"#utility.yul\":10470:10476   */\n      dup3\n        /* \"#utility.yul\":10465:10468   */\n      dup3\n        /* \"#utility.yul\":10458:10477   */\n      mstore\n        /* \"#utility.yul\":10510:10514   */\n      0x20\n        /* \"#utility.yul\":10505:10508   */\n      dup3\n        /* \"#utility.yul\":10501:10515   */\n      add\n        /* \"#utility.yul\":10486:10515   */\n      swap1\n      pop\n        /* \"#utility.yul\":10309:10521   */\n      swap3\n      swap2\n      pop\n      pop\n      jump\t// out\n        /* \"#utility.yul\":10527:10687   */\n    tag_125:\n        /* \"#utility.yul\":10622:10626   */\n      0x00\n        /* \"#utility.yul\":10645:10648   */\n      dup2\n        /* \"#utility.yul\":10637:10648   */\n      swap1\n      pop\n        /* \"#utility.yul\":10675:10679   */\n      0x20\n        /* \"#utility.yul\":10670:10673   */\n      dup3\n        /* \"#utility.yul\":10666:10680   */\n      add\n        /* \"#utility.yul\":10658:10680   */\n      swap1\n      pop\n        /* \"#utility.yul\":10527:10687   */\n      swap2\n      swap1\n      pop\n      jump\t// out\n        /* \"#utility.yul\":10765:11796   */\n    tag_126:\n        /* \"#utility.yul\":10880:10883   */\n      0x00\n        /* \"#utility.yul\":10916:10920   */\n      0x80\n        /* \"#utility.yul\":10911:10914   */\n      dup4\n        /* \"#utility.yul\":10907:10921   */\n      add\n        /* \"#utility.yul\":11002:11006   */\n      0x00\n        /* \"#utility.yul\":10995:11000   */\n      dup4\n        /* \"#utility.yul\":10991:11007   */\n      add\n        /* \"#utility.yul\":10985:11008   */\n      mload\n        /* \"#utility.yul\":11055:11058   */\n      dup5\n        /* \"#utility.yul\":11049:11053   */\n      dup3\n        /* \"#utility.yul\":11045:11059   */\n      sub\n        /* \"#utility.yul\":11038:11042   */\n      0x00\n        /* \"#utility.yul\":11033:11036   */\n      dup7\n        /* \"#utility.yul\":11029:11043   */\n      add\n        /* \"#utility.yul\":11022:11060   */\n      mstore\n        /* \"#utility.yul\":11081:11154   */\n      tag_248\n        /* \"#utility.yul\":11149:11153   */\n      dup3\n        /* \"#utility.yul\":11135:11147   */\n      dup3\n        /* \"#utility.yul\":11081:11154   */\n      tag_99\n      jump\t// in\n    tag_248:\n        /* \"#utility.yul\":11073:11154   */\n      swap2\n      pop\n        /* \"#utility.yul\":10931:11165   */\n      pop\n        /* \"#utility.yul\":11251:11255   */\n      0x20\n        /* \"#utility.yul\":11244:11249   */\n      dup4\n        /* \"#utility.yul\":11240:11256   */\n      add\n        /* \"#utility.yul\":11234:11257   */\n      mload\n        /* \"#utility.yul\":11304:11307   */\n      dup5\n        /* \"#utility.yul\":11298:11302   */\n      dup3\n        /* \"#utility.yul\":11294:11308   */\n      sub\n        /* \"#utility.yul\":11287:11291   */\n      0x20\n        /* \"#utility.yul\":11282:11285   */\n      dup7\n        /* \"#utility.yul\":11278:11292   */\n      add\n        /* \"#utility.yul\":11271:11309   */\n      mstore\n        /* \"#utility.yul\":11330:11403   */\n      tag_249\n        /* \"#utility.yul\":11398:11402   */\n      dup3\n        /* \"#utility.yul\":11384:11396   */\n      dup3\n        /* \"#utility.yul\":11330:11403   */\n      tag_99\n      jump\t// in\n    tag_249:\n        /* \"#utility.yul\":11322:11403   */\n      swap2\n      pop\n        /* \"#utility.yul\":11175:11414   */\n      pop\n        /* \"#utility.yul\":11498:11502   */\n      0x40\n        /* \"#utility.yul\":11491:11496   */\n      dup4\n        /* \"#utility.yul\":11487:11503   */\n      add\n        /* \"#utility.yul\":11481:11504   */\n      mload\n        /* \"#utility.yul\":11517:11580   */\n      tag_250\n        /* \"#utility.yul\":11574:11578   */\n      0x40\n        /* \"#utility.yul\":11569:11572   */\n      dup7\n        /* \"#utility.yul\":11565:11579   */\n      add\n        /* \"#utility.yul\":11551:11563   */\n      dup3\n        /* \"#utility.yul\":11517:11580   */\n      tag_101\n      jump\t// in\n    tag_250:\n        /* \"#utility.yul\":11424:11590   */\n      pop\n        /* \"#utility.yul\":11677:11681   */\n      0x60\n        /* \"#utility.yul\":11670:11675   */\n      dup4\n        /* \"#utility.yul\":11666:11682   */\n      add\n        /* \"#utility.yul\":11660:11683   */\n      mload\n        /* \"#utility.yul\":11696:11759   */\n      tag_251\n        /* \"#utility.yul\":11753:11757   */\n      0x60\n        /* \"#utility.yul\":11748:11751   */\n      dup7\n        /* \"#utility.yul\":11744:11758   */\n      add\n        /* \"#utility.yul\":11730:11742   */\n      dup3\n        /* \"#utility.yul\":11696:11759   */\n      tag_101\n      jump\t// in\n    tag_251:\n        /* \"#utility.yul\":11600:11769   */\n      pop\n        /* \"#utility.yul\":11786:11790   */\n      dup1\n        /* \"#utility.yul\":11779:11790   */\n      swap2\n      pop\n        /* \"#utility.yul\":10885:11796   */\n      pop\n        /* \"#utility.yul\":10765:11796   */\n      swap3\n      swap2\n      pop\n      pop\n      jump\t// out\n        /* \"#utility.yul\":11802:12070   */\n    tag_127:\n        /* \"#utility.yul\":11927:11937   */\n      0x00\n        /* \"#utility.yul\":11962:12064   */\n      tag_253\n        /* \"#utility.yul\":12060:12063   */\n      dup4\n        /* \"#utility.yul\":12052:12058   */\n      dup4\n        /* \"#utility.yul\":11962:12064   */\n      tag_126\n      jump\t// in\n    tag_253:\n        /* \"#utility.yul\":11948:12064   */\n      swap1\n      pop\n        /* \"#utility.yul\":11802:12070   */\n      swap3\n      swap2\n      pop\n      pop\n      jump\t// out\n        /* \"#utility.yul\":12076:12217   */\n    tag_128:\n        /* \"#utility.yul\":12174:12178   */\n      0x00\n        /* \"#utility.yul\":12206:12210   */\n      0x20\n        /* \"#utility.yul\":12201:12204   */\n      dup3\n        /* \"#utility.yul\":12197:12211   */\n      add\n        /* \"#utility.yul\":12189:12211   */\n      swap1\n      pop\n        /* \"#utility.yul\":12076:12217   */\n      swap2\n      swap1\n      pop\n      jump\t// out\n        /* \"#utility.yul\":12299:13434   */\n    tag_129:\n        /* \"#utility.yul\":12474:12477   */\n      0x00\n        /* \"#utility.yul\":12503:12585   */\n      tag_256\n        /* \"#utility.yul\":12579:12584   */\n      dup3\n        /* \"#utility.yul\":12503:12585   */\n      tag_123\n      jump\t// in\n    tag_256:\n        /* \"#utility.yul\":12601:12715   */\n      tag_257\n        /* \"#utility.yul\":12708:12714   */\n      dup2\n        /* \"#utility.yul\":12703:12706   */\n      dup6\n        /* \"#utility.yul\":12601:12715   */\n      tag_124\n      jump\t// in\n    tag_257:\n        /* \"#utility.yul\":12594:12715   */\n      swap4\n      pop\n        /* \"#utility.yul\":12741:12744   */\n      dup4\n        /* \"#utility.yul\":12786:12790   */\n      0x20\n        /* \"#utility.yul\":12778:12784   */\n      dup3\n        /* \"#utility.yul\":12774:12791   */\n      mul\n        /* \"#utility.yul\":12769:12772   */\n      dup6\n        /* \"#utility.yul\":12765:12792   */\n      add\n        /* \"#utility.yul\":12816:12900   */\n      tag_258\n        /* \"#utility.yul\":12894:12899   */\n      dup6\n        /* \"#utility.yul\":12816:12900   */\n      tag_125\n      jump\t// in\n    tag_258:\n        /* \"#utility.yul\":12923:12930   */\n      dup1\n        /* \"#utility.yul\":12954:12955   */\n      0x00\n        /* \"#utility.yul\":12939:13389   */\n    tag_259:\n        /* \"#utility.yul\":12964:12970   */\n      dup6\n        /* \"#utility.yul\":12961:12962   */\n      dup2\n        /* \"#utility.yul\":12958:12971   */\n      lt\n        /* \"#utility.yul\":12939:13389   */\n      iszero\n      tag_261\n      jumpi\n        /* \"#utility.yul\":13035:13044   */\n      dup5\n        /* \"#utility.yul\":13029:13033   */\n      dup5\n        /* \"#utility.yul\":13025:13045   */\n      sub\n        /* \"#utility.yul\":13020:13023   */\n      dup10\n        /* \"#utility.yul\":13013:13046   */\n      mstore\n        /* \"#utility.yul\":13086:13092   */\n      dup2\n        /* \"#utility.yul\":13080:13093   */\n      mload\n        /* \"#utility.yul\":13114:13234   */\n      tag_262\n        /* \"#utility.yul\":13229:13233   */\n      dup6\n        /* \"#utility.yul\":13214:13227   */\n      dup3\n        /* \"#utility.yul\":13114:13234   */\n      tag_127\n      jump\t// in\n    tag_262:\n        /* \"#utility.yul\":13106:13234   */\n      swap5\n      pop\n        /* \"#utility.yul\":13257:13345   */\n      tag_263\n        /* \"#utility.yul\":13338:13344   */\n      dup4\n        /* \"#utility.yul\":13257:13345   */\n      tag_128\n      jump\t// in\n    tag_263:\n        /* \"#utility.yul\":13247:13345   */\n      swap3\n      pop\n        /* \"#utility.yul\":13374:13378   */\n      0x20\n        /* \"#utility.yul\":13369:13372   */\n      dup11\n        /* \"#utility.yul\":13365:13379   */\n      add\n        /* \"#utility.yul\":13358:13379   */\n      swap10\n      pop\n        /* \"#utility.yul\":12999:13389   */\n      pop\n        /* \"#utility.yul\":12986:12987   */\n      0x01\n        /* \"#utility.yul\":12983:12984   */\n      dup2\n        /* \"#utility.yul\":12979:12988   */\n      add\n        /* \"#utility.yul\":12974:12988   */\n      swap1\n      pop\n        /* \"#utility.yul\":12939:13389   */\n      jump(tag_259)\n    tag_261:\n        /* \"#utility.yul\":12943:12957   */\n      pop\n        /* \"#utility.yul\":13405:13409   */\n      dup3\n        /* \"#utility.yul\":13398:13409   */\n      swap8\n      pop\n        /* \"#utility.yul\":13425:13428   */\n      dup8\n        /* \"#utility.yul\":13418:13428   */\n      swap6\n      pop\n        /* \"#utility.yul\":12479:13434   */\n      pop\n      pop\n      pop\n      pop\n      pop\n        /* \"#utility.yul\":12299:13434   */\n      swap3\n      swap2\n      pop\n      pop\n      jump\t// out\n        /* \"#utility.yul\":13440:13925   */\n    tag_26:\n        /* \"#utility.yul\":13639:13643   */\n      0x00\n        /* \"#utility.yul\":13677:13679   */\n      0x20\n        /* \"#utility.yul\":13666:13675   */\n      dup3\n        /* \"#utility.yul\":13662:13680   */\n      add\n        /* \"#utility.yul\":13654:13680   */\n      swap1\n      pop\n        /* \"#utility.yul\":13726:13735   */\n      dup2\n        /* \"#utility.yul\":13720:13724   */\n      dup2\n        /* \"#utility.yul\":13716:13736   */\n      sub\n        /* \"#utility.yul\":13712:13713   */\n      0x00\n        /* \"#utility.yul\":13701:13710   */\n      dup4\n        /* \"#utility.yul\":13697:13714   */\n      add\n        /* \"#utility.yul\":13690:13737   */\n      mstore\n        /* \"#utility.yul\":13754:13918   */\n      tag_265\n        /* \"#utility.yul\":13913:13917   */\n      dup2\n        /* \"#utility.yul\":13904:13910   */\n      dup5\n        /* \"#utility.yul\":13754:13918   */\n      tag_129\n      jump\t// in\n    tag_265:\n        /* \"#utility.yul\":13746:13918   */\n      swap1\n      pop\n        /* \"#utility.yul\":13440:13925   */\n      swap3\n      swap2\n      pop\n      pop\n      jump\t// out\n        /* \"#utility.yul\":13931:14910   */\n    tag_29:\n        /* \"#utility.yul\":14028:14034   */\n      0x00\n        /* \"#utility.yul\":14036:14042   */\n      0x00\n        /* \"#utility.yul\":14044:14050   */\n      0x00\n        /* \"#utility.yul\":14093:14095   */\n      0x60\n        /* \"#utility.yul\":14081:14090   */\n      dup5\n        /* \"#utility.yul\":14072:14079   */\n      dup7\n        /* \"#utility.yul\":14068:14091   */\n      sub\n        /* \"#utility.yul\":14064:14096   */\n      slt\n        /* \"#utility.yul\":14061:14180   */\n      iszero\n      tag_267\n      jumpi\n        /* \"#utility.yul\":14099:14178   */\n      tag_268\n      tag_107\n      jump\t// in\n    tag_268:\n        /* \"#utility.yul\":14061:14180   */\n    tag_267:\n        /* \"#utility.yul\":14247:14248   */\n      0x00\n        /* \"#utility.yul\":14236:14245   */\n      dup5\n        /* \"#utility.yul\":14232:14249   */\n      add\n        /* \"#utility.yul\":14219:14250   */\n      calldataload\n        /* \"#utility.yul\":14277:14295   */\n      0xffffffffffffffff\n        /* \"#utility.yul\":14269:14275   */\n      dup2\n        /* \"#utility.yul\":14266:14296   */\n      gt\n        /* \"#utility.yul\":14263:14380   */\n      iszero\n      tag_269\n      jumpi\n        /* \"#utility.yul\":14299:14378   */\n      tag_270\n      tag_108\n      jump\t// in\n    tag_270:\n        /* \"#utility.yul\":14263:14380   */\n    tag_269:\n        /* \"#utility.yul\":14404:14467   */\n      tag_271\n        /* \"#utility.yul\":14459:14466   */\n      dup7\n        /* \"#utility.yul\":14450:14456   */\n      dup3\n        /* \"#utility.yul\":14439:14448   */\n      dup8\n        /* \"#utility.yul\":14435:14457   */\n      add\n        /* \"#utility.yul\":14404:14467   */\n      tag_122\n      jump\t// in\n    tag_271:\n        /* \"#utility.yul\":14394:14467   */\n      swap4\n      pop\n        /* \"#utility.yul\":14190:14477   */\n      pop\n        /* \"#utility.yul\":14544:14546   */\n      0x20\n        /* \"#utility.yul\":14533:14542   */\n      dup5\n        /* \"#utility.yul\":14529:14547   */\n      add\n        /* \"#utility.yul\":14516:14548   */\n      calldataload\n        /* \"#utility.yul\":14575:14593   */\n      0xffffffffffffffff\n        /* \"#utility.yul\":14567:14573   */\n      dup2\n        /* \"#utility.yul\":14564:14594   */\n      gt\n        /* \"#utility.yul\":14561:14678   */\n      iszero\n      tag_272\n      jumpi\n        /* \"#utility.yul\":14597:14676   */\n      tag_273\n      tag_108\n      jump\t// in\n    tag_273:\n        /* \"#utility.yul\":14561:14678   */\n    tag_272:\n        /* \"#utility.yul\":14702:14765   */\n      tag_274\n        /* \"#utility.yul\":14757:14764   */\n      dup7\n        /* \"#utility.yul\":14748:14754   */\n      dup3\n        /* \"#utility.yul\":14737:14746   */\n      dup8\n        /* \"#utility.yul\":14733:14755   */\n      add\n        /* \"#utility.yul\":14702:14765   */\n      tag_122\n      jump\t// in\n    tag_274:\n        /* \"#utility.yul\":14692:14765   */\n      swap3\n      pop\n        /* \"#utility.yul\":14487:14775   */\n      pop\n        /* \"#utility.yul\":14814:14816   */\n      0x40\n        /* \"#utility.yul\":14840:14893   */\n      tag_275\n        /* \"#utility.yul\":14885:14892   */\n      dup7\n        /* \"#utility.yul\":14876:14882   */\n      dup3\n        /* \"#utility.yul\":14865:14874   */\n      dup8\n        /* \"#utility.yul\":14861:14883   */\n      add\n        /* \"#utility.yul\":14840:14893   */\n      tag_110\n      jump\t// in\n    tag_275:\n        /* \"#utility.yul\":14830:14893   */\n      swap2\n      pop\n        /* \"#utility.yul\":14785:14903   */\n      pop\n        /* \"#utility.yul\":13931:14910   */\n      swap3\n      pop\n      swap3\n      pop\n      swap3\n      jump\t// out\n        /* \"#utility.yul\":14916:15034   */\n    tag_130:\n        /* \"#utility.yul\":15003:15027   */\n      tag_277\n        /* \"#utility.yul\":15021:15026   */\n      dup2\n        /* \"#utility.yul\":15003:15027   */\n      tag_93\n      jump\t// in\n    tag_277:\n        /* \"#utility.yul\":14998:15001   */\n      dup3\n        /* \"#utility.yul\":14991:15028   */\n      mstore\n        /* \"#utility.yul\":14916:15034   */\n      pop\n      pop\n      jump\t// out\n        /* \"#utility.yul\":15040:15684   */\n    tag_35:\n        /* \"#utility.yul\":15237:15241   */\n      0x00\n        /* \"#utility.yul\":15275:15278   */\n      0x80\n        /* \"#utility.yul\":15264:15273   */\n      dup3\n        /* \"#utility.yul\":15260:15279   */\n      add\n        /* \"#utility.yul\":15252:15279   */\n      swap1\n      pop\n        /* \"#utility.yul\":15289:15360   */\n      tag_279\n        /* \"#utility.yul\":15357:15358   */\n      0x00\n        /* \"#utility.yul\":15346:15355   */\n      dup4\n        /* \"#utility.yul\":15342:15359   */\n      add\n        /* \"#utility.yul\":15333:15339   */\n      dup8\n        /* \"#utility.yul\":15289:15360   */\n      tag_130\n      jump\t// in\n    tag_279:\n        /* \"#utility.yul\":15407:15416   */\n      dup2\n        /* \"#utility.yul\":15401:15405   */\n      dup2\n        /* \"#utility.yul\":15397:15417   */\n      sub\n        /* \"#utility.yul\":15392:15394   */\n      0x20\n        /* \"#utility.yul\":15381:15390   */\n      dup4\n        /* \"#utility.yul\":15377:15395   */\n      add\n        /* \"#utility.yul\":15370:15418   */\n      mstore\n        /* \"#utility.yul\":15435:15513   */\n      tag_280\n        /* \"#utility.yul\":15508:15512   */\n      dup2\n        /* \"#utility.yul\":15499:15505   */\n      dup7\n        /* \"#utility.yul\":15435:15513   */\n      tag_112\n      jump\t// in\n    tag_280:\n        /* \"#utility.yul\":15427:15513   */\n      swap1\n      pop\n        /* \"#utility.yul\":15523:15595   */\n      tag_281\n        /* \"#utility.yul\":15591:15593   */\n      0x40\n        /* \"#utility.yul\":15580:15589   */\n      dup4\n        /* \"#utility.yul\":15576:15594   */\n      add\n        /* \"#utility.yul\":15567:15573   */\n      dup6\n        /* \"#utility.yul\":15523:15595   */\n      tag_113\n      jump\t// in\n    tag_281:\n        /* \"#utility.yul\":15605:15677   */\n      tag_282\n        /* \"#utility.yul\":15673:15675   */\n      0x60\n        /* \"#utility.yul\":15662:15671   */\n      dup4\n        /* \"#utility.yul\":15658:15676   */\n      add\n        /* \"#utility.yul\":15649:15655   */\n      dup5\n        /* \"#utility.yul\":15605:15677   */\n      tag_113\n      jump\t// in\n    tag_282:\n        /* \"#utility.yul\":15040:15684   */\n      swap6\n      swap5\n      pop\n      pop\n      pop\n      pop\n      pop\n      jump\t// out\n        /* \"#utility.yul\":15690:15870   */\n    tag_131:\n        /* \"#utility.yul\":15738:15815   */\n      0x4e487b7100000000000000000000000000000000000000000000000000000000\n        /* \"#utility.yul\":15735:15736   */\n      0x00\n        /* \"#utility.yul\":15728:15816   */\n      mstore\n        /* \"#utility.yul\":15835:15839   */\n      0x22\n        /* \"#utility.yul\":15832:15833   */\n      0x04\n        /* \"#utility.yul\":15825:15840   */\n      mstore\n        /* \"#utility.yul\":15859:15863   */\n      0x24\n        /* \"#utility.yul\":15856:15857   */\n      0x00\n        /* \"#utility.yul\":15849:15864   */\n      revert\n        /* \"#utility.yul\":15876:16196   */\n    tag_41:\n        /* \"#utility.yul\":15920:15926   */\n      0x00\n        /* \"#utility.yul\":15957:15958   */\n      0x02\n        /* \"#utility.yul\":15951:15955   */\n      dup3\n        /* \"#utility.yul\":15947:15959   */\n      div\n        /* \"#utility.yul\":15937:15959   */\n      swap1\n      pop\n        /* \"#utility.yul\":16004:16005   */\n      0x01\n        /* \"#utility.yul\":15998:16002   */\n      dup3\n        /* \"#utility.yul\":15994:16006   */\n      and\n        /* \"#utility.yul\":16025:16043   */\n      dup1\n        /* \"#utility.yul\":16015:16096   */\n      tag_285\n      jumpi\n        /* \"#utility.yul\":16081:16085   */\n      0x7f\n        /* \"#utility.yul\":16073:16079   */\n      dup3\n        /* \"#utility.yul\":16069:16086   */\n      and\n        /* \"#utility.yul\":16059:16086   */\n      swap2\n      pop\n        /* \"#utility.yul\":16015:16096   */\n    tag_285:\n        /* \"#utility.yul\":16143:16145   */\n      0x20\n        /* \"#utility.yul\":16135:16141   */\n      dup3\n        /* \"#utility.yul\":16132:16146   */\n      lt\n        /* \"#utility.yul\":16112:16130   */\n      dup2\n        /* \"#utility.yul\":16109:16147   */\n      sub\n        /* \"#utility.yul\":16106:16190   */\n      tag_286\n      jumpi\n        /* \"#utility.yul\":16162:16180   */\n      tag_287\n      tag_131\n      jump\t// in\n    tag_287:\n        /* \"#utility.yul\":16106:16190   */\n    tag_286:\n        /* \"#utility.yul\":15927:16196   */\n      pop\n        /* \"#utility.yul\":15876:16196   */\n      swap2\n      swap1\n      pop\n      jump\t// out\n        /* \"#utility.yul\":16202:16343   */\n    tag_132:\n        /* \"#utility.yul\":16251:16255   */\n      0x00\n        /* \"#utility.yul\":16274:16277   */\n      dup2\n        /* \"#utility.yul\":16266:16277   */\n      swap1\n      pop\n        /* \"#utility.yul\":16297:16300   */\n      dup2\n        /* \"#utility.yul\":16294:16295   */\n      0x00\n        /* \"#utility.yul\":16287:16301   */\n      mstore\n        /* \"#utility.yul\":16331:16335   */\n      0x20\n        /* \"#utility.yul\":16328:16329   */\n      0x00\n        /* \"#utility.yul\":16318:16336   */\n      keccak256\n        /* \"#utility.yul\":16310:16336   */\n      swap1\n      pop\n        /* \"#utility.yul\":16202:16343   */\n      swap2\n      swap1\n      pop\n      jump\t// out\n        /* \"#utility.yul\":16349:16442   */\n    tag_133:\n        /* \"#utility.yul\":16386:16392   */\n      0x00\n        /* \"#utility.yul\":16433:16435   */\n      0x20\n        /* \"#utility.yul\":16428:16430   */\n      0x1f\n        /* \"#utility.yul\":16421:16426   */\n      dup4\n        /* \"#utility.yul\":16417:16431   */\n      add\n        /* \"#utility.yul\":16413:16436   */\n      div\n        /* \"#utility.yul\":16403:16436   */\n      swap1\n      pop\n        /* \"#utility.yul\":16349:16442   */\n      swap2\n      swap1\n      pop\n      jump\t// out\n        /* \"#utility.yul\":16448:16555   */\n    tag_134:\n        /* \"#utility.yul\":16492:16500   */\n      0x00\n        /* \"#utility.yul\":16542:16547   */\n      dup3\n        /* \"#utility.yul\":16536:16540   */\n      dup3\n        /* \"#utility.yul\":16532:16548   */\n      shl\n        /* \"#utility.yul\":16511:16548   */\n      swap1\n      pop\n        /* \"#utility.yul\":16448:16555   */\n      swap3\n      swap2\n      pop\n      pop\n      jump\t// out\n        /* \"#utility.yul\":16561:16954   */\n    tag_135:\n        /* \"#utility.yul\":16630:16636   */\n      0x00\n        /* \"#utility.yul\":16680:16681   */\n      0x08\n        /* \"#utility.yul\":16668:16678   */\n      dup4\n        /* \"#utility.yul\":16664:16682   */\n      mul\n        /* \"#utility.yul\":16703:16800   */\n      tag_292\n        /* \"#utility.yul\":16733:16799   */\n      0xffffffffffffffffffffffffffffffffffffffffffffffffffffffffffffffff\n        /* \"#utility.yul\":16722:16731   */\n      dup3\n        /* \"#utility.yul\":16703:16800   */\n      tag_134\n      jump\t// in\n    tag_292:\n        /* \"#utility.yul\":16821:16860   */\n      tag_293\n        /* \"#utility.yul\":16851:16859   */\n      dup7\n        /* \"#utility.yul\":16840:16849   */\n      dup4\n        /* \"#utility.yul\":16821:16860   */\n      tag_134\n      jump\t// in\n    tag_293:\n        /* \"#utility.yul\":16809:16860   */\n      swap6\n      pop\n        /* \"#utility.yul\":16893:16897   */\n      dup1\n        /* \"#utility.yul\":16889:16898   */\n      not\n        /* \"#utility.yul\":16882:16887   */\n      dup5\n        /* \"#utility.yul\":16878:16899   */\n      and\n        /* \"#utility.yul\":16869:16899   */\n      swap4\n      pop\n        /* \"#utility.yul\":16942:16946   */\n      dup1\n        /* \"#utility.yul\":16932:16940   */\n      dup7\n        /* \"#utility.yul\":16928:16947   */\n      and\n        /* \"#utility.yul\":16921:16926   */\n      dup5\n        /* \"#utility.yul\":16918:16948   */\n      or\n        /* \"#utility.yul\":16908:16948   */\n      swap3\n      pop\n        /* \"#utility.yul\":16637:16954   */\n      pop\n      pop\n        /* \"#utility.yul\":16561:16954   */\n      swap4\n      swap3\n      pop\n      pop\n      pop\n      jump\t// out\n        /* \"#utility.yul\":16960:17020   */\n    tag_136:\n        /* \"#utility.yul\":16988:16991   */\n      0x00\n        /* \"#utility.yul\":17009:17014   */\n      dup2\n        /* \"#utility.yul\":17002:17014   */\n      swap1\n      pop\n        /* \"#utility.yul\":16960:17020   */\n      swap2\n      swap1\n      pop\n      jump\t// out\n        /* \"#utility.yul\":17026:17168   */\n    tag_137:\n        /* \"#utility.yul\":17076:17085   */\n      0x00\n        /* \"#utility.yul\":17109:17162   */\n      tag_296\n        /* \"#utility.yul\":17127:17161   */\n      tag_297\n        /* \"#utility.yul\":17136:17160   */\n      tag_298\n        /* \"#utility.yul\":17154:17159   */\n      dup5\n        /* \"#utility.yul\":17136:17160   */\n      tag_100\n      jump\t// in\n    tag_298:\n        /* \"#utility.yul\":17127:17161   */\n      tag_136\n      jump\t// in\n    tag_297:\n        /* \"#utility.yul\":17109:17162   */\n      tag_100\n      jump\t// in\n    tag_296:\n        /* \"#utility.yul\":17096:17162   */\n      swap1\n      pop\n        /* \"#utility.yul\":17026:17168   */\n      swap2\n      swap1\n      pop\n      jump\t// out\n        /* \"#utility.yul\":17174:17249   */\n    tag_138:\n        /* \"#utility.yul\":17217:17220   */\n      0x00\n        /* \"#utility.yul\":17238:17243   */\n      dup2\n        /* \"#utility.yul\":17231:17243   */\n      swap1\n      pop\n        /* \"#utility.yul\":17174:17249   */\n      swap2\n      swap1\n      pop\n      jump\t// out\n        /* \"#utility.yul\":17255:17524   */\n    tag_139:\n        /* \"#utility.yul\":17365:17404   */\n      tag_301\n        /* \"#utility.yul\":17396:17403   */\n      dup4\n        /* \"#utility.yul\":17365:17404   */\n      tag_137\n      jump\t// in\n    tag_301:\n        /* \"#utility.yul\":17426:17517   */\n      tag_302\n        /* \"#utility.yul\":17475:17516   */\n      tag_303\n        /* \"#utility.yul\":17499:17515   */\n      dup3\n        /* \"#utility.yul\":17475:17516   */\n      tag_138\n      jump\t// in\n    tag_303:\n        /* \"#utility.yul\":17467:17473   */\n      dup5\n        /* \"#utility.yul\":17460:17464   */\n      dup5\n        /* \"#utility.yul\":17454:17465   */\n      sload\n        /* \"#utility.yul\":17426:17517   */\n      tag_135\n      jump\t// in\n    tag_302:\n        /* \"#utility.yul\":17420:17424   */\n      dup3\n        /* \"#utility.yul\":17413:17518   */\n      sstore\n        /* \"#utility.yul\":17331:17524   */\n      pop\n        /* \"#utility.yul\":17255:17524   */\n      pop\n      pop\n      pop\n      jump\t// out\n        /* \"#utility.yul\":17530:17603   */\n    tag_140:\n        /* \"#utility.yul\":17575:17578   */\n      0x00\n        /* \"#utility.yul\":17596:17597   */\n      0x00\n        /* \"#utility.yul\":17589:17597   */\n      swap1\n      pop\n        /* \"#utility.yul\":17530:17603   */\n      swap1\n      jump\t// out\n        /* \"#utility.yul\":17609:17798   */\n    tag_141:\n        /* \"#utility.yul\":17686:17718   */\n      tag_306\n      tag_140\n      jump\t// in\n    tag_306:\n        /* \"#utility.yul\":17727:17792   */\n      tag_307\n        /* \"#utility.yul\":17785:17791   */\n      dup2\n        /* \"#utility.yul\":17777:17783   */\n      dup5\n        /* \"#utility.yul\":17771:17775   */\n      dup5\n        /* \"#utility.yul\":17727:17792   */\n      tag_139\n      jump\t// in\n    tag_307:\n        /* \"#utility.yul\":17662:17798   */\n      pop\n        /* \"#utility.yul\":17609:17798   */\n      pop\n      pop\n      jump\t// out\n        /* \"#utility.yul\":17804:17990   */\n    tag_142:\n        /* \"#utility.yul\":17864:17984   */\n    tag_309:\n        /* \"#utility.yul\":17881:17884   */\n      dup2\n        /* \"#utility.yul\":17874:17879   */\n      dup2\n        /* \"#utility.yul\":17871:17885   */\n      lt\n        /* \"#utility.yul\":17864:17984   */\n      iszero\n      tag_311\n      jumpi\n        /* \"#utility.yul\":17935:17974   */\n      tag_312\n        /* \"#utility.yul\":17972:17973   */\n      0x00\n        /* \"#utility.yul\":17965:17970   */\n      dup3\n        /* \"#utility.yul\":17935:17974   */\n      tag_141\n      jump\t// in\n    tag_312:\n        /* \"#utility.yul\":17908:17909   */\n      0x01\n        /* \"#utility.yul\":17901:17906   */\n      dup2\n        /* \"#utility.yul\":17897:17910   */\n      add\n        /* \"#utility.yul\":17888:17910   */\n      swap1\n      pop\n        /* \"#utility.yul\":17864:17984   */\n      jump(tag_309)\n    tag_311:\n        /* \"#utility.yul\":17804:17990   */\n      pop\n      pop\n      jump\t// out\n        /* \"#utility.yul\":17996:18539   */\n    tag_143:\n        /* \"#utility.yul\":18097:18099   */\n      0x1f\n        /* \"#utility.yul\":18092:18095   */\n      dup3\n        /* \"#utility.yul\":18089:18100   */\n      gt\n        /* \"#utility.yul\":18086:18532   */\n      iszero\n      tag_314\n      jumpi\n        /* \"#utility.yul\":18131:18169   */\n      tag_315\n        /* \"#utility.yul\":18163:18168   */\n      dup2\n        /* \"#utility.yul\":18131:18169   */\n      tag_132\n      jump\t// in\n    tag_315:\n        /* \"#utility.yul\":18215:18244   */\n      tag_316\n        /* \"#utility.yul\":18233:18243   */\n      dup5\n        /* \"#utility.yul\":18215:18244   */\n      tag_133\n      jump\t// in\n    tag_316:\n        /* \"#utility.yul\":18205:18213   */\n      dup2\n        /* \"#utility.yul\":18201:18245   */\n      add\n        /* \"#utility.yul\":18398:18400   */\n      0x20\n        /* \"#utility.yul\":18386:18396   */\n      dup6\n        /* \"#utility.yul\":18383:18401   */\n      lt\n        /* \"#utility.yul\":18380:18429   */\n      iszero\n      tag_317\n      jumpi\n        /* \"#utility.yul\":18419:18427   */\n      dup2\n        /* \"#utility.yul\":18404:18427   */\n      swap1\n      pop\n        /* \"#utility.yul\":18380:18429   */\n    tag_317:\n        /* \"#utility.yul\":18442:18522   */\n      tag_318\n        /* \"#utility.yul\":18498:18520   */\n      tag_319\n        /* \"#utility.yul\":18516:18519   */\n      dup6\n        /* \"#utility.yul\":18498:18520   */\n      tag_133\n      jump\t// in\n    tag_319:\n        /* \"#utility.yul\":18488:18496   */\n      dup4\n        /* \"#utility.yul\":18484:18521   */\n      add\n        /* \"#utility.yul\":18471:18482   */\n      dup3\n        /* \"#utility.yul\":18442:18522   */\n      tag_142\n      jump\t// in\n    tag_318:\n        /* \"#utility.yul\":18101:18532   */\n      pop\n      pop\n        /* \"#utility.yul\":18086:18532   */\n    tag_314:\n        /* \"#utility.yul\":17996:18539   */\n      pop\n      pop\n      pop\n      jump\t// out\n        /* \"#utility.yul\":18545:18662   */\n    tag_144:\n        /* \"#utility.yul\":18599:18607   */\n      0x00\n        /* \"#utility.yul\":18649:18654   */\n      dup3\n        /* \"#utility.yul\":18643:18647   */\n      dup3\n        /* \"#utility.yul\":18639:18655   */\n      shr\n        /* \"#utility.yul\":18618:18655   */\n      swap1\n      pop\n        /* \"#utility.yul\":18545:18662   */\n      swap3\n      swap2\n      pop\n      pop\n      jump\t// out\n        /* \"#utility.yul\":18668:18837   */\n    tag_145:\n        /* \"#utility.yul\":18712:18718   */\n      0x00\n        /* \"#utility.yul\":18745:18796   */\n      tag_322\n        /* \"#utility.yul\":18793:18794   */\n      0x00\n        /* \"#utility.yul\":18789:18795   */\n      not\n        /* \"#utility.yul\":18781:18786   */\n      dup5\n        /* \"#utility.yul\":18778:18779   */\n      0x08\n        /* \"#utility.yul\":18774:18787   */\n      mul\n        /* \"#utility.yul\":18745:18796   */\n      tag_144\n      jump\t// in\n    tag_322:\n        /* \"#utility.yul\":18741:18797   */\n      not\n        /* \"#utility.yul\":18826:18830   */\n      dup1\n        /* \"#utility.yul\":18820:18824   */\n      dup4\n        /* \"#utility.yul\":18816:18831   */\n      and\n        /* \"#utility.yul\":18806:18831   */\n      swap2\n      pop\n        /* \"#utility.yul\":18719:18837   */\n      pop\n        /* \"#utility.yul\":18668:18837   */\n      swap3\n      swap2\n      pop\n      pop\n      jump\t// out\n        /* \"#utility.yul\":18842:19137   */\n    tag_146:\n        /* \"#utility.yul\":18918:18922   */\n      0x00\n        /* \"#utility.yul\":19064:19093   */\n      tag_324\n        /* \"#utility.yul\":19089:19092   */\n      dup4\n        /* \"#utility.yul\":19083:19087   */\n      dup4\n        /* \"#utility.yul\":19064:19093   */\n      tag_145\n      jump\t// in\n    tag_324:\n        /* \"#utility.yul\":19056:19093   */\n      swap2\n      pop\n        /* \"#utility.yul\":19126:19129   */\n      dup3\n        /* \"#utility.yul\":19123:19124   */\n      0x02\n        /* \"#utility.yul\":19119:19130   */\n      mul\n        /* \"#utility.yul\":19113:19117   */\n      dup3\n        /* \"#utility.yul\":19110:19131   */\n      or\n        /* \"#utility.yul\":19102:19131   */\n      swap1\n      pop\n        /* \"#utility.yul\":18842:19137   */\n      swap3\n      swap2\n      pop\n      pop\n      jump\t// out\n        /* \"#utility.yul\":19142:20537   */\n    tag_61:\n        /* \"#utility.yul\":19259:19296   */\n      tag_326\n        /* \"#utility.yul\":19292:19295   */\n      dup3\n        /* \"#utility.yul\":19259:19296   */\n      tag_95\n      jump\t// in\n    tag_326:\n        /* \"#utility.yul\":19361:19379   */\n      0xffffffffffffffff\n        /* \"#utility.yul\":19353:19359   */\n      dup2\n        /* \"#utility.yul\":19350:19380   */\n      gt\n        /* \"#utility.yul\":19347:19403   */\n      iszero\n      tag_327\n      jumpi\n        /* \"#utility.yul\":19383:19401   */\n      tag_328\n      tag_116\n      jump\t// in\n    tag_328:\n        /* \"#utility.yul\":19347:19403   */\n    tag_327:\n        /* \"#utility.yul\":19427:19465   */\n      tag_329\n        /* \"#utility.yul\":19459:19463   */\n      dup3\n        /* \"#utility.yul\":19453:19464   */\n      sload\n        /* \"#utility.yul\":19427:19465   */\n      tag_41\n      jump\t// in\n    tag_329:\n        /* \"#utility.yul\":19512:19579   */\n      tag_330\n        /* \"#utility.yul\":19572:19578   */\n      dup3\n        /* \"#utility.yul\":19564:19570   */\n      dup3\n        /* \"#utility.yul\":19558:19562   */\n      dup6\n        /* \"#utility.yul\":19512:19579   */\n      tag_143\n      jump\t// in\n    tag_330:\n        /* \"#utility.yul\":19606:19607   */\n      0x00\n        /* \"#utility.yul\":19630:19634   */\n      0x20\n        /* \"#utility.yul\":19617:19634   */\n      swap1\n      pop\n        /* \"#utility.yul\":19662:19664   */\n      0x1f\n        /* \"#utility.yul\":19654:19660   */\n      dup4\n        /* \"#utility.yul\":19651:19665   */\n      gt\n        /* \"#utility.yul\":19679:19680   */\n      0x01\n        /* \"#utility.yul\":19674:20292   */\n      dup2\n      eq\n      tag_332\n      jumpi\n        /* \"#utility.yul\":20336:20337   */\n      0x00\n        /* \"#utility.yul\":20353:20359   */\n      dup5\n        /* \"#utility.yul\":20350:20427   */\n      iszero\n      tag_333\n      jumpi\n        /* \"#utility.yul\":20402:20411   */\n      dup3\n        /* \"#utility.yul\":20397:20400   */\n      dup8\n        /* \"#utility.yul\":20393:20412   */\n      add\n        /* \"#utility.yul\":20387:20413   */\n      mload\n        /* \"#utility.yul\":20378:20413   */\n      swap1\n      pop\n        /* \"#utility.yul\":20350:20427   */\n    tag_333:\n        /* \"#utility.yul\":20453:20520   */\n      tag_334\n        /* \"#utility.yul\":20513:20519   */\n      dup6\n        /* \"#utility.yul\":20506:20511   */\n      dup3\n        /* \"#utility.yul\":20453:20520   */\n      tag_146\n      jump\t// in\n    tag_334:\n        /* \"#utility.yul\":20447:20451   */\n      dup7\n        /* \"#utility.yul\":20440:20521   */\n      sstore\n        /* \"#utility.yul\":20309:20531   */\n      pop\n        /* \"#utility.yul\":19644:20531   */\n      jump(tag_331)\n        /* \"#utility.yul\":19674:20292   */\n    tag_332:\n        /* \"#utility.yul\":19726:19730   */\n      0x1f\n        /* \"#utility.yul\":19722:19731   */\n      not\n        /* \"#utility.yul\":19714:19720   */\n      dup5\n        /* \"#utility.yul\":19710:19732   */\n      and\n        /* \"#utility.yul\":19760:19797   */\n      tag_335\n        /* \"#utility.yul\":19792:19796   */\n      dup7\n        /* \"#utility.yul\":19760:19797   */\n      tag_132\n      jump\t// in\n    tag_335:\n        /* \"#utility.yul\":19819:19820   */\n      0x00\n        /* \"#utility.yul\":19833:20041   */\n    tag_336:\n        /* \"#utility.yul\":19847:19854   */\n      dup3\n        /* \"#utility.yul\":19844:19845   */\n      dup2\n        /* \"#utility.yul\":19841:19855   */\n      lt\n        /* \"#utility.yul\":19833:20041   */\n      iszero\n      tag_338\n      jumpi\n        /* \"#utility.yul\":19926:19935   */\n      dup5\n        /* \"#utility.yul\":19921:19924   */\n      dup10\n        /* \"#utility.yul\":19917:19936   */\n      add\n        /* \"#utility.yul\":19911:19937   */\n      mload\n        /* \"#utility.yul\":19903:19909   */\n      dup3\n        /* \"#utility.yul\":19896:19938   */\n      sstore\n        /* \"#utility.yul\":19977:19978   */\n      0x01\n        /* \"#utility.yul\":19969:19975   */\n      dup3\n        /* \"#utility.yul\":19965:19979   */\n      add\n        /* \"#utility.yul\":19955:19979   */\n      swap2\n      pop\n        /* \"#utility.yul\":20024:20026   */\n      0x20\n        /* \"#utility.yul\":20013:20022   */\n      dup6\n        /* \"#utility.yul\":20009:20027   */\n      add\n        /* \"#utility.yul\":19996:20027   */\n      swap5\n      pop\n        /* \"#utility.yul\":19870:19874   */\n      0x20\n        /* \"#utility.yul\":19867:19868   */\n      dup2\n        /* \"#utility.yul\":19863:19875   */\n      add\n        /* \"#utility.yul\":19858:19875   */\n      swap1\n      pop\n        /* \"#utility.yul\":19833:20041   */\n      jump(tag_336)\n    tag_338:\n        /* \"#utility.yul\":20069:20075   */\n      dup7\n        /* \"#utility.yul\":20060:20067   */\n      dup4\n        /* \"#utility.yul\":20057:20076   */\n      lt\n        /* \"#utility.yul\":20054:20233   */\n      iszero\n      tag_339\n      jumpi\n        /* \"#utility.yul\":20127:20136   */\n      dup5\n        /* \"#utility.yul\":20122:20125   */\n      dup10\n        /* \"#utility.yul\":20118:20137   */\n      add\n        /* \"#utility.yul\":20112:20138   */\n      mload\n        /* \"#utility.yul\":20170:20218   */\n      tag_340\n        /* \"#utility.yul\":20212:20216   */\n      0x1f\n        /* \"#utility.yul\":20204:20210   */\n      dup10\n        /* \"#utility.yul\":20200:20217   */\n      and\n        /* \"#utility.yul\":20189:20198   */\n      dup3\n        /* \"#utility.yul\":20170:20218   */\n      tag_145\n      jump\t// in\n    tag_340:\n        /* \"#utility.yul\":20162:20168   */\n      dup4\n        /* \"#utility.yul\":20155:20219   */\n      sstore\n        /* \"#utility.yul\":20077:20233   */\n      pop\n        /* \"#utility.yul\":20054:20233   */\n    tag_339:\n        /* \"#utility.yul\":20279:20280   */\n      0x01\n        /* \"#utility.yul\":20275:20276   */\n      0x02\n        /* \"#utility.yul\":20267:20273   */\n      dup9\n        /* \"#utility.yul\":20263:20277   */\n      mul\n        /* \"#utility.yul\":20259:20281   */\n      add\n        /* \"#utility.yul\":20253:20257   */\n      dup9\n        /* \"#utility.yul\":20246:20282   */\n      sstore\n        /* \"#utility.yul\":19681:20292   */\n      pop\n      pop\n      pop\n        /* \"#utility.yul\":19644:20531   */\n    tag_331:\n      pop\n        /* \"#utility.yul\":19234:20537   */\n      pop\n      pop\n      pop\n        /* \"#utility.yul\":19142:20537   */\n      pop\n      pop\n      jump\t// out\n\n    auxdata: 0xa2646970667358221220539a9201f16d6b222546437c9b797e863889177dc29153e7f60bfff7d4eaa7ab64736f6c634300081e0033\n}\n",
				"bytecode": {
					"linkReferences": {},
					"object": "6080604052348015600e575f5ffd5b506111db8061001c5f395ff3fe608060405234801561000f575f5ffd5b5060043610610060575f3560e01c806338a59a07146100645780634487d3df146100825780636f94cbfe146100b55780637b74691e146100d1578063e7c234e6146100ef578063f8626af81461010b575b5f5ffd5b61006c61013e565b6040516100799190610a02565b60405180910390f35b61009c60048036038101906100979190610a5d565b610291565b6040516100ac9493929190610adf565b60405180910390f35b6100cf60048036038101906100ca9190610c5c565b6103d8565b005b6100d96104e7565b6040516100e69190610dd8565b60405180910390f35b61010960048036038101906101049190610df8565b610676565b005b61012560048036038101906101209190610a5d565b610741565b6040516101359493929190610e8f565b60405180910390f35b60605f805480602002602001604051908101604052809291908181526020015f905b82821015610288578382905f5260205f2090600402016040518060800160405290815f82015f9054906101000a900473ffffffffffffffffffffffffffffffffffffffff1673ffffffffffffffffffffffffffffffffffffffff1673ffffffffffffffffffffffffffffffffffffffff1681526020016001820180546101e590610f06565b80601f016020809104026020016040519081016040528092919081815260200182805461021190610f06565b801561025c5780601f106102335761010080835404028352916020019161025c565b820191905f5260205f20905b81548152906001019060200180831161023f57829003601f168201915b505050505081526020016002820154815260200160038201548152505081526020019060010190610160565b50505050905090565b600181815481106102a0575f80fd5b905f5260205f2090600402015f91509050805f0180546102bf90610f06565b80601f01602080910402602001604051908101604052809291908181526020018280546102eb90610f06565b80156103365780601f1061030d57610100808354040283529160200191610336565b820191905f5260205f20905b81548152906001019060200180831161031957829003601f168201915b50505050509080600101805461034b90610f06565b80601f016020809104026020016040519081016040528092919081815260200182805461037790610f06565b80156103c25780601f10610399576101008083540402835291602001916103c2565b820191905f5260205f20905b8154815290600101906020018083116103a557829003601f168201915b5050505050908060020154908060030154905084565b5f60405180608001604052803373ffffffffffffffffffffffffffffffffffffffff16815260200184815260200183815260200142815250908060018154018082558091505060019003905f5260205f2090600402015f909190919091505f820151815f015f6101000a81548173ffffffffffffffffffffffffffffffffffffffff021916908373ffffffffffffffffffffffffffffffffffffffff160217905550602082015181600101908161048f91906110d6565b50604082015181600201556060820151816003015550507febdbfdd8b310d67ee2df6ab0914f1adc2e2d0574b0f728ce876e17a2a070cebd338383426040516104db9493929190610e8f565b60405180910390a15050565b60606001805480602002602001604051908101604052809291908181526020015f905b8282101561066d578382905f5260205f2090600402016040518060800160405290815f8201805461053a90610f06565b80601f016020809104026020016040519081016040528092919081815260200182805461056690610f06565b80156105b15780601f10610588576101008083540402835291602001916105b1565b820191905f5260205f20905b81548152906001019060200180831161059457829003601f168201915b505050505081526020016001820180546105ca90610f06565b80601f01602080910402602001604051908101604052809291908181526020018280546105f690610f06565b80156106415780601f1061061857610100808354040283529160200191610641565b820191905f5260205f20905b81548152906001019060200180831161062457829003601f168201915b50505050508152602001600282015481526020016003820154815250508152602001906001019061050a565b50505050905090565b6001604051806080016040528085815260200184815260200183815260200142815250908060018154018082558091505060019003905f5260205f2090600402015f909190919091505f820151815f0190816106d291906110d6565b5060208201518160010190816106e891906110d6565b50604082015181600201556060820151816003015550507f17cab404d0fc6ff34a9e918ddc8c2888872a95b340164fc6552bfa9190776c3b838383426040516107349493929190610adf565b60405180910390a1505050565b5f818154811061074f575f80fd5b905f5260205f2090600402015f91509050805f015f9054906101000a900473ffffffffffffffffffffffffffffffffffffffff169080600101805461079390610f06565b80601f01602080910402602001604051908101604052809291908181526020018280546107bf90610f06565b801561080a5780601f106107e15761010080835404028352916020019161080a565b820191905f5260205f20905b8154815290600101906020018083116107ed57829003601f168201915b5050505050908060020154908060030154905084565b5f81519050919050565b5f82825260208201905092915050565b5f819050602082019050919050565b5f73ffffffffffffffffffffffffffffffffffffffff82169050919050565b5f61087282610849565b9050919050565b61088281610868565b82525050565b5f81519050919050565b5f82825260208201905092915050565b8281835e5f83830152505050565b5f601f19601f8301169050919050565b5f6108ca82610888565b6108d48185610892565b93506108e48185602086016108a2565b6108ed816108b0565b840191505092915050565b5f819050919050565b61090a816108f8565b82525050565b5f608083015f8301516109255f860182610879565b506020830151848203602086015261093d82826108c0565b91505060408301516109526040860182610901565b5060608301516109656060860182610901565b508091505092915050565b5f61097b8383610910565b905092915050565b5f602082019050919050565b5f61099982610820565b6109a3818561082a565b9350836020820285016109b58561083a565b805f5b858110156109f057848403895281516109d18582610970565b94506109dc83610983565b925060208a019950506001810190506109b8565b50829750879550505050505092915050565b5f6020820190508181035f830152610a1a818461098f565b905092915050565b5f604051905090565b5f5ffd5b5f5ffd5b610a3c816108f8565b8114610a46575f5ffd5b50565b5f81359050610a5781610a33565b92915050565b5f60208284031215610a7257610a71610a2b565b5b5f610a7f84828501610a49565b91505092915050565b5f82825260208201905092915050565b5f610aa282610888565b610aac8185610a88565b9350610abc8185602086016108a2565b610ac5816108b0565b840191505092915050565b610ad9816108f8565b82525050565b5f6080820190508181035f830152610af78187610a98565b90508181036020830152610b0b8186610a98565b9050610b1a6040830185610ad0565b610b276060830184610ad0565b95945050505050565b5f5ffd5b5f5ffd5b7f4e487b71000000000000000000000000000000000000000000000000000000005f52604160045260245ffd5b610b6e826108b0565b810181811067ffffffffffffffff82111715610b8d57610b8c610b38565b5b80604052505050565b5f610b9f610a22565b9050610bab8282610b65565b919050565b5f67ffffffffffffffff821115610bca57610bc9610b38565b5b610bd3826108b0565b9050602081019050919050565b828183375f83830152505050565b5f610c00610bfb84610bb0565b610b96565b905082815260208101848484011115610c1c57610c1b610b34565b5b610c27848285610be0565b509392505050565b5f82601f830112610c4357610c42610b30565b5b8135610c53848260208601610bee565b91505092915050565b5f5f60408385031215610c7257610c71610a2b565b5b5f83013567ffffffffffffffff811115610c8f57610c8e610a2f565b5b610c9b85828601610c2f565b9250506020610cac85828601610a49565b9150509250929050565b5f81519050919050565b5f82825260208201905092915050565b5f819050602082019050919050565b5f608083015f8301518482035f860152610cf982826108c0565b91505060208301518482036020860152610d1382826108c0565b9150506040830151610d286040860182610901565b506060830151610d3b6060860182610901565b508091505092915050565b5f610d518383610cdf565b905092915050565b5f602082019050919050565b5f610d6f82610cb6565b610d798185610cc0565b935083602082028501610d8b85610cd0565b805f5b85811015610dc65784840389528151610da78582610d46565b9450610db283610d59565b925060208a01995050600181019050610d8e565b50829750879550505050505092915050565b5f6020820190508181035f830152610df08184610d65565b905092915050565b5f5f5f60608486031215610e0f57610e0e610a2b565b5b5f84013567ffffffffffffffff811115610e2c57610e2b610a2f565b5b610e3886828701610c2f565b935050602084013567ffffffffffffffff811115610e5957610e58610a2f565b5b610e6586828701610c2f565b9250506040610e7686828701610a49565b9150509250925092565b610e8981610868565b82525050565b5f608082019050610ea25f830187610e80565b8181036020830152610eb48186610a98565b9050610ec36040830185610ad0565b610ed06060830184610ad0565b95945050505050565b7f4e487b71000000000000000000000000000000000000000000000000000000005f52602260045260245ffd5b5f6002820490506001821680610f1d57607f821691505b602082108103610f3057610f2f610ed9565b5b50919050565b5f819050815f5260205f209050919050565b5f6020601f8301049050919050565b5f82821b905092915050565b5f60088302610f927fffffffffffffffffffffffffffffffffffffffffffffffffffffffffffffffff82610f57565b610f9c8683610f57565b95508019841693508086168417925050509392505050565b5f819050919050565b5f610fd7610fd2610fcd846108f8565b610fb4565b6108f8565b9050919050565b5f819050919050565b610ff083610fbd565b611004610ffc82610fde565b848454610f63565b825550505050565b5f5f905090565b61101b61100c565b611026818484610fe7565b505050565b5b818110156110495761103e5f82611013565b60018101905061102c565b5050565b601f82111561108e5761105f81610f36565b61106884610f48565b81016020851015611077578190505b61108b61108385610f48565b83018261102b565b50505b505050565b5f82821c905092915050565b5f6110ae5f1984600802611093565b1980831691505092915050565b5f6110c6838361109f565b9150826002028217905092915050565b6110df82610888565b67ffffffffffffffff8111156110f8576110f7610b38565b5b6111028254610f06565b61110d82828561104d565b5f60209050601f83116001811461113e575f841561112c578287015190505b61113685826110bb565b86555061119d565b601f19841661114c86610f36565b5f5b828110156111735784890151825560018201915060208501945060208101905061114e565b86831015611190578489015161118c601f89168261109f565b8355505b6001600288020188555050505b50505050505056fea2646970667358221220539a9201f16d6b222546437c9b797e863889177dc29153e7f60bfff7d4eaa7ab64736f6c634300081e0033",
					"opcodes": "PUSH1 0x80 PUSH1 0x40 MSTORE CALLVALUE DUP1 ISZERO PUSH1 0xE JUMPI PUSH0 PUSH0 REVERT JUMPDEST POP PUSH2 0x11DB DUP1 PUSH2 0x1C PUSH0 CODECOPY PUSH0 RETURN INVALID PUSH1 0x80 PUSH1 0x40 MSTORE CALLVALUE DUP1 ISZERO PUSH2 0xF JUMPI PUSH0 PUSH0 REVERT JUMPDEST POP PUSH1 0x4 CALLDATASIZE LT PUSH2 0x60 JUMPI PUSH0 CALLDATALOAD PUSH1 0xE0 SHR DUP1 PUSH4 0x38A59A07 EQ PUSH2 0x64 JUMPI DUP1 PUSH4 0x4487D3DF EQ PUSH2 0x82 JUMPI DUP1 PUSH4 0x6F94CBFE EQ PUSH2 0xB5 JUMPI DUP1 PUSH4 0x7B74691E EQ PUSH2 0xD1 JUMPI DUP1 PUSH4 0xE7C234E6 EQ PUSH2 0xEF JUMPI DUP1 PUSH4 0xF8626AF8 EQ PUSH2 0x10B JUMPI JUMPDEST PUSH0 PUSH0 REVERT JUMPDEST PUSH2 0x6C PUSH2 0x13E JUMP JUMPDEST PUSH1 0x40 MLOAD PUSH2 0x79 SWAP2 SWAP1 PUSH2 0xA02 JUMP JUMPDEST PUSH1 0x40 MLOAD DUP1 SWAP2 SUB SWAP1 RETURN JUMPDEST PUSH2 0x9C PUSH1 0x4 DUP1 CALLDATASIZE SUB DUP2 ADD SWAP1 PUSH2 0x97 SWAP2 SWAP1 PUSH2 0xA5D JUMP JUMPDEST PUSH2 0x291 JUMP JUMPDEST PUSH1 0x40 MLOAD PUSH2 0xAC SWAP5 SWAP4 SWAP3 SWAP2 SWAP1 PUSH2 0xADF JUMP JUMPDEST PUSH1 0x40 MLOAD DUP1 SWAP2 SUB SWAP1 RETURN JUMPDEST PUSH2 0xCF PUSH1 0x4 DUP1 CALLDATASIZE SUB DUP2 ADD SWAP1 PUSH2 0xCA SWAP2 SWAP1 PUSH2 0xC5C JUMP JUMPDEST PUSH2 0x3D8 JUMP JUMPDEST STOP JUMPDEST PUSH2 0xD9 PUSH2 0x4E7 JUMP JUMPDEST PUSH1 0x40 MLOAD PUSH2 0xE6 SWAP2 SWAP1 PUSH2 0xDD8 JUMP JUMPDEST PUSH1 0x40 MLOAD DUP1 SWAP2 SUB SWAP1 RETURN JUMPDEST PUSH2 0x109 PUSH1 0x4 DUP1 CALLDATASIZE SUB DUP2 ADD SWAP1 PUSH2 0x104 SWAP2 SWAP1 PUSH2 0xDF8 JUMP JUMPDEST PUSH2 0x676 JUMP JUMPDEST STOP JUMPDEST PUSH2 0x125 PUSH1 0x4 DUP1 CALLDATASIZE SUB DUP2 ADD SWAP1 PUSH2 0x120 SWAP2 SWAP1 PUSH2 0xA5D JUMP JUMPDEST PUSH2 0x741 JUMP JUMPDEST PUSH1 0x40 MLOAD PUSH2 0x135 SWAP5 SWAP4 SWAP3 SWAP2 SWAP1 PUSH2 0xE8F JUMP JUMPDEST PUSH1 0x40 MLOAD DUP1 SWAP2 SUB SWAP1 RETURN JUMPDEST PUSH1 0x60 PUSH0 DUP1 SLOAD DUP1 PUSH1 0x20 MUL PUSH1 0x20 ADD PUSH1 0x40 MLOAD SWAP1 DUP2 ADD PUSH1 0x40 MSTORE DUP1 SWAP3 SWAP2 SWAP1 DUP2 DUP2 MSTORE PUSH1 0x20 ADD PUSH0 SWAP1 JUMPDEST DUP3 DUP3 LT ISZERO PUSH2 0x288 JUMPI DUP4 DUP3 SWAP1 PUSH0 MSTORE PUSH1 0x20 PUSH0 KECCAK256 SWAP1 PUSH1 0x4 MUL ADD PUSH1 0x40 MLOAD DUP1 PUSH1 0x80 ADD PUSH1 0x40 MSTORE SWAP1 DUP2 PUSH0 DUP3 ADD PUSH0 SWAP1 SLOAD SWAP1 PUSH2 0x100 EXP SWAP1 DIV PUSH20 0xFFFFFFFFFFFFFFFFFFFFFFFFFFFFFFFFFFFFFFFF AND PUSH20 0xFFFFFFFFFFFFFFFFFFFFFFFFFFFFFFFFFFFFFFFF AND PUSH20 0xFFFFFFFFFFFFFFFFFFFFFFFFFFFFFFFFFFFFFFFF AND DUP2 MSTORE PUSH1 0x20 ADD PUSH1 0x1 DUP3 ADD DUP1 SLOAD PUSH2 0x1E5 SWAP1 PUSH2 0xF06 JUMP JUMPDEST DUP1 PUSH1 0x1F ADD PUSH1 0x20 DUP1 SWAP2 DIV MUL PUSH1 0x20 ADD PUSH1 0x40 MLOAD SWAP1 DUP2 ADD PUSH1 0x40 MSTORE DUP1 SWAP3 SWAP2 SWAP1 DUP2 DUP2 MSTORE PUSH1 0x20 ADD DUP3 DUP1 SLOAD PUSH2 0x211 SWAP1 PUSH2 0xF06 JUMP JUMPDEST DUP1 ISZERO PUSH2 0x25C JUMPI DUP1 PUSH1 0x1F LT PUSH2 0x233 JUMPI PUSH2 0x100 DUP1 DUP4 SLOAD DIV MUL DUP4 MSTORE SWAP2 PUSH1 0x20 ADD SWAP2 PUSH2 0x25C JUMP JUMPDEST DUP3 ADD SWAP2 SWAP1 PUSH0 MSTORE PUSH1 0x20 PUSH0 KECCAK256 SWAP1 JUMPDEST DUP2 SLOAD DUP2 MSTORE SWAP1 PUSH1 0x1 ADD SWAP1 PUSH1 0x20 ADD DUP1 DUP4 GT PUSH2 0x23F JUMPI DUP3 SWAP1 SUB PUSH1 0x1F AND DUP3 ADD SWAP2 JUMPDEST POP POP POP POP POP DUP2 MSTORE PUSH1 0x20 ADD PUSH1 0x2 DUP3 ADD SLOAD DUP2 MSTORE PUSH1 0x20 ADD PUSH1 0x3 DUP3 ADD SLOAD DUP2 MSTORE POP POP DUP2 MSTORE PUSH1 0x20 ADD SWAP1 PUSH1 0x1 ADD SWAP1 PUSH2 0x160 JUMP JUMPDEST POP POP POP POP SWAP1 POP SWAP1 JUMP JUMPDEST PUSH1 0x1 DUP2 DUP2 SLOAD DUP2 LT PUSH2 0x2A0 JUMPI PUSH0 DUP1 REVERT JUMPDEST SWAP1 PUSH0 MSTORE PUSH1 0x20 PUSH0 KECCAK256 SWAP1 PUSH1 0x4 MUL ADD PUSH0 SWAP2 POP SWAP1 POP DUP1 PUSH0 ADD DUP1 SLOAD PUSH2 0x2BF SWAP1 PUSH2 0xF06 JUMP JUMPDEST DUP1 PUSH1 0x1F ADD PUSH1 0x20 DUP1 SWAP2 DIV MUL PUSH1 0x20 ADD PUSH1 0x40 MLOAD SWAP1 DUP2 ADD PUSH1 0x40 MSTORE DUP1 SWAP3 SWAP2 SWAP1 DUP2 DUP2 MSTORE PUSH1 0x20 ADD DUP3 DUP1 SLOAD PUSH2 0x2EB SWAP1 PUSH2 0xF06 JUMP JUMPDEST DUP1 ISZERO PUSH2 0x336 JUMPI DUP1 PUSH1 0x1F LT PUSH2 0x30D JUMPI PUSH2 0x100 DUP1 DUP4 SLOAD DIV MUL DUP4 MSTORE SWAP2 PUSH1 0x20 ADD SWAP2 PUSH2 0x336 JUMP JUMPDEST DUP3 ADD SWAP2 SWAP1 PUSH0 MSTORE PUSH1 0x20 PUSH0 KECCAK256 SWAP1 JUMPDEST DUP2 SLOAD DUP2 MSTORE SWAP1 PUSH1 0x1 ADD SWAP1 PUSH1 0x20 ADD DUP1 DUP4 GT PUSH2 0x319 JUMPI DUP3 SWAP1 SUB PUSH1 0x1F AND DUP3 ADD SWAP2 JUMPDEST POP POP POP POP POP SWAP1 DUP1 PUSH1 0x1 ADD DUP1 SLOAD PUSH2 0x34B SWAP1 PUSH2 0xF06 JUMP JUMPDEST DUP1 PUSH1 0x1F ADD PUSH1 0x20 DUP1 SWAP2 DIV MUL PUSH1 0x20 ADD PUSH1 0x40 MLOAD SWAP1 DUP2 ADD PUSH1 0x40 MSTORE DUP1 SWAP3 SWAP2 SWAP1 DUP2 DUP2 MSTORE PUSH1 0x20 ADD DUP3 DUP1 SLOAD PUSH2 0x377 SWAP1 PUSH2 0xF06 JUMP JUMPDEST DUP1 ISZERO PUSH2 0x3C2 JUMPI DUP1 PUSH1 0x1F LT PUSH2 0x399 JUMPI PUSH2 0x100 DUP1 DUP4 SLOAD DIV MUL DUP4 MSTORE SWAP2 PUSH1 0x20 ADD SWAP2 PUSH2 0x3C2 JUMP JUMPDEST DUP3 ADD SWAP2 SWAP1 PUSH0 MSTORE PUSH1 0x20 PUSH0 KECCAK256 SWAP1 JUMPDEST DUP2 SLOAD DUP2 MSTORE SWAP1 PUSH1 0x1 ADD SWAP1 PUSH1 0x20 ADD DUP1 DUP4 GT PUSH2 0x3A5 JUMPI DUP3 SWAP1 SUB PUSH1 0x1F AND DUP3 ADD SWAP2 JUMPDEST POP POP POP POP POP SWAP1 DUP1 PUSH1 0x2 ADD SLOAD SWAP1 DUP1 PUSH1 0x3 ADD SLOAD SWAP1 POP DUP5 JUMP JUMPDEST PUSH0 PUSH1 0x40 MLOAD DUP1 PUSH1 0x80 ADD PUSH1 0x40 MSTORE DUP1 CALLER PUSH20 0xFFFFFFFFFFFFFFFFFFFFFFFFFFFFFFFFFFFFFFFF AND DUP2 MSTORE PUSH1 0x20 ADD DUP5 DUP2 MSTORE PUSH1 0x20 ADD DUP4 DUP2 MSTORE PUSH1 0x20 ADD TIMESTAMP DUP2 MSTORE POP SWAP1 DUP1 PUSH1 0x1 DUP2 SLOAD ADD DUP1 DUP3 SSTORE DUP1 SWAP2 POP POP PUSH1 0x1 SWAP1 SUB SWAP1 PUSH0 MSTORE PUSH1 0x20 PUSH0 KECCAK256 SWAP1 PUSH1 0x4 MUL ADD PUSH0 SWAP1 SWAP2 SWAP1 SWAP2 SWAP1 SWAP2 POP PUSH0 DUP3 ADD MLOAD DUP2 PUSH0 ADD PUSH0 PUSH2 0x100 EXP DUP2 SLOAD DUP2 PUSH20 0xFFFFFFFFFFFFFFFFFFFFFFFFFFFFFFFFFFFFFFFF MUL NOT AND SWAP1 DUP4 PUSH20 0xFFFFFFFFFFFFFFFFFFFFFFFFFFFFFFFFFFFFFFFF AND MUL OR SWAP1 SSTORE POP PUSH1 0x20 DUP3 ADD MLOAD DUP2 PUSH1 0x1 ADD SWAP1 DUP2 PUSH2 0x48F SWAP2 SWAP1 PUSH2 0x10D6 JUMP JUMPDEST POP PUSH1 0x40 DUP3 ADD MLOAD DUP2 PUSH1 0x2 ADD SSTORE PUSH1 0x60 DUP3 ADD MLOAD DUP2 PUSH1 0x3 ADD SSTORE POP POP PUSH32 0xEBDBFDD8B310D67EE2DF6AB0914F1ADC2E2D0574B0F728CE876E17A2A070CEBD CALLER DUP4 DUP4 TIMESTAMP PUSH1 0x40 MLOAD PUSH2 0x4DB SWAP5 SWAP4 SWAP3 SWAP2 SWAP1 PUSH2 0xE8F JUMP JUMPDEST PUSH1 0x40 MLOAD DUP1 SWAP2 SUB SWAP1 LOG1 POP POP JUMP JUMPDEST PUSH1 0x60 PUSH1 0x1 DUP1 SLOAD DUP1 PUSH1 0x20 MUL PUSH1 0x20 ADD PUSH1 0x40 MLOAD SWAP1 DUP2 ADD PUSH1 0x40 MSTORE DUP1 SWAP3 SWAP2 SWAP1 DUP2 DUP2 MSTORE PUSH1 0x20 ADD PUSH0 SWAP1 JUMPDEST DUP3 DUP3 LT ISZERO PUSH2 0x66D JUMPI DUP4 DUP3 SWAP1 PUSH0 MSTORE PUSH1 0x20 PUSH0 KECCAK256 SWAP1 PUSH1 0x4 MUL ADD PUSH1 0x40 MLOAD DUP1 PUSH1 0x80 ADD PUSH1 0x40 MSTORE SWAP1 DUP2 PUSH0 DUP3 ADD DUP1 SLOAD PUSH2 0x53A SWAP1 PUSH2 0xF06 JUMP JUMPDEST DUP1 PUSH1 0x1F ADD PUSH1 0x20 DUP1 SWAP2 DIV MUL PUSH1 0x20 ADD PUSH1 0x40 MLOAD SWAP1 DUP2 ADD PUSH1 0x40 MSTORE DUP1 SWAP3 SWAP2 SWAP1 DUP2 DUP2 MSTORE PUSH1 0x20 ADD DUP3 DUP1 SLOAD PUSH2 0x566 SWAP1 PUSH2 0xF06 JUMP JUMPDEST DUP1 ISZERO PUSH2 0x5B1 JUMPI DUP1 PUSH1 0x1F LT PUSH2 0x588 JUMPI PUSH2 0x100 DUP1 DUP4 SLOAD DIV MUL DUP4 MSTORE SWAP2 PUSH1 0x20 ADD SWAP2 PUSH2 0x5B1 JUMP JUMPDEST DUP3 ADD SWAP2 SWAP1 PUSH0 MSTORE PUSH1 0x20 PUSH0 KECCAK256 SWAP1 JUMPDEST DUP2 SLOAD DUP2 MSTORE SWAP1 PUSH1 0x1 ADD SWAP1 PUSH1 0x20 ADD DUP1 DUP4 GT PUSH2 0x594 JUMPI DUP3 SWAP1 SUB PUSH1 0x1F AND DUP3 ADD SWAP2 JUMPDEST POP POP POP POP POP DUP2 MSTORE PUSH1 0x20 ADD PUSH1 0x1 DUP3 ADD DUP1 SLOAD PUSH2 0x5CA SWAP1 PUSH2 0xF06 JUMP JUMPDEST DUP1 PUSH1 0x1F ADD PUSH1 0x20 DUP1 SWAP2 DIV MUL PUSH1 0x20 ADD PUSH1 0x40 MLOAD SWAP1 DUP2 ADD PUSH1 0x40 MSTORE DUP1 SWAP3 SWAP2 SWAP1 DUP2 DUP2 MSTORE PUSH1 0x20 ADD DUP3 DUP1 SLOAD PUSH2 0x5F6 SWAP1 PUSH2 0xF06 JUMP JUMPDEST DUP1 ISZERO PUSH2 0x641 JUMPI DUP1 PUSH1 0x1F LT PUSH2 0x618 JUMPI PUSH2 0x100 DUP1 DUP4 SLOAD DIV MUL DUP4 MSTORE SWAP2 PUSH1 0x20 ADD SWAP2 PUSH2 0x641 JUMP JUMPDEST DUP3 ADD SWAP2 SWAP1 PUSH0 MSTORE PUSH1 0x20 PUSH0 KECCAK256 SWAP1 JUMPDEST DUP2 SLOAD DUP2 MSTORE SWAP1 PUSH1 0x1 ADD SWAP1 PUSH1 0x20 ADD DUP1 DUP4 GT PUSH2 0x624 JUMPI DUP3 SWAP1 SUB PUSH1 0x1F AND DUP3 ADD SWAP2 JUMPDEST POP POP POP POP POP DUP2 MSTORE PUSH1 0x20 ADD PUSH1 0x2 DUP3 ADD SLOAD DUP2 MSTORE PUSH1 0x20 ADD PUSH1 0x3 DUP3 ADD SLOAD DUP2 MSTORE POP POP DUP2 MSTORE PUSH1 0x20 ADD SWAP1 PUSH1 0x1 ADD SWAP1 PUSH2 0x50A JUMP JUMPDEST POP POP POP POP SWAP1 POP SWAP1 JUMP JUMPDEST PUSH1 0x1 PUSH1 0x40 MLOAD DUP1 PUSH1 0x80 ADD PUSH1 0x40 MSTORE DUP1 DUP6 DUP2 MSTORE PUSH1 0x20 ADD DUP5 DUP2 MSTORE PUSH1 0x20 ADD DUP4 DUP2 MSTORE PUSH1 0x20 ADD TIMESTAMP DUP2 MSTORE POP SWAP1 DUP1 PUSH1 0x1 DUP2 SLOAD ADD DUP1 DUP3 SSTORE DUP1 SWAP2 POP POP PUSH1 0x1 SWAP1 SUB SWAP1 PUSH0 MSTORE PUSH1 0x20 PUSH0 KECCAK256 SWAP1 PUSH1 0x4 MUL ADD PUSH0 SWAP1 SWAP2 SWAP1 SWAP2 SWAP1 SWAP2 POP PUSH0 DUP3 ADD MLOAD DUP2 PUSH0 ADD SWAP1 DUP2 PUSH2 0x6D2 SWAP2 SWAP1 PUSH2 0x10D6 JUMP JUMPDEST POP PUSH1 0x20 DUP3 ADD MLOAD DUP2 PUSH1 0x1 ADD SWAP1 DUP2 PUSH2 0x6E8 SWAP2 SWAP1 PUSH2 0x10D6 JUMP JUMPDEST POP PUSH1 0x40 DUP3 ADD MLOAD DUP2 PUSH1 0x2 ADD SSTORE PUSH1 0x60 DUP3 ADD MLOAD DUP2 PUSH1 0x3 ADD SSTORE POP POP PUSH32 0x17CAB404D0FC6FF34A9E918DDC8C2888872A95B340164FC6552BFA9190776C3B DUP4 DUP4 DUP4 TIMESTAMP PUSH1 0x40 MLOAD PUSH2 0x734 SWAP5 SWAP4 SWAP3 SWAP2 SWAP1 PUSH2 0xADF JUMP JUMPDEST PUSH1 0x40 MLOAD DUP1 SWAP2 SUB SWAP1 LOG1 POP POP POP JUMP JUMPDEST PUSH0 DUP2 DUP2 SLOAD DUP2 LT PUSH2 0x74F JUMPI PUSH0 DUP1 REVERT JUMPDEST SWAP1 PUSH0 MSTORE PUSH1 0x20 PUSH0 KECCAK256 SWAP1 PUSH1 0x4 MUL ADD PUSH0 SWAP2 POP SWAP1 POP DUP1 PUSH0 ADD PUSH0 SWAP1 SLOAD SWAP1 PUSH2 0x100 EXP SWAP1 DIV PUSH20 0xFFFFFFFFFFFFFFFFFFFFFFFFFFFFFFFFFFFFFFFF AND SWAP1 DUP1 PUSH1 0x1 ADD DUP1 SLOAD PUSH2 0x793 SWAP1 PUSH2 0xF06 JUMP JUMPDEST DUP1 PUSH1 0x1F ADD PUSH1 0x20 DUP1 SWAP2 DIV MUL PUSH1 0x20 ADD PUSH1 0x40 MLOAD SWAP1 DUP2 ADD PUSH1 0x40 MSTORE DUP1 SWAP3 SWAP2 SWAP1 DUP2 DUP2 MSTORE PUSH1 0x20 ADD DUP3 DUP1 SLOAD PUSH2 0x7BF SWAP1 PUSH2 0xF06 JUMP JUMPDEST DUP1 ISZERO PUSH2 0x80A JUMPI DUP1 PUSH1 0x1F LT PUSH2 0x7E1 JUMPI PUSH2 0x100 DUP1 DUP4 SLOAD DIV MUL DUP4 MSTORE SWAP2 PUSH1 0x20 ADD SWAP2 PUSH2 0x80A JUMP JUMPDEST DUP3 ADD SWAP2 SWAP1 PUSH0 MSTORE PUSH1 0x20 PUSH0 KECCAK256 SWAP1 JUMPDEST DUP2 SLOAD DUP2 MSTORE SWAP1 PUSH1 0x1 ADD SWAP1 PUSH1 0x20 ADD DUP1 DUP4 GT PUSH2 0x7ED JUMPI DUP3 SWAP1 SUB PUSH1 0x1F AND DUP3 ADD SWAP2 JUMPDEST POP POP POP POP POP SWAP1 DUP1 PUSH1 0x2 ADD SLOAD SWAP1 DUP1 PUSH1 0x3 ADD SLOAD SWAP1 POP DUP5 JUMP JUMPDEST PUSH0 DUP2 MLOAD SWAP1 POP SWAP2 SWAP1 POP JUMP JUMPDEST PUSH0 DUP3 DUP3 MSTORE PUSH1 0x20 DUP3 ADD SWAP1 POP SWAP3 SWAP2 POP POP JUMP JUMPDEST PUSH0 DUP2 SWAP1 POP PUSH1 0x20 DUP3 ADD SWAP1 POP SWAP2 SWAP1 POP JUMP JUMPDEST PUSH0 PUSH20 0xFFFFFFFFFFFFFFFFFFFFFFFFFFFFFFFFFFFFFFFF DUP3 AND SWAP1 POP SWAP2 SWAP1 POP JUMP JUMPDEST PUSH0 PUSH2 0x872 DUP3 PUSH2 0x849 JUMP JUMPDEST SWAP1 POP SWAP2 SWAP1 POP JUMP JUMPDEST PUSH2 0x882 DUP2 PUSH2 0x868 JUMP JUMPDEST DUP3 MSTORE POP POP JUMP JUMPDEST PUSH0 DUP2 MLOAD SWAP1 POP SWAP2 SWAP1 POP JUMP JUMPDEST PUSH0 DUP3 DUP3 MSTORE PUSH1 0x20 DUP3 ADD SWAP1 POP SWAP3 SWAP2 POP POP JUMP JUMPDEST DUP3 DUP2 DUP4 MCOPY PUSH0 DUP4 DUP4 ADD MSTORE POP POP POP JUMP JUMPDEST PUSH0 PUSH1 0x1F NOT PUSH1 0x1F DUP4 ADD AND SWAP1 POP SWAP2 SWAP1 POP JUMP JUMPDEST PUSH0 PUSH2 0x8CA DUP3 PUSH2 0x888 JUMP JUMPDEST PUSH2 0x8D4 DUP2 DUP6 PUSH2 0x892 JUMP JUMPDEST SWAP4 POP PUSH2 0x8E4 DUP2 DUP6 PUSH1 0x20 DUP7 ADD PUSH2 0x8A2 JUMP JUMPDEST PUSH2 0x8ED DUP2 PUSH2 0x8B0 JUMP JUMPDEST DUP5 ADD SWAP2 POP POP SWAP3 SWAP2 POP POP JUMP JUMPDEST PUSH0 DUP2 SWAP1 POP SWAP2 SWAP1 POP JUMP JUMPDEST PUSH2 0x90A DUP2 PUSH2 0x8F8 JUMP JUMPDEST DUP3 MSTORE POP POP JUMP JUMPDEST PUSH0 PUSH1 0x80 DUP4 ADD PUSH0 DUP4 ADD MLOAD PUSH2 0x925 PUSH0 DUP7 ADD DUP3 PUSH2 0x879 JUMP JUMPDEST POP PUSH1 0x20 DUP4 ADD MLOAD DUP5 DUP3 SUB PUSH1 0x20 DUP7 ADD MSTORE PUSH2 0x93D DUP3 DUP3 PUSH2 0x8C0 JUMP JUMPDEST SWAP2 POP POP PUSH1 0x40 DUP4 ADD MLOAD PUSH2 0x952 PUSH1 0x40 DUP7 ADD DUP3 PUSH2 0x901 JUMP JUMPDEST POP PUSH1 0x60 DUP4 ADD MLOAD PUSH2 0x965 PUSH1 0x60 DUP7 ADD DUP3 PUSH2 0x901 JUMP JUMPDEST POP DUP1 SWAP2 POP POP SWAP3 SWAP2 POP POP JUMP JUMPDEST PUSH0 PUSH2 0x97B DUP4 DUP4 PUSH2 0x910 JUMP JUMPDEST SWAP1 POP SWAP3 SWAP2 POP POP JUMP JUMPDEST PUSH0 PUSH1 0x20 DUP3 ADD SWAP1 POP SWAP2 SWAP1 POP JUMP JUMPDEST PUSH0 PUSH2 0x999 DUP3 PUSH2 0x820 JUMP JUMPDEST PUSH2 0x9A3 DUP2 DUP6 PUSH2 0x82A JUMP JUMPDEST SWAP4 POP DUP4 PUSH1 0x20 DUP3 MUL DUP6 ADD PUSH2 0x9B5 DUP6 PUSH2 0x83A JUMP JUMPDEST DUP1 PUSH0 JUMPDEST DUP6 DUP2 LT ISZERO PUSH2 0x9F0 JUMPI DUP5 DUP5 SUB DUP10 MSTORE DUP2 MLOAD PUSH2 0x9D1 DUP6 DUP3 PUSH2 0x970 JUMP JUMPDEST SWAP5 POP PUSH2 0x9DC DUP4 PUSH2 0x983 JUMP JUMPDEST SWAP3 POP PUSH1 0x20 DUP11 ADD SWAP10 POP POP PUSH1 0x1 DUP2 ADD SWAP1 POP PUSH2 0x9B8 JUMP JUMPDEST POP DUP3 SWAP8 POP DUP8 SWAP6 POP POP POP POP POP POP SWAP3 SWAP2 POP POP JUMP JUMPDEST PUSH0 PUSH1 0x20 DUP3 ADD SWAP1 POP DUP2 DUP2 SUB PUSH0 DUP4 ADD MSTORE PUSH2 0xA1A DUP2 DUP5 PUSH2 0x98F JUMP JUMPDEST SWAP1 POP SWAP3 SWAP2 POP POP JUMP JUMPDEST PUSH0 PUSH1 0x40 MLOAD SWAP1 POP SWAP1 JUMP JUMPDEST PUSH0 PUSH0 REVERT JUMPDEST PUSH0 PUSH0 REVERT JUMPDEST PUSH2 0xA3C DUP2 PUSH2 0x8F8 JUMP JUMPDEST DUP2 EQ PUSH2 0xA46 JUMPI PUSH0 PUSH0 REVERT JUMPDEST POP JUMP JUMPDEST PUSH0 DUP2 CALLDATALOAD SWAP1 POP PUSH2 0xA57 DUP2 PUSH2 0xA33 JUMP JUMPDEST SWAP3 SWAP2 POP POP JUMP JUMPDEST PUSH0 PUSH1 0x20 DUP3 DUP5 SUB SLT ISZERO PUSH2 0xA72 JUMPI PUSH2 0xA71 PUSH2 0xA2B JUMP JUMPDEST JUMPDEST PUSH0 PUSH2 0xA7F DUP5 DUP3 DUP6 ADD PUSH2 0xA49 JUMP JUMPDEST SWAP2 POP POP SWAP3 SWAP2 POP POP JUMP JUMPDEST PUSH0 DUP3 DUP3 MSTORE PUSH1 0x20 DUP3 ADD SWAP1 POP SWAP3 SWAP2 POP POP JUMP JUMPDEST PUSH0 PUSH2 0xAA2 DUP3 PUSH2 0x888 JUMP JUMPDEST PUSH2 0xAAC DUP2 DUP6 PUSH2 0xA88 JUMP JUMPDEST SWAP4 POP PUSH2 0xABC DUP2 DUP6 PUSH1 0x20 DUP7 ADD PUSH2 0x8A2 JUMP JUMPDEST PUSH2 0xAC5 DUP2 PUSH2 0x8B0 JUMP JUMPDEST DUP5 ADD SWAP2 POP POP SWAP3 SWAP2 POP POP JUMP JUMPDEST PUSH2 0xAD9 DUP2 PUSH2 0x8F8 JUMP JUMPDEST DUP3 MSTORE POP POP JUMP JUMPDEST PUSH0 PUSH1 0x80 DUP3 ADD SWAP1 POP DUP2 DUP2 SUB PUSH0 DUP4 ADD MSTORE PUSH2 0xAF7 DUP2 DUP8 PUSH2 0xA98 JUMP JUMPDEST SWAP1 POP DUP2 DUP2 SUB PUSH1 0x20 DUP4 ADD MSTORE PUSH2 0xB0B DUP2 DUP7 PUSH2 0xA98 JUMP JUMPDEST SWAP1 POP PUSH2 0xB1A PUSH1 0x40 DUP4 ADD DUP6 PUSH2 0xAD0 JUMP JUMPDEST PUSH2 0xB27 PUSH1 0x60 DUP4 ADD DUP5 PUSH2 0xAD0 JUMP JUMPDEST SWAP6 SWAP5 POP POP POP POP POP JUMP JUMPDEST PUSH0 PUSH0 REVERT JUMPDEST PUSH0 PUSH0 REVERT JUMPDEST PUSH32 0x4E487B7100000000000000000000000000000000000000000000000000000000 PUSH0 MSTORE PUSH1 0x41 PUSH1 0x4 MSTORE PUSH1 0x24 PUSH0 REVERT JUMPDEST PUSH2 0xB6E DUP3 PUSH2 0x8B0 JUMP JUMPDEST DUP2 ADD DUP2 DUP2 LT PUSH8 0xFFFFFFFFFFFFFFFF DUP3 GT OR ISZERO PUSH2 0xB8D JUMPI PUSH2 0xB8C PUSH2 0xB38 JUMP JUMPDEST JUMPDEST DUP1 PUSH1 0x40 MSTORE POP POP POP JUMP JUMPDEST PUSH0 PUSH2 0xB9F PUSH2 0xA22 JUMP JUMPDEST SWAP1 POP PUSH2 0xBAB DUP3 DUP3 PUSH2 0xB65 JUMP JUMPDEST SWAP2 SWAP1 POP JUMP JUMPDEST PUSH0 PUSH8 0xFFFFFFFFFFFFFFFF DUP3 GT ISZERO PUSH2 0xBCA JUMPI PUSH2 0xBC9 PUSH2 0xB38 JUMP JUMPDEST JUMPDEST PUSH2 0xBD3 DUP3 PUSH2 0x8B0 JUMP JUMPDEST SWAP1 POP PUSH1 0x20 DUP2 ADD SWAP1 POP SWAP2 SWAP1 POP JUMP JUMPDEST DUP3 DUP2 DUP4 CALLDATACOPY PUSH0 DUP4 DUP4 ADD MSTORE POP POP POP JUMP JUMPDEST PUSH0 PUSH2 0xC00 PUSH2 0xBFB DUP5 PUSH2 0xBB0 JUMP JUMPDEST PUSH2 0xB96 JUMP JUMPDEST SWAP1 POP DUP3 DUP2 MSTORE PUSH1 0x20 DUP2 ADD DUP5 DUP5 DUP5 ADD GT ISZERO PUSH2 0xC1C JUMPI PUSH2 0xC1B PUSH2 0xB34 JUMP JUMPDEST JUMPDEST PUSH2 0xC27 DUP5 DUP3 DUP6 PUSH2 0xBE0 JUMP JUMPDEST POP SWAP4 SWAP3 POP POP POP JUMP JUMPDEST PUSH0 DUP3 PUSH1 0x1F DUP4 ADD SLT PUSH2 0xC43 JUMPI PUSH2 0xC42 PUSH2 0xB30 JUMP JUMPDEST JUMPDEST DUP2 CALLDATALOAD PUSH2 0xC53 DUP5 DUP3 PUSH1 0x20 DUP7 ADD PUSH2 0xBEE JUMP JUMPDEST SWAP2 POP POP SWAP3 SWAP2 POP POP JUMP JUMPDEST PUSH0 PUSH0 PUSH1 0x40 DUP4 DUP6 SUB SLT ISZERO PUSH2 0xC72 JUMPI PUSH2 0xC71 PUSH2 0xA2B JUMP JUMPDEST JUMPDEST PUSH0 DUP4 ADD CALLDATALOAD PUSH8 0xFFFFFFFFFFFFFFFF DUP2 GT ISZERO PUSH2 0xC8F JUMPI PUSH2 0xC8E PUSH2 0xA2F JUMP JUMPDEST JUMPDEST PUSH2 0xC9B DUP6 DUP3 DUP7 ADD PUSH2 0xC2F JUMP JUMPDEST SWAP3 POP POP PUSH1 0x20 PUSH2 0xCAC DUP6 DUP3 DUP7 ADD PUSH2 0xA49 JUMP JUMPDEST SWAP2 POP POP SWAP3 POP SWAP3 SWAP1 POP JUMP JUMPDEST PUSH0 DUP2 MLOAD SWAP1 POP SWAP2 SWAP1 POP JUMP JUMPDEST PUSH0 DUP3 DUP3 MSTORE PUSH1 0x20 DUP3 ADD SWAP1 POP SWAP3 SWAP2 POP POP JUMP JUMPDEST PUSH0 DUP2 SWAP1 POP PUSH1 0x20 DUP3 ADD SWAP1 POP SWAP2 SWAP1 POP JUMP JUMPDEST PUSH0 PUSH1 0x80 DUP4 ADD PUSH0 DUP4 ADD MLOAD DUP5 DUP3 SUB PUSH0 DUP7 ADD MSTORE PUSH2 0xCF9 DUP3 DUP3 PUSH2 0x8C0 JUMP JUMPDEST SWAP2 POP POP PUSH1 0x20 DUP4 ADD MLOAD DUP5 DUP3 SUB PUSH1 0x20 DUP7 ADD MSTORE PUSH2 0xD13 DUP3 DUP3 PUSH2 0x8C0 JUMP JUMPDEST SWAP2 POP POP PUSH1 0x40 DUP4 ADD MLOAD PUSH2 0xD28 PUSH1 0x40 DUP7 ADD DUP3 PUSH2 0x901 JUMP JUMPDEST POP PUSH1 0x60 DUP4 ADD MLOAD PUSH2 0xD3B PUSH1 0x60 DUP7 ADD DUP3 PUSH2 0x901 JUMP JUMPDEST POP DUP1 SWAP2 POP POP SWAP3 SWAP2 POP POP JUMP JUMPDEST PUSH0 PUSH2 0xD51 DUP4 DUP4 PUSH2 0xCDF JUMP JUMPDEST SWAP1 POP SWAP3 SWAP2 POP POP JUMP JUMPDEST PUSH0 PUSH1 0x20 DUP3 ADD SWAP1 POP SWAP2 SWAP1 POP JUMP JUMPDEST PUSH0 PUSH2 0xD6F DUP3 PUSH2 0xCB6 JUMP JUMPDEST PUSH2 0xD79 DUP2 DUP6 PUSH2 0xCC0 JUMP JUMPDEST SWAP4 POP DUP4 PUSH1 0x20 DUP3 MUL DUP6 ADD PUSH2 0xD8B DUP6 PUSH2 0xCD0 JUMP JUMPDEST DUP1 PUSH0 JUMPDEST DUP6 DUP2 LT ISZERO PUSH2 0xDC6 JUMPI DUP5 DUP5 SUB DUP10 MSTORE DUP2 MLOAD PUSH2 0xDA7 DUP6 DUP3 PUSH2 0xD46 JUMP JUMPDEST SWAP5 POP PUSH2 0xDB2 DUP4 PUSH2 0xD59 JUMP JUMPDEST SWAP3 POP PUSH1 0x20 DUP11 ADD SWAP10 POP POP PUSH1 0x1 DUP2 ADD SWAP1 POP PUSH2 0xD8E JUMP JUMPDEST POP DUP3 SWAP8 POP DUP8 SWAP6 POP POP POP POP POP POP SWAP3 SWAP2 POP POP JUMP JUMPDEST PUSH0 PUSH1 0x20 DUP3 ADD SWAP1 POP DUP2 DUP2 SUB PUSH0 DUP4 ADD MSTORE PUSH2 0xDF0 DUP2 DUP5 PUSH2 0xD65 JUMP JUMPDEST SWAP1 POP SWAP3 SWAP2 POP POP JUMP JUMPDEST PUSH0 PUSH0 PUSH0 PUSH1 0x60 DUP5 DUP7 SUB SLT ISZERO PUSH2 0xE0F JUMPI PUSH2 0xE0E PUSH2 0xA2B JUMP JUMPDEST JUMPDEST PUSH0 DUP5 ADD CALLDATALOAD PUSH8 0xFFFFFFFFFFFFFFFF DUP2 GT ISZERO PUSH2 0xE2C JUMPI PUSH2 0xE2B PUSH2 0xA2F JUMP JUMPDEST JUMPDEST PUSH2 0xE38 DUP7 DUP3 DUP8 ADD PUSH2 0xC2F JUMP JUMPDEST SWAP4 POP POP PUSH1 0x20 DUP5 ADD CALLDATALOAD PUSH8 0xFFFFFFFFFFFFFFFF DUP2 GT ISZERO PUSH2 0xE59 JUMPI PUSH2 0xE58 PUSH2 0xA2F JUMP JUMPDEST JUMPDEST PUSH2 0xE65 DUP7 DUP3 DUP8 ADD PUSH2 0xC2F JUMP JUMPDEST SWAP3 POP POP PUSH1 0x40 PUSH2 0xE76 DUP7 DUP3 DUP8 ADD PUSH2 0xA49 JUMP JUMPDEST SWAP2 POP POP SWAP3 POP SWAP3 POP SWAP3 JUMP JUMPDEST PUSH2 0xE89 DUP2 PUSH2 0x868 JUMP JUMPDEST DUP3 MSTORE POP POP JUMP JUMPDEST PUSH0 PUSH1 0x80 DUP3 ADD SWAP1 POP PUSH2 0xEA2 PUSH0 DUP4 ADD DUP8 PUSH2 0xE80 JUMP JUMPDEST DUP2 DUP2 SUB PUSH1 0x20 DUP4 ADD MSTORE PUSH2 0xEB4 DUP2 DUP7 PUSH2 0xA98 JUMP JUMPDEST SWAP1 POP PUSH2 0xEC3 PUSH1 0x40 DUP4 ADD DUP6 PUSH2 0xAD0 JUMP JUMPDEST PUSH2 0xED0 PUSH1 0x60 DUP4 ADD DUP5 PUSH2 0xAD0 JUMP JUMPDEST SWAP6 SWAP5 POP POP POP POP POP JUMP JUMPDEST PUSH32 0x4E487B7100000000000000000000000000000000000000000000000000000000 PUSH0 MSTORE PUSH1 0x22 PUSH1 0x4 MSTORE PUSH1 0x24 PUSH0 REVERT JUMPDEST PUSH0 PUSH1 0x2 DUP3 DIV SWAP1 POP PUSH1 0x1 DUP3 AND DUP1 PUSH2 0xF1D JUMPI PUSH1 0x7F DUP3 AND SWAP2 POP JUMPDEST PUSH1 0x20 DUP3 LT DUP2 SUB PUSH2 0xF30 JUMPI PUSH2 0xF2F PUSH2 0xED9 JUMP JUMPDEST JUMPDEST POP SWAP2 SWAP1 POP JUMP JUMPDEST PUSH0 DUP2 SWAP1 POP DUP2 PUSH0 MSTORE PUSH1 0x20 PUSH0 KECCAK256 SWAP1 POP SWAP2 SWAP1 POP JUMP JUMPDEST PUSH0 PUSH1 0x20 PUSH1 0x1F DUP4 ADD DIV SWAP1 POP SWAP2 SWAP1 POP JUMP JUMPDEST PUSH0 DUP3 DUP3 SHL SWAP1 POP SWAP3 SWAP2 POP POP JUMP JUMPDEST PUSH0 PUSH1 0x8 DUP4 MUL PUSH2 0xF92 PUSH32 0xFFFFFFFFFFFFFFFFFFFFFFFFFFFFFFFFFFFFFFFFFFFFFFFFFFFFFFFFFFFFFFFF DUP3 PUSH2 0xF57 JUMP JUMPDEST PUSH2 0xF9C DUP7 DUP4 PUSH2 0xF57 JUMP JUMPDEST SWAP6 POP DUP1 NOT DUP5 AND SWAP4 POP DUP1 DUP7 AND DUP5 OR SWAP3 POP POP POP SWAP4 SWAP3 POP POP POP JUMP JUMPDEST PUSH0 DUP2 SWAP1 POP SWAP2 SWAP1 POP JUMP JUMPDEST PUSH0 PUSH2 0xFD7 PUSH2 0xFD2 PUSH2 0xFCD DUP5 PUSH2 0x8F8 JUMP JUMPDEST PUSH2 0xFB4 JUMP JUMPDEST PUSH2 0x8F8 JUMP JUMPDEST SWAP1 POP SWAP2 SWAP1 POP JUMP JUMPDEST PUSH0 DUP2 SWAP1 POP SWAP2 SWAP1 POP JUMP JUMPDEST PUSH2 0xFF0 DUP4 PUSH2 0xFBD JUMP JUMPDEST PUSH2 0x1004 PUSH2 0xFFC DUP3 PUSH2 0xFDE JUMP JUMPDEST DUP5 DUP5 SLOAD PUSH2 0xF63 JUMP JUMPDEST DUP3 SSTORE POP POP POP POP JUMP JUMPDEST PUSH0 PUSH0 SWAP1 POP SWAP1 JUMP JUMPDEST PUSH2 0x101B PUSH2 0x100C JUMP JUMPDEST PUSH2 0x1026 DUP2 DUP5 DUP5 PUSH2 0xFE7 JUMP JUMPDEST POP POP POP JUMP JUMPDEST JUMPDEST DUP2 DUP2 LT ISZERO PUSH2 0x1049 JUMPI PUSH2 0x103E PUSH0 DUP3 PUSH2 0x1013 JUMP JUMPDEST PUSH1 0x1 DUP2 ADD SWAP1 POP PUSH2 0x102C JUMP JUMPDEST POP POP JUMP JUMPDEST PUSH1 0x1F DUP3 GT ISZERO PUSH2 0x108E JUMPI PUSH2 0x105F DUP2 PUSH2 0xF36 JUMP JUMPDEST PUSH2 0x1068 DUP5 PUSH2 0xF48 JUMP JUMPDEST DUP2 ADD PUSH1 0x20 DUP6 LT ISZERO PUSH2 0x1077 JUMPI DUP2 SWAP1 POP JUMPDEST PUSH2 0x108B PUSH2 0x1083 DUP6 PUSH2 0xF48 JUMP JUMPDEST DUP4 ADD DUP3 PUSH2 0x102B JUMP JUMPDEST POP POP JUMPDEST POP POP POP JUMP JUMPDEST PUSH0 DUP3 DUP3 SHR SWAP1 POP SWAP3 SWAP2 POP POP JUMP JUMPDEST PUSH0 PUSH2 0x10AE PUSH0 NOT DUP5 PUSH1 0x8 MUL PUSH2 0x1093 JUMP JUMPDEST NOT DUP1 DUP4 AND SWAP2 POP POP SWAP3 SWAP2 POP POP JUMP JUMPDEST PUSH0 PUSH2 0x10C6 DUP4 DUP4 PUSH2 0x109F JUMP JUMPDEST SWAP2 POP DUP3 PUSH1 0x2 MUL DUP3 OR SWAP1 POP SWAP3 SWAP2 POP POP JUMP JUMPDEST PUSH2 0x10DF DUP3 PUSH2 0x888 JUMP JUMPDEST PUSH8 0xFFFFFFFFFFFFFFFF DUP2 GT ISZERO PUSH2 0x10F8 JUMPI PUSH2 0x10F7 PUSH2 0xB38 JUMP JUMPDEST JUMPDEST PUSH2 0x1102 DUP3 SLOAD PUSH2 0xF06 JUMP JUMPDEST PUSH2 0x110D DUP3 DUP3 DUP6 PUSH2 0x104D JUMP JUMPDEST PUSH0 PUSH1 0x20 SWAP1 POP PUSH1 0x1F DUP4 GT PUSH1 0x1 DUP2 EQ PUSH2 0x113E JUMPI PUSH0 DUP5 ISZERO PUSH2 0x112C JUMPI DUP3 DUP8 ADD MLOAD SWAP1 POP JUMPDEST PUSH2 0x1136 DUP6 DUP3 PUSH2 0x10BB JUMP JUMPDEST DUP7 SSTORE POP PUSH2 0x119D JUMP JUMPDEST PUSH1 0x1F NOT DUP5 AND PUSH2 0x114C DUP7 PUSH2 0xF36 JUMP JUMPDEST PUSH0 JUMPDEST DUP3 DUP2 LT ISZERO PUSH2 0x1173 JUMPI DUP5 DUP10 ADD MLOAD DUP3 SSTORE PUSH1 0x1 DUP3 ADD SWAP2 POP PUSH1 0x20 DUP6 ADD SWAP5 POP PUSH1 0x20 DUP2 ADD SWAP1 POP PUSH2 0x114E JUMP JUMPDEST DUP7 DUP4 LT ISZERO PUSH2 0x1190 JUMPI DUP5 DUP10 ADD MLOAD PUSH2 0x118C PUSH1 0x1F DUP10 AND DUP3 PUSH2 0x109F JUMP JUMPDEST DUP4 SSTORE POP JUMPDEST PUSH1 0x1 PUSH1 0x2 DUP9 MUL ADD DUP9 SSTORE POP POP POP JUMPDEST POP POP POP POP POP POP JUMP INVALID LOG2 PUSH5 0x6970667358 0x22 SLT KECCAK256 MSTORE8 SWAP11 SWAP3 ADD CALL PUSH14 0x6B222546437C9B797E863889177D 0xC2 SWAP2 MSTORE8 SWAPN 0xF6 SIGNEXTEND SELFDESTRUCT 0xF7 0xD4 0xEA 0xA7 0xAB PUSH5 0x736F6C6343 STOP ADDMOD 0x1E STOP CALLER "
				},
				"gasEstimates": {
					"creation": {
						"codeDepositCost": "914200",
						"executionCost": "946",
						"totalCost": "915146"
					},
					"external": {
						"distributions(uint256)": "infinite",
						"donations(uint256)": "infinite",
						"getAllDistributions()": "infinite",
						"getAllDonations()": "infinite",
						"logAid(string,string,uint256)": "infinite",
						"logDonation(string,uint256)": "infinite"
					}
				},
				"methodIdentifiers": {
					"distributions(uint256)": "4487d3df",
					"donations(uint256)": "f8626af8",
					"getAllDistributions()": "7b74691e",
					"getAllDonations()": "38a59a07",
					"logAid(string,string,uint256)": "e7c234e6",
					"logDonation(string,uint256)": "6f94cbfe"
				}
			},
			"storageLayout": {
				"storage": [
					{
						"astId": 23,
						"contract": "contracts/aiddistributor.sol:AidTracker",
						"label": "donations",
						"offset": 0,
						"slot": "0",
						"type": "t_array(t_struct(Donation)10_storage)dyn_storage"
					},
					{
						"astId": 27,
						"contract": "contracts/aiddistributor.sol:AidTracker",
						"label": "distributions",
						"offset": 0,
						"slot": "1",
						"type": "t_array(t_struct(Distribution)19_storage)dyn_storage"
					}
				],
				"types": {
					"t_address": {
						"encoding": "inplace",
						"label": "address",
						"numberOfBytes": "20"
					},
					"t_array(t_struct(Distribution)19_storage)dyn_storage": {
						"base": "t_struct(Distribution)19_storage",
						"encoding": "dynamic_array",
						"label": "struct AidTracker.Distribution[]",
						"numberOfBytes": "32"
					},
					"t_array(t_struct(Donation)10_storage)dyn_storage": {
						"base": "t_struct(Donation)10_storage",
						"encoding": "dynamic_array",
						"label": "struct AidTracker.Donation[]",
						"numberOfBytes": "32"
					},
					"t_string_storage": {
						"encoding": "bytes",
						"label": "string",
						"numberOfBytes": "32"
					},
					"t_struct(Distribution)19_storage": {
						"encoding": "inplace",
						"label": "struct AidTracker.Distribution",
						"members": [
							{
								"astId": 12,
								"contract": "contracts/aiddistributor.sol:AidTracker",
								"label": "cid",
								"offset": 0,
								"slot": "0",
								"type": "t_string_storage"
							},
							{
								"astId": 14,
								"contract": "contracts/aiddistributor.sol:AidTracker",
								"label": "location",
								"offset": 0,
								"slot": "1",
								"type": "t_string_storage"
							},
							{
								"astId": 16,
								"contract": "contracts/aiddistributor.sol:AidTracker",
								"label": "amount",
								"offset": 0,
								"slot": "2",
								"type": "t_uint256"
							},
							{
								"astId": 18,
								"contract": "contracts/aiddistributor.sol:AidTracker",
								"label": "timestamp",
								"offset": 0,
								"slot": "3",
								"type": "t_uint256"
							}
						],
						"numberOfBytes": "128"
					},
					"t_struct(Donation)10_storage": {
						"encoding": "inplace",
						"label": "struct AidTracker.Donation",
						"members": [
							{
								"astId": 3,
								"contract": "contracts/aiddistributor.sol:AidTracker",
								"label": "donor",
								"offset": 0,
								"slot": "0",
								"type": "t_address"
							},
							{
								"astId": 5,
								"contract": "contracts/aiddistributor.sol:AidTracker",
								"label": "cid",
								"offset": 0,
								"slot": "1",
								"type": "t_string_storage"
							},
							{
								"astId": 7,
								"contract": "contracts/aiddistributor.sol:AidTracker",
								"label": "amount",
								"offset": 0,
								"slot": "2",
								"type": "t_uint256"
							},
							{
								"astId": 9,
								"contract": "contracts/aiddistributor.sol:AidTracker",
								"label": "timestamp",
								"offset": 0,
								"slot": "3",
								"type": "t_uint256"
							}
						],
						"numberOfBytes": "128"
					},
					"t_uint256": {
						"encoding": "inplace",
						"label": "uint256",
						"numberOfBytes": "32"
					}
				}
			},
			"userdoc": {
				"kind": "user",
				"methods": {},
				"version": 1
			}
		}
	}
}