{
	"data": {
		"bytecode": {
			"linkReferences": {},
			"object": "6080604052348015600e575f5ffd5b50600a5f81905550610290806100235f395ff3fe608060405234801561000f575f5ffd5b506004361061003f575f3560e01c80632baeceb7146100435780636d4ce63c1461004d578063d09de08a1461006b575b5f5ffd5b61004b610075565b005b6100556100d0565b6040516100629190610108565b60405180910390f35b6100736100d8565b005b5f5f54116100b8576040517f08c379a00000000000000000000000000000000000000000000000000000000081526004016100af906101a1565b60405180910390fd5b5f5f8154809291906100c9906101ec565b9190505550565b5f5f54905090565b5f5f8154809291906100e990610213565b9190505550565b5f819050919050565b610102816100f0565b82525050565b5f60208201905061011b5f8301846100f9565b92915050565b5f82825260208201905092915050565b7f76616c756520697320616c7265616479207a65726f2063616e277420646563725f8201527f65617365206d6f72650000000000000000000000000000000000000000000000602082015250565b5f61018b602983610121565b915061019682610131565b604082019050919050565b5f6020820190508181035f8301526101b88161017f565b9050919050565b7f4e487b71000000000000000000000000000000000000000000000000000000005f52601160045260245ffd5b5f6101f6826100f0565b91505f8203610208576102076101bf565b5b600182039050919050565b5f61021d826100f0565b91507fffffffffffffffffffffffffffffffffffffffffffffffffffffffffffffffff820361024f5761024e6101bf565b5b60018201905091905056fea2646970667358221220637b11e3265384ab2a2f06581332dbe0ba14a00d98b7c3cddfc301e153a9a9fb64736f6c634300081e0033",
			"opcodes": "PUSH1 0x80 PUSH1 0x40 MSTORE CALLVALUE DUP1 ISZERO PUSH1 0xE JUMPI PUSH0 PUSH0 REVERT JUMPDEST POP PUSH1 0xA PUSH0 DUP2 SWAP1 SSTORE POP PUSH2 0x290 DUP1 PUSH2 0x23 PUSH0 CODECOPY PUSH0 RETURN INVALID PUSH1 0x80 PUSH1 0x40 MSTORE CALLVALUE DUP1 ISZERO PUSH2 0xF JUMPI PUSH0 PUSH0 REVERT JUMPDEST POP PUSH1 0x4 CALLDATASIZE LT PUSH2 0x3F JUMPI PUSH0 CALLDATALOAD PUSH1 0xE0 SHR DUP1 PUSH4 0x2BAECEB7 EQ PUSH2 0x43 JUMPI DUP1 PUSH4 0x6D4CE63C EQ PUSH2 0x4D JUMPI DUP1 PUSH4 0xD09DE08A EQ PUSH2 0x6B JUMPI JUMPDEST PUSH0 PUSH0 REVERT JUMPDEST PUSH2 0x4B PUSH2 0x75 JUMP JUMPDEST STOP JUMPDEST PUSH2 0x55 PUSH2 0xD0 JUMP JUMPDEST PUSH1 0x40 MLOAD PUSH2 0x62 SWAP2 SWAP1 PUSH2 0x108 JUMP JUMPDEST PUSH1 0x40 MLOAD DUP1 SWAP2 SUB SWAP1 RETURN JUMPDEST PUSH2 0x73 PUSH2 0xD8 JUMP JUMPDEST STOP JUMPDEST PUSH0 PUSH0 SLOAD GT PUSH2 0xB8 JUMPI PUSH1 0x40 MLOAD PUSH32 0x8C379A000000000000000000000000000000000000000000000000000000000 DUP2 MSTORE PUSH1 0x4 ADD PUSH2 0xAF SWAP1 PUSH2 0x1A1 JUMP JUMPDEST PUSH1 0x40 MLOAD DUP1 SWAP2 SUB SWAP1 REVERT JUMPDEST PUSH0 PUSH0 DUP2 SLOAD DUP1 SWAP3 SWAP2 SWAP1 PUSH2 0xC9 SWAP1 PUSH2 0x1EC JUMP JUMPDEST SWAP2 SWAP1 POP SSTORE POP JUMP JUMPDEST PUSH0 PUSH0 SLOAD SWAP1 POP SWAP1 JUMP JUMPDEST PUSH0 PUSH0 DUP2 SLOAD DUP1 SWAP3 SWAP2 SWAP1 PUSH2 0xE9 SWAP1 PUSH2 0x213 JUMP JUMPDEST SWAP2 SWAP1 POP SSTORE POP JUMP JUMPDEST PUSH0 DUP2 SWAP1 POP SWAP2 SWAP1 POP JUMP JUMPDEST PUSH2 0x102 DUP2 PUSH2 0xF0 JUMP JUMPDEST DUP3 MSTORE POP POP JUMP JUMPDEST PUSH0 PUSH1 0x20 DUP3 ADD SWAP1 POP PUSH2 0x11B PUSH0 DUP4 ADD DUP5 PUSH2 0xF9 JUMP JUMPDEST SWAP3 SWAP2 POP POP JUMP JUMPDEST PUSH0 DUP3 DUP3 MSTORE PUSH1 0x20 DUP3 ADD SWAP1 POP SWAP3 SWAP2 POP POP JUMP JUMPDEST PUSH32 0x76616C756520697320616C7265616479207A65726F2063616E27742064656372 PUSH0 DUP3 ADD MSTORE PUSH32 0x65617365206D6F72650000000000000000000000000000000000000000000000 PUSH1 0x20 DUP3 ADD MSTORE POP JUMP JUMPDEST PUSH0 PUSH2 0x18B PUSH1 0x29 DUP4 PUSH2 0x121 JUMP JUMPDEST SWAP2 POP PUSH2 0x196 DUP3 PUSH2 0x131 JUMP JUMPDEST PUSH1 0x40 DUP3 ADD SWAP1 POP SWAP2 SWAP1 POP JUMP JUMPDEST PUSH0 PUSH1 0x20 DUP3 ADD SWAP1 POP DUP2 DUP2 SUB PUSH0 DUP4 ADD MSTORE PUSH2 0x1B8 DUP2 PUSH2 0x17F JUMP JUMPDEST SWAP1 POP SWAP2 SWAP1 POP JUMP JUMPDEST PUSH32 0x4E487B7100000000000000000000000000000000000000000000000000000000 PUSH0 MSTORE PUSH1 0x11 PUSH1 0x4 MSTORE PUSH1 0x24 PUSH0 REVERT JUMPDEST PUSH0 PUSH2 0x1F6 DUP3 PUSH2 0xF0 JUMP JUMPDEST SWAP2 POP PUSH0 DUP3 SUB PUSH2 0x208 JUMPI PUSH2 0x207 PUSH2 0x1BF JUMP JUMPDEST JUMPDEST PUSH1 0x1 DUP3 SUB SWAP1 POP SWAP2 SWAP1 POP JUMP JUMPDEST PUSH0 PUSH2 0x21D DUP3 PUSH2 0xF0 JUMP JUMPDEST SWAP2 POP PUSH32 0xFFFFFFFFFFFFFFFFFFFFFFFFFFFFFFFFFFFFFFFFFFFFFFFFFFFFFFFFFFFFFFFF DUP3 SUB PUSH2 0x24F JUMPI PUSH2 0x24E PUSH2 0x1BF JUMP JUMPDEST JUMPDEST PUSH1 0x1 DUP3 ADD SWAP1 POP SWAP2 SWAP1 POP JUMP INVALID LOG2 PUSH5 0x6970667358 0x22 SLT KECCAK256 PUSH4 0x7B11E326 MSTORE8 DUP5 0xAB 0x2A 0x2F MOD PC SGT ORIGIN 0xDB RJUMP 0xBA14 LOG0 0xD SWAP9 0xB7 0xC3 0xCD 0xDF 0xC3 ADD RJUMPI 0x53A9 0xA9 EXTSTATICCALL PUSH5 0x736F6C6343 STOP ADDMOD 0x1E STOP CALLER "
		},
		"gasEstimates": {
			"creation": {
				"codeDepositCost": "131200",
				"executionCost": "22288",
				"totalCost": "153488"
			},
			"external": {
				"decrement()": "26594",
				"get()": "2431",
				"increment()": "24518"
			}
		},
		"methodIdentifiers": {
			"decrement()": "2baeceb7",
			"get()": "6d4ce63c",
			"increment()": "d09de08a"
		}
	},
	"abi": [
		{
			"inputs": [],
			"stateMutability": "nonpayable",
			"type": "constructor"
		},
		{
			"inputs": [],
			"name": "decrement",
			"outputs": [],
			"stateMutability": "nonpayable",
			"type": "function"
		},
		{
			"inputs": [],
			"name": "get",
			"outputs": [
				{
					"internalType": "uint256",
					"name": "",
					"type": "uint256"
				}
			],
			"stateMutability": "view",
			"type": "function"
		},
		{
			"inputs": [],
			"name": "increment",
			"outputs": [],
			"stateMutability": "nonpayable",
			"type": "function"
		}
	]
}